:10000000000001200D660000356600003766000024
:10001000396600003B6600003D66000000000000FD
:100020000000000000000000000000003F6600002B
:1000300041660000000000004366000045660000C5
:100040004766000015240000476600004766000070
:1000500047660000476600004D4500004766000007
:1000600047660000476600004D65000047660000D7
:1000700047660000476600004766000047660000CC
:1000800047660000652200004766000047660000E2
:1000900047660000476600004766000047660000AC
:1000A000476600004766000029650000814800009F
:1000B00047660000476600000000000000000000E6
:1000C000476600004766000047660000476600007C
:1000D0004766000047660000E5430000000000009E
:1000E0000000000000000000000000000000000010
:1000F0000000000000000000000000000000000000
:1001000000000000000000000000000000000000EF
:1001100000000000000000000000000000000000DF
:1001200000000000000000000000000000000000CF
:1001300000000000000000000000000000000000BF
:1001400000000000000000000000000000000000AF
:10015000000000000000000000000000000000009F
:10016000000000000000000000000000000000008F
:10017000000000000000000000000000000000007F
:10018000000000000000000000000000000000006F
:10019000000000000000000000000000000000005F
:1001A000000000000000000000000000000000004F
:1001B000000000000000000000000000000000003F
:1001C000000000000000000000000000000000002F
:1001D000000000000000000000000000000000001F
:1001E000000000000000000000000000000000000F
:1001F00000000000000000000000000000000000FF
:1002000010B5054C237833B9044B13B10448AFF350
:1002100000800123237010BDD400002000000000E6
:100220006C7B000008B5034B1BB103490348AFF3D7
:10023000008008BD00000000D80000206C7B00009A
:10024000154B002B08BF134B9D46A3F5803A0021A8
:100250008B460F461348144A121A06F051FD0F4BF5
:10026000002B00D098470E4B002B00D09847002061
:10027000002104000D000D48002802D00C48AFF307
:10028000008006F019FD2000290002F017F906F0A1
:10029000FFFC00BF0000080000000120000000007B
:1002A00000000000D400002094290020000000007D
:1002B0000000000080B483B000AF00237B6007E043
:1002C000094A7B68002122F813107B6801337B60A8
:1002D000064B1B687A689A42F2DB00BF0C37BD46BA
:1002E0005DF8047B704700BF8C02002010000020E6
:1002F000B0B584B000AF2F4B3B604FF00003FB6004
:100300002D4B1B68013BBB6000237B601BE0BB687F
:10031000002B04DA294B1B68BA681344BB60284AD7
:10032000BB6832F8133007EE903AF8EEE77A97EDB3
:10033000037A77EE277AC7ED037ABB68013BBB608F
:100340007B6801337B607B6807EE903AF8EEE77AD2
:1003500097ED007AB4EEE77AF1EE10FAD7DC97ED7C
:10036000037ADFED186AC7EE267AC7ED037A38689C
:1003700006F060FF4FF00002134B06F0B3FF034698
:100380000C4625461C46F86806F054FF02460B460C
:100390002046294607F0D0F803460C461846214669
:1003A00007F050FA0246094B1A6000BF1037BD46ED
:1003B000B0BD00BF0000A0410401002010000020DB
:1003C0008C02002000007A4400004E401001002002
:1003D000B0B58EB000AFBE4B1B68013B7B637B6B3F
:1003E000002B04DABB4B1B687A6B13447B63BA4A5D
:1003F0007B6B32F8133007EE903AF8EE677AC7ED70
:10040000057A7B6B013B7B637B6B002B04DAB14B82
:100410001B687A6B13447B63AF4A7B6B32F81330F3
:1004200007EE903AF8EE677AC7ED047AD7ED057AD1
:100430009FEDAA7AF4EEC77AF1EE10FA00F1FC8192
:10044000D7ED057A9FEDA67AF4EEC77AF1EE10FAB1
:1004500000F3F281D7ED047A9FEDA07AF4EEC77A2B
:10046000F1EE10FA00F1E881D7ED047A9FED9C7A65
:10047000F4EEC77AF1EE10FA00F3DE81994B1B68B7
:10048000184606F0D7FE90A3D3E9002307F09CF9A5
:100490000346002B02D0934A7B691360924B93ED85
:1004A000007AD7ED057A27EE277A8E4BD3ED007AC6
:1004B00077EE277A8B4BC3ED007A8A4B1B68184680
:1004C00006F0B8FE04460D46874B1B68184606F03A
:1004D000B1FE02460B464FF00000844906F04AFD8B
:1004E00002460B462046294606F0FCFE03460C4613
:1004F0001846214607F0CEF902467A4B1A60794B2E
:10050000D3ED007A97ED057A77EE677AC7ED037A37
:10051000774B93ED007AD7ED037A27EE277AD7ED64
:10052000037A27EE277A734BD3ED007A77EE277A9A
:10053000704BC3ED007A6F4B1B68184606F07AFECD
:1005400004460D466A4B1B68184606F073FE0246C9
:100550000B464FF00000654906F00CFD02460B46C5
:100560002046294606F0BEFE03460C4618462146A4
:1005700007F090F902465F4B1A6097ED057AD7EDC8
:10058000047A77EE677AC7ED0C7AD7ED0C7AF5EE40
:10059000C07AF1EE10FA05D5D7ED0C7AF1EE677A54
:1005A000C7ED0C7A544B1B6807EE903AB8EEE77A29
:1005B000DFED526AC6EE877AC7ED027A386B06F035
:1005C00039FE04460D46B86806F034FE4FF00002CE
:1005D0004B4B06F087FE02460B462046294606F0A6
:1005E000ABFF03460C461846214607F02BF903469D
:1005F000FB62444B1B68FA6A9A4203DB414B1B685F
:10060000013BFB620023BB622AE03F4ABB6A9B00BE
:1006100013441B68184606F00DFE04460D463B4B7E
:100620001B68184606F006FE02460B464FF0000017
:100630002E4906F09FFC02460B462046294606F04E
:1006400051FE03460C461846214607F023F90146A1
:100650002D4ABB6A9B0013441960BB6A0133BB621D
:10066000284B1B68BA6A9A42CFDB274AFB6A9B0079
:100670001344D3ED007AB7EE007A77EE877A224AF8
:10068000FB6A9B001344C3ED007A214B7B6200237D
:100690003B620EE01C4A3B6A9B001344D3ED007A98
:1006A00097ED097A77EE277AC7ED097A3B6A01332D
:1006B0003B62144B1B683A6A9A42EBDB0023FB61F6
:1006C0003BE000BFAFF300802D431CEBE2361A3F46
:1006D00004010020100000208C020020000048438C
:1006E0000000FA44140100201C0000200000F03F2C
:1006F00014000020180100201001002000007042AA
:10070000000024402000002050020020180000209B
:10071000BD3786354A4AFB699B001344D3ED006A16
:1007200097ED097AC6EE877A464AFB699B00134427
:10073000C3ED007AFB690133FB61434B1B68FA6927
:100740009A42E7DB7B6B013B7B637B6B002B04DA1C
:100750003E4B1B687A6B13447B633D4A7B6B32F8DC
:10076000133007EE903AF8EE677AC7ED017AD7EDCD
:10077000017A9FED387AF4EEC77AF1EE10FA5CDD7B
:10078000D7ED017A9FED347AF4EEC77AF1EE10FAE4
:1007900053D597ED047AD7ED017A77EE677AC7EDF6
:1007A000067AD7ED067AF5EEC07AF1EE10FA05D5A5
:1007B000D7ED067AF1EE677AC7ED067A97ED0C7AF7
:1007C000D7ED067A77EE677AC7ED007A234B1B6880
:1007D000184606F02FFD04460D46214B1B681846AF
:1007E00006F028FD02460B464FF000001D4906F0BA
:1007F000C1FB02460B462046294606F073FD034620
:100800000C461846214607F045F80246134B1A607D
:10081000134B93ED007AD7ED007A27EE277AD7EDC8
:10082000007A27EE277A0D4BD3ED007A77EE277A00
:100830000A4BC3ED007A00E000BF3837BD46B0BDBB
:100840005002002014020020200000201000002090
:100850008C020020000048430000FA441C010020E4
:10086000140000200000F03F80B582B000AF786037
:10087000144B1B687A6891B2134A22F81310114B7B
:100880001B6801330F4A13600E4B1A680F4B1B682D
:100890009A4202DB0B4B00221A600D4B1B7801338E
:1008A000DAB20B4B1A700A4B1B780F2B02D9084B8C
:1008B00000221A70FFF71CFDFFF78AFD00BF083702
:1008C000BD4680BD040100208C02002010000020E5
:1008D0002001002080B489B000AF87ED010A4FF0FD
:1008E0000003FB614FF00003BB614FF07E537B615F
:1008F0007B683B61D7ED047AF5EEC07AF1EE10FA31
:1009000005D5D7ED047AF1EE677AC7ED047AD7ED15
:10091000047AB0EE007AF4EEC77AF1EE10FA08D558
:100920004FF00003FB614FF00003BB61204B7B6184
:1009300017E0D7ED047AB2EE087AF4EEC77AF1EE5A
:1009400010FA07D51B4BFB614FF08043BB611A4B7C
:100950007B6106E0194BFB61194BBB614FF0804393
:100960007B6197ED047AD7ED067A37EE677AD7ED9B
:10097000057A67EE277A97ED077A77EE277AC7ED43
:10098000037AD7ED017AF5EEC07AF1EE10FA05D5CB
:10099000D7ED037AF1EE677AC7ED037AFB6807EECD
:1009A000903AB0EE670A2437BD465DF8047B704785
:1009B0000000C841000048420000A0400000C842BA
:1009C000000040410000000090B59BB000AF002344
:1009D00087F8673097F867305A1C87F867201A46FF
:1009E0006D4B002199546D4B1B780133DAB26B4B80
:1009F0001A706A4B1B78802B02D9684B00221A7040
:100A000097F867305A1C87F867201A46634B1978A5
:100A1000614B99544FF080535B6EFB62FB6A190E79
:100A200097F867305A1C87F867201A46C9B25A4BA4
:100A30009954FB6A190C97F867305A1C87F867209D
:100A40001A46C9B2544B9954FB6A190A97F8673091
:100A50005A1C87F867201A46C9B24F4B995497F829
:100A600067305A1C87F867201A46FB6AD9B24A4B8E
:100A700099544B4B1B7887F82B304A4B1B68002B43
:100A800000F09C8097F867305A1C87F867201A4658
:100A9000414B2021995497F867305A1C87F86720FA
:100AA0001A46414B19783C4B995497F867305A1CB9
:100AB00087F867201A463D4B1978374B995497F8B9
:100AC00067305A1C87F867201A46394B1978324B21
:100AD000995497F867305A1C87F867201A46344BA8
:100AE00019782D4B9954334B1B68B3F5803F03D3D2
:100AF000304B4FF6FF721A602E4B1B68190A97F89D
:100B000067305A1C87F867201A46C9B2224B99549D
:100B1000284B196897F867305A1C87F867201A46DF
:100B2000C9B21D4B995400233B660EE097F867301D
:100B30005A1C87F8672019461F4A3B6E13441A78DF
:100B4000154B5A543B6E01333B663B6E1F2BEDDD5C
:100B500097F867300133DAB20F4B1A70002387F829
:100B60005F300023BB650BE00B4ABB6D13441A7862
:100B700097F85F30134487F85F30BB6D0133BB6576
:100B800097F86730BA6D9A42EEDB97F86730024902
:100B900097F85F20CA54BCE214160020F100002030
:100BA000F80000200C010020F000002021010020AE
:100BB00008010020FC0000209418002097F86730FE
:100BC0005A1C87F867201946C04A97F82B305354AF
:100BD000BF4B1B780133DAB2BD4B1A70BC4B1B788C
:100BE000072B02D1BA4B00221A70B94B1B787B62DB
:100BF00097F867305A1C87F867201A467B6AD9B283
:100C0000B24B99547B6A002B1DD197F867305A1C60
:100C100087F867201A46AF4B1978AC4B995497F870
:100C200067305A1C87F867201A46A84B042199544C
:100C3000A94B196897F867305A1C87F867201A463D
:100C4000C9B2A24B99547B6A012B6CD1A34B1B6890
:100C5000184606F0EFFA03460C4644EC103B06F04B
:100C600059F854EC103B1846214606F0EBFD0346BC
:100C70007B659B4B1B68184606F0DCFA03460C4666
:100C800044EC103B06F046F854EC103B1846214665
:100C900006F0D8FD03463B657B6DB3F5805F02DB54
:100CA00040F6FF737B653B6DB3F5805F02DB40F67A
:100CB000FF733B657B6D1B12DBB203F00F0387F8FC
:100CC00023307B6D87F822303B6D1B12DBB203F0C3
:100CD0000F0387F821303B6D87F8203097F82330D9
:100CE0001B015AB297F92130134359B297F8673074
:100CF0005A1C87F867201A46C9B2744B995497F862
:100D000067305A1C87F867201946704A97F82230D6
:100D1000535497F867305A1C87F8672019466B4A76
:100D200097F8203053547B6A022B20D103F0E2FB6A
:100D3000F861FB69191297F867305A1C87F8672029
:100D40001A46C9B2614B995497F867305A1C87F814
:100D500067201A46FB69D9B25C4B995497F8673003
:100D60005A1C87F867201A46584B002199547B6A11
:100D7000032B29D15B4B1B68013BBB615A4ABB6902
:100D800032F813307B617B691B12FB747B69BB7487
:100D900097F867305A1C87F867201A46534B197822
:100DA0004A4B995497F867305A1C87F867201946C0
:100DB000464AFB7C535497F867305A1C87F86720E3
:100DC0001946424ABB7C53547B6A042B71D1484B71
:100DD000D3ED037AB0EE670AFFF77CFDB0EE407A00
:100DE000DFED447A77EE277AFDEEE77A17EE903A58
:100DF000FB64FB6C002B01DA0023FB64FB6CFF2B14
:100E000001DDFF23FB643A4BD3ED047AB0EE670AB1
:100E1000FFF760FDB0EE407ADFED367A77EE277AA5
:100E2000FDEEE77A17EE903ABB64BB6C002B01DA5B
:100E30000023BB64BB6CFF2B01DDFF23BB642C4B89
:100E4000D3ED057AB0EE670AFFF744FDB0EE407AC5
:100E5000DFED287A77EE277AFDEEE77A17EE903A03
:100E60007B647B6C002B01DA00237B647B6CFF2BA3
:100E700001DDFF237B6497F867305A1C87F86720F1
:100E80001A46FB6CD9B2114B995497F867305A1C2B
:100E900087F867201A46BB6CD9B20C4B995497F867
:100EA00067305A1C87F867201A467B6CD9B2074B0B
:100EB00099547B6A052B52D10D4B1B8EFB600E4B58
:100EC0001B68184606F0B6F918E000BF141600209B
:100ED00024010020F0000020100100201801002053
:100EE0001C010020040100208C02002020010020B1
:100EF000D418002000000043300100204FF0000211
:100F0000874B06F0EFF903460C461846214606F0DB
:100F100099FC03463B643B6CFF2B01DDFF233B64E4
:100F2000FB68191297F867305A1C87F867201A4631
:100F3000C9B27C4B995497F867305A1C87F86720E0
:100F40001A46FB68D9B2774B995497F867305A1C08
:100F500087F867201A463B6CD9B2724B99547B6A6A
:100F6000062B57D1704B1B68704A9B0013441B68BB
:100F7000184606F05FF968A3D3E9002306F0B2F93A
:100F800003460C461846214606F05CFC0346BB604F
:100F9000654B1B680133654A9B0013441B68184668
:100FA00006F048F95CA3D3E9002306F09BF9034659
:100FB0000C461846214606F045FC03467B605A4B1A
:100FC000196897F867305A1C87F867201A46C9B223
:100FD000544B995497F867305A1C87F867201A4683
:100FE000BB68D9B24F4B995497F867305A1C87F8B1
:100FF00067201A467B68D9B24A4B99544A4B1B6802
:101000000233494A1360484B1B680E2B02DD464BE6
:1010100000221A600023FB63454B1B781A4697F8A1
:101020002B30D31A013BBB63BB6B002B2CDA414B3B
:101030001B781A46BB6B1344BB6325E03E4ABB6B6F
:1010400052F82330191297F867305A1C87F8672036
:101050001A46C9B2334B9954374ABB6B52F8231026
:1010600097F867305A1C87F867201A46C9B22D4B8B
:101070009954BB6B0133BB632E4B1B781A46BB6B79
:10108000934201DB0023BB63FB6B5A1CFA6397F8A6
:101090002B209342D2DB03F02DFA03467B80B7F975
:1010A00002301B1219B297F867305A1C87F8672074
:1010B0001A46C9B21B4B995497F867305A1C87F8E7
:1010C00067201A467B88D9B2164B995497F8673037
:1010D0000133DAB2134B1A70002387F8373000233C
:1010E0003B630BE00F4A3B6B13441A7897F8373099
:1010F000134487F837303B6B01333B6397F8673015
:101100003A6B9A42EEDB97F86730064997F837203A
:10111000CA546C37BD4690BD0000000000E06F402F
:1011200000002440141600202C010020140200208E
:10113000F90000200D0000202C1900200000000004
:10114000B0B5A6B000AF524B1A78524B1A70524B42
:101150001B68002B00F0AE804E4B08225A704F4B9C
:101160001A784C4B9A704E4B1A784A4BDA704D4BAA
:101170001A78484B1A714C4B1B68B3F5803F03D368
:10118000494B4FF6FF721A60474B1B681B0ADAB2D5
:10119000404B5A71444B1B68DAB23E4B9A7107239D
:1011A000C7F894300123C7F8903010E0D7F8943096
:1011B0005A1CC7F894203D49D7F890200A4411786A
:1011C000344AD154D7F890300133C7F89030D7F86B
:1011D0009030042BEADD0023C7F88C301EE0D7F8EE
:1011E0008C305B000533314AD35C1946D7F88C301C
:1011F00003335B002D4AD35C0B44DA0F13445B10BE
:101200001946D7F894305A1CC7F89420C9B2214A1D
:10121000D154D7F88C300133C7F88C30D7F88C30E4
:10122000042BDCDD0023C7F888302CE0D7F88820B9
:1012300013465B0013440F331C4AD35C1946D7F89E
:10124000882013465B0013441033184AD35C1944BA
:10125000D7F8882013465B0013441133134AD35C3C
:101260000B44134A82FB0312DB17D11AD7F89430D0
:101270005A1CC7F89420C9B2064AD154D7F888300E
:101280000133C7F88830D7F88830042BCEDD3BE334
:1012900023010020141600200C010020F000002083
:1012A0002101002008010020FC00002094180020EB
:1012B0005655555503F01EF9F863BB4B1B6818468D
:1012C00005F0B8FFB4A3D3E9002306F00BF80346FA
:1012D0000C461846214606F0DDFA0246B24B1A606B
:1012E000B14B1B68184605F0A5FF04460D46F86B88
:1012F00005F08EFFAAA3D3E9002305F0F3FF024611
:101300000B462046294605F037FE03460C46184694
:10131000214606F0BFFA0246A34B1A60A34B1B7886
:101320000133DAB2A14B1A70A04B1B78072B02D104
:101330009E4B00221A709D4B1B78BB63BB6BDAB2CD
:101340009B4B5A70BB6B002B0BD19A4B1A78984B66
:101350009A70974B0522DA70974B1B68DAB2944B60
:101360001A71BB6B012B64D1944B1B68184605F0B6
:1013700061FF03460C4644EC103B05F0CBFC54ECFB
:10138000103B1846214606F05DFA0346C7F8843044
:101390008B4B1B68184605F04DFF03460C4644EC8A
:1013A000103B05F0B7FC54EC103B1846214606F004
:1013B00049FA0346C7F88030D7F88430B3F5805F28
:1013C00003DB40F6FF73C7F88430D7F88030B3F5FD
:1013D000805F03DB40F6FF73C7F88030D7F88430B6
:1013E0001B12DBB203F00F0387F83730D7F88430D5
:1013F00087F83630D7F880301B12DBB203F00F03CA
:1014000087F83530D7F8803087F8343097F83730A0
:101410001B015AB297F9353013435BB2DAB2644B11
:101420009A70634A97F83630D370614A97F834302F
:101430001371BB6B022B13D15B4BD3ED007AFDEE26
:10144000E77A17EE903A3B633B6B1B12DAB2584BCC
:101450009A703B6BDAB2564BDA70554B00221A7118
:10146000BB6B032B61D1574B1B68013BFB67FB6FC9
:10147000002B04DA544B1B68FA6F1344FB67FB6FB5
:10148000013BBB67BB6F002B04DA4F4B1B68BA6F85
:101490001344BB674D4AFB6F32F813307B674B4AEE
:1014A000BB6F32F813303B677B6FB3F5805F02DBB5
:1014B00040F6FF737B673B6FB3F5805F02DB40F65E
:1014C000FF733B677B6F1B12DBB203F00F0387F8E0
:1014D0002F307B6F87F82E303B6F1B12DBB203F08F
:1014E0000F0387F82D303B6F87F82C30304B5B783B
:1014F0005AB2374B1B781B015BB213435BB2DAB2B3
:101500002B4B5A7097F82F301B015AB297F92D3098
:1015100013435BB2DAB2264B9A70254A97F82E3005
:10152000D370234A97F82C301371BB6B042B40F017
:101530008480284BD3ED037AB0EE670AFFF7CAF92F
:10154000B0EE407ADFED247A77EE277AFDEEE77A87
:1015500017EE903AFB66FB6E002B01DA0023FB6668
:10156000FB6EFF2B01DDFF23FB661A4BD3ED047AE4
:10157000B0EE670AFFF7AEF9B0EE407ADFED167A0B
:1015800077EE277AFDEEE77A17EE903ABB66BB6EF0
:10159000002B25DA22E000BF5C8FC2F5285CEF3F0C
:1015A0007B14AE47E17A943F2801002024010020FB
:1015B00014160020F0000020100100201801002067
:1015C0001C01002004010020100000208C020020DB
:1015D00020010020D4180020000000430023BB6637
:1015E000BB6EFF2B01DDFF23BB66A74BD3ED057A56
:1015F000B0EE670AFFF76EF9B0EE407ADFEDA37A3E
:1016000077EE277AFDEEE77A17EE903A7B667B6EEF
:10161000002B01DA00237B667B6EFF2B01DDFF23AD
:101620007B66FB6EDAB29A4B9A70BB6EDAB2984B5D
:10163000DA707B6EDAB2964B1A71BB6B052B26D132
:10164000914B1B8EBB62934B1B68184605F0F2FD55
:101650004FF00002904B05F045FE03460C4618463D
:10166000214606F0EFF803463B663B6EFF2B01DD9B
:10167000FF233B66BB6A1B12DAB2854B9A70BB6ACA
:10168000DAB2834BDA703B6EDAB2814B1A71BB6B04
:10169000062B67D1814B1B68814A9B0013441B6852
:1016A000184605F0C7FD76A3D3E9002305F01AFE1E
:1016B00003460C461846214606F0C4F803467B62F2
:1016C000764B1B680133764A9B0013441B6818460F
:1016D00005F0B0FD6AA3D3E9002305F003FE03463D
:1016E0000C461846214606F0ADF803463B626B4BAC
:1016F0001B6802336A4A9B0013441B68184605F0B6
:1017000099FD5FA3D3E9002305F0ECFD03460C46E9
:101710001846214606F096F80346FB615C4B5B7861
:101720005AB25E4B1B681B015BB213435BB2DAB269
:10173000574B5A70594B1B680333584A1360574B29
:101740001B680C2B02DD554B00221A607B6ADAB253
:101750004F4B9A703B6ADAB24D4BDA70FB69DAB2E2
:101760004B4B1A711E23BB614E4B1B781A46BB694B
:10177000D31A013BFB65FB6D002B05DA4A4B1B7846
:101780001A46FB6D1344FB65052387F85B30474A17
:10179000FB6D52F823307B617B69191297F85B303F
:1017A0005A1C87F85B201A46C9B2394B995497F8EE
:1017B0005B305A1C87F85B201A467B69D9B2344BE0
:1017C0009954FB6D3B617B697B650123FB600023C2
:1017D0003B650023FB6424E0FB6D0133FB65324B6A
:1017E0001B781A46FB6D934201DB0023FB652F4AF1
:1017F000FB6D52F82330BB60BA687B6DD31ABB64B3
:10180000BB6C002B02DABB6C5B42BB64BA6C3B6DF9
:101810009A4201DDBB6C3B65BB687B65FB6C0133A9
:10182000FB64FA6CBB699A42D6DB3B6D204A82FBB3
:1018300003121A449211DB17D31A0133FB60FB68C1
:101840007B647B6C642B07DD7B6C643B002B00DAD4
:1018500003339B1064337B6497F85B305A1C87F822
:101860005B201A467B6CD9B2094B99543B69FB65E6
:101870007B697B6500233B6442E000BFAFF30080DF
:101880000000000000E06F40D4180020000000437A
:101890001416002030010020000024402C010020FC
:1018A00014020020000100200E00002094160020E9
:1018B00009040281FB6D0133FB65154B1B781A4649
:1018C000FB6D934201DB0023FB65124AFB6D52F86E
:1018D00023307B607A687B6DD21AFB6892FBF3F34E
:1018E0003B6097F85B305A1C87F85B201A463B68D0
:1018F000D9B2094B99547B687B653B6C01333B64DF
:101900003A6CBB699A42D5DB9837BD46B0BD00BF83
:101910000E00002094160020141600200000000085
:10192000B0B59AB000AF744B1B68002B00F0F68086
:1019300002F070FD0346002B00F0D68002F0C4FDDB
:10194000B8636E4B7B664FF000033B660123FB657B
:1019500027E0FB6D9B00BA6B1344D3ED007A97ED43
:10196000197AB4EEE77AF1EE10FA05D5FB6D9B001B
:10197000BA6B13441B687B66FB6D052B0EDDFB6D9C
:101980001E2B0BDCFB6D9B00BA6B1344D3ED007A6E
:1019900097ED187A77EE277AC7ED187AFB6D013349
:1019A000FB65FB6D1F2BD4DD386E05F043FC50A3A7
:1019B000D3E9002305F096FC03460C461846214661
:1019C00005F068FF03463B664D4B1B78002B13D098
:1019D000D7ED187AB2EE007AF4EEC77AF1EE10FA8B
:1019E00005DD78223C21FF2003F034F804E00022DA
:1019F0000021002003F02EF8D7ED187A77EEA77AB1
:101A0000C7ED187AD7ED187A9FED3E7AF4EEC77AD3
:101A1000F1EE10FA03DD3C4BFF221A7009E0D7ED1E
:101A2000187AFCEEE77AC7ED017A3B79DAB2364BE9
:101A30001A70D7ED197A9FED357AF4EEC77AF1EE88
:101A400010FA04DD324B4FF6FF721A6007E0D7ED53
:101A5000197AFCEEE77A17EE902A2D4B1A60DFED2B
:101A6000296A97ED197AC6EE877AC7ED197A0023AD
:101A7000BB652EE0BB6D9B00BA6B134493ED007AFF
:101A8000D7ED197A67EE277A9FED1E7AF4EEC77AC2
:101A9000F1EE10FA05DD1F4ABB6D1344FF221A70E8
:101AA00014E0BB6D9B00BA6B134493ED007AD7ED45
:101AB000197A67EE277AFCEEE77AC7ED017A3B796F
:101AC000D9B2144ABB6D13440A461A70BB6D013378
:101AD000BB65BB6D1F2BCDDD0F4B1B780133DAB21D
:101AE0000D4B1A7001234FE300234DE3AFF3008049
:101AF0007B14AE47E17AA43F0C0100206F12833AB9
:101B00000C00002000007F430801002000FF7F47F9
:101B1000FC000020941800202101002002F0DEFCCF
:101B20007863BB4B1B781946BA4A7B6B42F821306D
:101B3000B94B93ED037AB84BD3ED037A27EE277AAE
:101B4000B54BD3ED046AB44BD3ED047A66EEA77AB5
:101B500037EE277AB04BD3ED056AAF4BD3ED057A5C
:101B600066EEA77A77EE277A17EE900A05F062FB09
:101B700003460C4644EC103B05F0CCF854EC103B0B
:101B80001846214605F086FE03463B63A34B1B68BF
:101B9000184605F04FFB90A3D3E9002305F0A2FB04
:101BA00003460C461846214605F074FE02469B4B40
:101BB0001A609A4B1B68184605F03CFB04460D461C
:101BC000386B05F037FB86A3D3E9002305F08AFBC9
:101BD00002460B462046294605F0CEF903460C4640
:101BE0001846214605F056FE02468C4B1A608C4B77
:101BF0001A687B6B13448A4A13608A4B1B68013353
:101C0000884A1360874B1B68072B23DD844B1B68B6
:101C1000854A12781146DB10844A42F82130824B03
:101C20001B780133DAB2804B1A707F4B1A78804BE5
:101C30001B789A4202D37C4B00221A70784B002208
:101C40001A60784B00221A607A4B1B780133DAB2A3
:101C5000784B1A706E4B1B780133DAB26C4B1A70EA
:101C60006B4B1A78744B1B789A4202D3684B002254
:101C70001A707B6B7B657B6DB3F5004F03DB7B6D6F
:101C8000A3F580337B657B6D07EE903AF8EEE77A3B
:101C9000C7ED0B7A694B1B68184605F0CBFA52A3C7
:101CA000D3E9002305F01EFB03460C4618462146E7
:101CB00005F0F0FD0246614B1A60604B1B68184648
:101CC00005F0B8FA04460D46F86A05F0B3FA48A3E1
:101CD000D3E9002305F006FB02460B4620462946C1
:101CE00005F04AF903460C461846214605F0D2FD98
:101CF0000246524B1A60524B1B68184605F09AFA7E
:101D00003DA3D3E9002305F0EDFA03460C4618463F
:101D1000214605F0BFFD0246494B1A60484B1B683F
:101D2000184605F087FA04460D46F86A05F082FA6F
:101D300033A3D3E9002305F0D5FA02460B4620462B
:101D4000294605F019F903460C461846214605F0C8
:101D5000A1FD02463A4B1A60384BD3ED007A97ED5D
:101D60000B7A77EE677AC7ED0A7A354BD3ED007AB6
:101D700097ED0B7A77EE677AC7ED097A314B1B68DE
:101D8000184605F057FA20A3D3E9002305F0AAFA74
:101D900003460C461846214605F07CFD0246294BB9
:101DA0001A60294B1B68184605F044FA16A3D3E9BC
:101DB000002305F097FA03460C461846214605F025
:101DC00069FD0246204B1A60204B1B68184605F03F
:101DD00031FA3DE0AFF30080666666666666EE3F08
:101DE0009A9999999999A93F8195438B6CE7EF3F0F
:101DF000FA7E6ABC7493683F5C8FC2F5285CEF3F43
:101E00007B14AE47E17A943FCDCCCCCCCCCCEC3F2C
:101E1000F90000202C190020D418002030010020E7
:101E20005C010020600100200001002094160020C9
:101E30000E000020230100200D00002038010020AA
:101E40003C010020480100204C01002040010020FE
:101E50009DA3D3E9002305F045FA03460C46184636
:101E6000214605F017FD02469B4B1A609B4B1B68F1
:101E7000184605F0DFF994A3D3E9002305F032FA00
:101E800003460C461846214605F004FD0246934BD6
:101E90001A60934BD3ED007A97ED097AB4EEE77AA6
:101EA000F1EE10FA02DD8E4A7B6A13608D4BD3EDA2
:101EB000007A97ED097AB4EEE77AF1EE10FA02D5DE
:101EC000884A7B6A1360844BD3ED007A97ED0A7AD7
:101ED000B4EEE77AF1EE10FA02DD7F4ABB6A1360D6
:101EE0007E4BD3ED007A97ED0A7AB4EEE77AF1EE05
:101EF00010FA02D5794ABB6A136004F009FB386214
:101F0000774B93ED007A774BD3ED007A77EE677AD3
:101F100017EE900A05F08EF904460D466E4B93EDD0
:101F2000007A6E4BD3ED007A77EE677A17EE900A5F
:101F300005F080F966A3D3E9002305F0D3F9024642
:101F40000B462046294605F05DFC0346002B05D0D4
:101F5000654B1B680133644A136002E0624B002248
:101F60001A60614B1B680A2B1CDD604B1B68002B41
:101F700015D15F4B1B683A6AD31AC82B0FD95D4A3B
:101F80003B6A13605B4B1A68594B1B68D31AFB61A1
:101F9000F869FEF769FC574B1B68554A1360534BB1
:101FA00050221A60514B1B68002B34DD4F4B1B68CD
:101FB000013B4E4A136002F09DFA38653B6D13F504
:101FC000616F01DA4C4B3B653B6DB3F5616F02DD30
:101FD0004FF461633B653B6D03F56163474A82FBE8
:101FE0000312D210DB17D31AFB64FB6C002B01DA4F
:101FF0000023FB64FB6CB3F5B47F02DB40F2671394
:10200000FB643F4B1B78002B0ED078221421FF205D
:1020100002F020FD08E03A4B1B78002B04D0002290
:102020000021002002F016FD364B1B78032B32D125
:102030003C23BB612F4B1B683A6AD31A7B61002398
:10204000BB647B69312B05D87A6913465B00134466
:10205000BB6409E07B69632B06D87A6913465B0091
:102060001344C3F19603BB64BA69BB6C13447B642D
:102070007B6C002B01DA00237B647B6CFF2B01DD82
:10208000FF237B647B6C642BCCBF01230023DBB27A
:10209000184602F0C3FC1B4B1B78042B55D196232A
:1020A0003B61144B1B683A6AD31AFB6000233B6404
:1020B000FB68312B28D8FA6813465B0013443B6455
:1020C0002CE000BFAFF3008096438B6CE7FBEF3F43
:1020D0009A9999999999D93F40010020440100208B
:1020E000480100204C010020500100203401002054
:1020F0005801002054010020F0F1FFFF676666667A
:102100000C00002024000020FB68632B06D8FA682E
:1021100013465B001344C3F196033B643A693B6C7E
:10212000D31AFB63FB6B002B01DA0023FB63FB6B11
:10213000FF2B01DDFF23FB63FB6B642BCCBF012373
:102140000023DBB2184602F069FC114B1B78012B0F
:102150000AD1104B1B68002B03DDFF2002F05EFC50
:1021600002E0002002F05AFC094B1B78022B0AD136
:10217000084B1B68002B03DD002002F04FFC02E03F
:10218000FF2002F04BFC012318466837BD46B0BD66
:10219000240000203401002080B400AF4FF08043C1
:1021A0000022C3F800214FF0804301221A6000BFD3
:1021B0004FF08043D3F80031002BF9D000BFBD466B
:1021C0005DF8047B704780B400AF4FF0804300227D
:1021D000C3F818254FF0804301229A6000BF4FF0EA
:1021E0008043D3F80431002BF9D000BFBD465DF821
:1021F000047B704780B500AFFFF7E5FF4FF08043E9
:1022000001225A6000BF80BD80B500AF02F0ACFA79
:1022100004F060F9FFF7EEFF0B4B0022C3F8002536
:1022200000220021002002F015FC002002F0F6FB45
:102230004FF080430122DA674FF080430122C3F858
:10224000002500BF80BD00BF0030004080B400AF5B
:10225000034B01225A6000BFBD465DF8047B704706
:102260000010014080B500AF084BD3F84031002B7F
:1022700009D0064B0022C3F84021044B01229A608A
:1022800040BFFFF7E3FF00BF80BD00BF001001406B
:1022900090B585B000AF0023BB60574B0022C3F858
:1022A0001825554B0122C3F81025534B0022C3F8C3
:1022B0001425514B0322C3F8F0254F4B0122C3F8DC
:1022C00030264D4A07F10803C2F82C364A4B00224B
:1022D000C3F8F825484B0122C3F80025474B1B687B
:1022E0000133464A1360444B01221A6000BF424B3F
:1022F000D3F80031002BFAD03F4B0022C3F8002165
:102300003D4B01225A6000BF3B4BD3F80431002BF8
:10231000FAD0394B0022C3F80421374B01229A60CE
:1023200000BF354BD3F81431002BFAD0324B0022CA
:10233000C3F81421BB6807EE903AF8EE677AC7ED50
:10234000037AF86804F076FF29A3D3E9002304F0A8
:10235000C9FF03460C46184621464FF00002284BA1
:1023600005F0EAF803460C461846214605F092FAB5
:102370000346FB60D7ED037AB0EE087A67EE877A02
:10238000C7ED037A1F4AFB681360D7ED037A9FED10
:102390001E7A77EEC77AC7ED037AD7ED037AF5EEAA
:1023A000C07AF1EE10FA03D5184B00221A701BE028
:1023B000D7ED037A9FED167AF4EEC77AF1EE10FAB4
:1023C00003DD124BFF221A700EE097ED037AF2EE56
:1023D000046AC7EE267AFCEEE77AC7ED017A3B790C
:1023E000DAB20A4B1A7000BF1437BD4690BD00BF69
:1023F000000000000020AC4000700040640100209C
:102400000000D040040000200000FA44F00000204A
:1024100000601F4580B500AF064B1B78002B01D133
:1024200002F0B8FC034B1B78012B01D100F0CCFD6E
:1024300000BF80BD2500002080B500AF02F088FB02
:1024400000F072FC00BF80BD80B500AF02F080FBE1
:10245000202002F0A1FB02F077FC00BF80BD00004D
:1024600080B500AF084B1B78012B05D1064B00222D
:102470001A70FFF7E9FF04E0034B01221A70FFF71F
:10248000DBFF00BF80BD00BF2500002080B500AF8E
:10249000094B1B68002B06D1074B01221A60012053
:1024A00002F03CF805E0044B00221A60002002F024
:1024B00035F800BF80BD00BF0C01002080B596B08C
:1024C00002AF0123FB644FF010230022C3F80C225B
:1024D0004FF0A042C74B1B7803F5E0730C2142F884
:1024E0002310FFF759FE03F0CBFF4FF0A0434FF04E
:1024F0008042C3F818254FF0A0434FF08042C3F844
:10250000082502F013FA0023BB641BE0BB6C002B10
:1025100001D1FF2000E00020BB6C012B01D1FF2185
:1025200000E00021BB6C022B01D1FF2300E000235F
:102530001A4602F08FFA4FF4967004F047F8BB6C1D
:102540000133BB64BB6C022BE0DD002200210020C4
:1025500002F080FA4FF4967004F038F8A64B1B781E
:10256000012B01D100F0E0FBA34B1B78002B04D121
:10257000202002F011FB02F0E7FB112300930F2350
:102580000E220C210D2002F011F802F0E1F80346B2
:10259000002B23D10023FB6400220021FF2002F046
:1025A00059FA4FF47A7004F011F80022002100204B
:1025B00002F050FAC82004F009F8FF220021FF20A1
:1025C00002F048FA4FF47A7004F000F8002200217B
:1025D000002002F03FFAC82003F0F8FF1423009314
:1025E00012230E220C210D2002F012FF02F056FFE2
:1025F0000346002B23D10023FB6400220021FF208F
:1026000002F028FA4FF47A7003F0E0FF0022002174
:10261000002002F01FFAC82003F0D8FF0022FF219B
:10262000FF2002F017FA4FF47A7003F0CFFF002278
:102630000021002002F00EFAC82003F0C7FF4FF07F
:10264000A043D3F810356B4A1278114601228A4014
:102650001340002B21D100220021FF2002F0FAF9C3
:102660004FF47A7003F0B2FF00220021002002F044
:10267000F1F9C82003F0AAFFFF220021002002F098
:10268000E9F94FF47A7003F0A1FF00220021002045
:1026900002F0E0F9C82003F099FF642003F096FFF0
:1026A000FDF708FE00237B64002387F843300023F6
:1026B00087F842300023FB6300233B620023FB6169
:1026C0000023BB610123FB614C4B01221A604B4B81
:1026D0000022C3F80022494B0122C3F80425052338
:1026E000BB6305237B6300233B630023FB62002362
:1026F000BB62FB6C002B18D000237B6212E000222F
:10270000FF21002002F0A6F9C82003F05FFF00229D
:102710000021002002F09EF9C82003F057FF7B6AD9
:1027200001337B627B6A022BE9DD03F0F1FE786105
:102730004FF0A043D3F810352E4A127811460122EB
:102740008A401340002B3AD12D4B00221A7097F883
:102750004230002B04D1012387F842307B69FB63B0
:102760007A69FB6BD31A192B0AD97A69FB6BD31AD6
:10277000B3F57A7F04D2FF220021002002F06AF92B
:102780007A69FB6BD31AB3F57A7F0BD97A69FB6B45
:10279000D31A41F28732934204D80022FF2100204D
:1027A00002F058F97A69FB6BD31A41F288329342EE
:1027B0002FD9FF22FF21FF2002F04CF929E0104B16
:1027C00001221A7097F84230002B22D0002387F89C
:1027D00042307B693B623A6AFB6BD31A3B613B69CF
:1027E000192B16D93B69B3F57A7F0BD2FFF738FE68
:1027F0000FE000BF000000202500002000D00040B6
:102800000C0000203B6941F28732934201D8FFF768
:102810003DFE01F089FF0346002B45D0FFF780F80D
:102820000346002B30D0984B1B780133DAB2964B1D
:102830001A70964B1B780133DAB2944B1A70944B92
:102840001B781D2B05D8924B1B780133DAB2904BC5
:102850001A70FFF71DFD8F4B1B6807EE903AB8EE1C
:10286000E77A8D4BD3ED007AB4EEE77AF1EE10FA09
:1028700008DDFB6A0133FB62FB6A642B04DDFFF7B2
:10288000C3FC01E00023FB62844B1B68002B0BD1CF
:1028900002F052FCBB6A0133BB62BB6A142B03DD3E
:1028A00002F040FD0023BB627D4B1B78002B7DD1E5
:1028B000774B1B781A46794B1B68002B01D10523F7
:1028C00000E0002393423ADA7A697B6CD21ABB6B40
:1028D0009A4234D9FEF778F8724802F04BFA6C4B02
:1028E00000221A707B697B6401233B636E4BD3F833
:1028F0000031002B23D06C4BD3F808357B606A4B3A
:102900000022C3F80021654B1B685B005A1C7B68E2
:102910009B111344BB63614B1B685B00581C7A68B6
:102920005E4B1B68591C0B465B000B4492FBF3F19A
:1029300003FB01F3D31A03447B635B4B1B687B6C83
:10294000002B0DD07A697B6CD21A7B6B9A4207D927
:102950003B6B012B04D1534802F00CFA02233B637A
:102960007B6C002B0ED07A697B6CD31A7A6B520089
:10297000934207D93B6B022B04D14A4802F0FAF983
:1029800003233B637B6C002B10D07A697B6CD11ADC
:102990007A6B13465B001344994207D93B6B032BB8
:1029A00004D1404802F0E6F904233B633C4B1B781A
:1029B000012B7FF4BAAEBB6BFB607B6BBB607A69AB
:1029C0007B6CD21AFB689A4238D9FEF7B9FB2821F2
:1029D000344800F089F800F03DFA012387F84330CD
:1029E0007B697B64304BD3F80031002B26D02E4B13
:1029F000D3F808353B602C4B0022C3F800213B681C
:102A00005A4203F0030302F0030258BF53420B3350
:102A1000BB633A6813461B019918244B83FB0123BF
:102A20005A10CB17D21A13469B001344CA1A531DCF
:102A30007B631F4ABB6B13601B4B1B687A697B6C03
:102A4000D21ABB689A420AD997F84330012B06D1B3
:102A500000F000FA022387F843307B697B647A69CF
:102A60007B6CD21ABB689A427FF65FAE97F8433010
:102A7000022B7FF45AAE00F0EDF97B697B640323EF
:102A800087F8433051E600BFFA0000202201002001
:102A9000F800002008000020040000200C010020A5
:102AA000250000201416002000D0004067666666EE
:102AB000F400002080B483B000AF0346FB71FB79C3
:102AC00003F01F02074997F907305B09012000FA5C
:102AD00002F241F8232000BF0C37BD465DF8047BAD
:102AE000704700BF00E100E080B489B000AF7860BB
:102AF0003960864B1B68272B02DD844B25221A6028
:102B0000834B25221A600023FB61824B1B68013333
:102B1000804A1360804B00221A607E4B1B68142B86
:102B200005DD7D4B01221A607A4B00221A60FB6999
:102B30005A1CFA61794A4221D154754B1968FB69D4
:102B40005A1CFA61C9B2754AD154FB695A1CFA6120
:102B5000724A0021D1544FF080535B6EBB60BB685A
:102B60001B0EDAB26E4B9A70BB681B0CDAB26C4B60
:102B7000DA70BB681B0ADAB2694B1A71BB68DAB249
:102B8000674B5A710023BB610CE0BB69C3F10502BE
:102B9000FB69591CF9616249895C604AD154BB697F
:102BA0000133BB61BB69052BEFDD5B4B1B68002B61
:102BB00035D0FB695A1CFA61584A0221D154FB698D
:102BC0005A1CFA61554A0121D154FB695A1CFA6119
:102BD000524A0021D154FB695A1CFA614F4A05211F
:102BE000D154FB695A1CFA614C4A0821D154FB6943
:102BF0005A1CFA61494A7521D154FB695A1CFA6181
:102C0000464A4521D154FB695A1CFA61434A432183
:102C1000D154FB695A1CFA61404A4721D1543C4BBC
:102C20001B68DAB23C4B1B68DBB219464901C91A72
:102C3000C900CB1ADBB21344DAB2FB69591CF96143
:102C4000073AD1B2354AD154FB695A1CFA61334A6A
:102C5000FF21D15400237B610EE07B697A681A441E
:102C6000FB69591CF96111782C4AD154FB69262B58
:102C700007DC7B6901337B617A693B689A42ECDB54
:102C800000E000BF254B002283F82720234B0022C1
:102C900083F828200023FB61FB695A1CFA61214A52
:102CA0004421D154FB695A1CFA611E4A0621D154B1
:102CB000FB695A1CFA611B4A0021D15400233B6175
:102CC0000CE03B69C3F10502FB69591CF961144929
:102CD000895C144AD1543B6901333B613B69052B44
:102CE000EFDD0023FB6008E0FB695A1CFA610D4A26
:102CF0000021D154FB680133FB60FB68052BF3DD39
:102D00002437BD465DF8047B704700BF30000020CB
:102D100068010020700100206C0100202C1B0020A5
:102D200028000020AC1B002080B582B000AF314BE2
:102D30000122C3F8FC2F2F4B0322C3F810252D4B83
:102D40002D4AC3F814252B4B2C4AC3F81825294BC0
:102D5000294AC3F81425274B284AC3F81825254BC0
:102D6000274AC3F81C25234B8E22C3F82425214B68
:102D70000022C3F82C251F4B0122C3F830251D4B20
:102D800040F20312C3F834251A4B40F25B62C3F8D9
:102D90003825184B1B4AC3F83C25164B0422C3F8B0
:102DA0000C25144B0022C3F81021124B0022C3F84B
:102DB0000C21104B0022C3F800210E4B0022C3F857
:102DC000042100237B6007E00F4A7B681344002244
:102DD0001A707B6801337B607B683F2BF4DD054B09
:102DE0000822C3F804230120FFF764FE00BF083760
:102DF000BD4680BD00100040060102002500030210
:102E000000D6BE89555555002C1C002080B400AF5B
:102E10000F4BD3F85035002B15D00D4B0022C3F8C3
:102E200000220B4B0022C3F81021094B01221A612A
:102E300000BF074BD3F81031002BFAD0044B00220F
:102E4000C3F8102100E000BFBD465DF8047B704769
:102E50000010004080B582B000AF344B1B680133D6
:102E6000324A1360314B1B68272B02DD2F4B252282
:102E70001A602E4B1B68252B03D12D4B0222C3F861
:102E800008252A4B1B68262B03D1294B1A22C3F88D
:102E90000825264B1B68272B03D1254B5022C3F84E
:102EA0000825224B1A68224BC3F85425204B40F2C8
:102EB0005B62C3F838251E4B1E4AC3F83C251C4BE9
:102EC0001D4AC3F804251A4BD3F8503503F0080304
:102ED000002B02D1FFF79AFF08E0154BD3F85035CD
:102EE00003F00303002B01D1FFF790FF104B0322E7
:102EF000C3F800220E4B01221A6000237B6002E01F
:102F00007B6801337B607B68132BF9DD084BD3F8BA
:102F10000032074A43F00803C2F80032074B03228D
:102F20001A6000BF0837BD4680BD00BF30000020DA
:102F300000100040555555002C1B00207401002046
:102F400080B483B000AF1C4B0322C3F800220023DF
:102F50007B6007E07B680933184A0021D1547B6805
:102F600001337B607B68052BF4DD154B1A68124B2F
:102F7000C3F85425104B114AC3F804250E4B012207
:102F80001A6000233B6002E03B6801333B603B6812
:102F9000132BF9DD084BD3F80032074A43F008033E
:102FA000C2F80032074B03221A6000BF0C37BD463F
:102FB0005DF8047B704700BF00100040AC1B002090
:102FC000300000207401002080B584B000AF2B4B8E
:102FD0001B680133294A1360294BD3F80C31002BAD
:102FE00048D0274BD3F8043303F00803002B41D01B
:102FF000234B0022C3F80C21224B1B68002B2AD143
:10300000214B1B680133204A1360204B1B7803F0CF
:103010000F037B607B68032B1DD10123FB60002322
:10302000BB600FE0BB680933184AD25CBB68C3F1D0
:1030300005031749CB5C9A4201D00023FB60BB68B3
:103040000133BB60BB68052BECDDFB68002B02D0B5
:10305000FFF776FF0EE00B4B1B68032B0AD1084BE2
:103060000A4AC3F80425074B00221A60044B0322C6
:10307000C3F800221037BD4680BD00BF7801002094
:1030800000100040740100207C0100202C1C002056
:103090002800002080B483B000AF0346FB71FB79A9
:1030A00003F01F02074997F907305B09012000FA76
:1030B00002F241F8232000BF0C37BD465DF8047BC7
:1030C000704700BF00E100E080B483B000AF03466A
:1030D000FB71FB7903F01F02074997F907305B0981
:1030E000012000FA02F2203341F8232000BF0C3700
:1030F000BD465DF8047B704700E100E080B483B01A
:1031000000AF0346FB71FB7903F01F02074997F9F3
:1031100007305B09012000FA02F2603341F82320F6
:1031200000BF0C37BD465DF8047B704700E100E04E
:1031300080B483B000AF03463960FB7197F9073064
:10314000002B0BDA3B68DAB20C49FB7903F00F0372
:10315000043B5201D2B20B441A7609E03B68DAB262
:10316000074997F907305201D2B20B4483F8002384
:1031700000BF0C37BD465DF8047B704700ED00E0F2
:1031800000E100E080B483B000AF78604FF0A0436E
:1031900018460C37BD465DF8047B704780B584B097
:1031A00000AF7860084611461A460346FB700B468E
:1031B000BB7013467B703B1D1846FFF7E3FFF860BA
:1031C000FA78BB785B001A437B789B001A433B7EFE
:1031D0001B0242EA03013B7F1B047A681943FB6828
:1031E00002F5E07243F8221000BF1037BD4680BDE3
:1031F00080B584B002AF7860002301930023009370
:103200000023012201217868FFF7C8FF00BF0837BB
:10321000BD4680BD000000002DE9B04384B000AF82
:1032200087ED010A4FF00003FB600FE0786804F0BF
:1032300001F8ADA3D3E9002303F09EFE03460C463C
:103240001846214604F026FB03467B60786803F0AD
:10325000F1FFA7A3D3E9002304F0B6FA0346002B3D
:10326000E4D10FE0786803F0E5FF9FA3D3E90023E2
:1032700003F080FE03460C461846214604F00AFB84
:1032800003467B60786803F0D5FF9BA3D3E9002356
:1032900004F0B8FA0346002BE4D1D7ED017AF5EE3D
:1032A000C07AF1EE10FA40F18A80786803F0C2FF2C
:1032B00093A3D3E9002304F015F803460C462546F2
:1032C0001C46786803F0B6FF8FA3D3E9002304F00F
:1032D00009F802460B4690469946786803F0AAFF23
:1032E00002460B464046494603F0FCFF02460B46A9
:1032F0002046294603F040FE03460C461846214668
:1033000004F0C8FA0346FB60D7ED037AF5EEC07A05
:10331000F1EE10FA2AD5D7ED037AB1EE677AD7ED40
:10332000037A27EE277AD7ED037A77EE677A17EEDE
:10333000900A03F07FFF76A3D3E9002303F0D2FFC6
:1033400003460C4625461C46F86803F073FF024608
:103350000B462046294603F00FFE03460C4618464E
:10336000214604F097FA0346FB60B1E097ED037A3B
:10337000D7ED037A27EE277AD7ED037A77EE677ACF
:1033800017EE900A03F056FF61A3D3E9002303F080
:10339000A9FF03460C4625461C46F86803F04AFF81
:1033A00002460B462046294603F0E6FD03460C463E
:1033B0001846214604F06EFA0346FB6088E0786800
:1033C00003F038FF4EA3D3E9002303F08BFF03463D
:1033D0000C4625461C46786803F02CFF4AA3D3E927
:1033E000002303F07FFF02460B469046994678681B
:1033F00003F020FF02460B464046494603F072FFA9
:1034000002460B462046294603F0B4FD03460C460F
:103410001846214604F03EFA0346FB60D7ED037AD6
:10342000F5EEC07AF1EE10FA2AD5D7ED037AB1EEB7
:10343000677AD7ED037A27EE277AD7ED037A77EE0E
:10344000677A17EE900A03F0F5FE31A3D3E9002363
:1034500003F048FF03460C4625461C46F86803F077
:10346000E9FE02460B462046294603F085FD034649
:103470000C461846214604F00DFA0346FB6027E08F
:1034800097ED037AD7ED037A27EE277AD7ED037A03
:1034900077EE677A17EE900A03F0CCFE1CA3D3E90F
:1034A000002303F01FFF03460C4625461C46F86820
:1034B00003F0C0FE02460B462046294603F05CFDA1
:1034C00003460C461846214604F0E4F90346FB6027
:1034D000FB6807EE903AB0EE670A1037BD46BDE8CC
:1034E000B08300BFAFF3008068A17454FB21194082
:1034F000F1D4C853FB2109C0F1D4C853FB210940C2
:10350000A662846C305FF43F592799622FF0D93F4F
:10351000CDCCCCCCCCCCCC3F90B583B000AF87ED3C
:10352000010A786803F086FE0BA3D3E9002303F0B9
:1035300023FD03460C461846214604F0ABF903462A
:1035400000EE103AFFF768FEF0EE407AB0EE670A40
:103550000C37BD4690BD00BF023C7152FB21F93FC4
:1035600080B483B000AF0346FB710B46BB711346BA
:103570007B710F4A7B79C2F808350D4ABB79C2F8D6
:103580000C350B4AFB79C2F81035094B4FF08042DD
:10359000C3F82425064B0022C3F85425044B01220E
:1035A000C3F8002500BF0C37BD465DF8047B7047AB
:1035B0000030004080B487B000AF03460A46FB717C
:1035C0001346BB800023FB7503E02A4BD3F8183564
:1035D000FB75284BD3F80831002BF6D14FF0A042F1
:1035E000254B1B68C2F80C35FB795B00FB73214A45
:1035F000FB7BC2F81C3500BF1E4BD3F80831002BF3
:10360000FAD01C4BD3F81835FB751A4B0022C3F8BF
:1036100008210823BB7500233B611BE0BA88BB7DF2
:1036200042FA03F3134ADBB2C2F81C35BB7D083BF8
:10363000BB7500BF0F4BD3F80831002BFAD00D4BF0
:10364000D3F81835FB750B4B0022C3F808213B69F2
:1036500001333B613B69012BE0DD4FF0A042064B9B
:103660001B68C2F8083500BF1C37BD465DF8047BF7
:10367000704700BF003000400402002080B485B0D5
:1036800000AF03460A46FB711346BB710023FB7370
:1036900003E0214BD3F81835FB731F4BD3F80831E7
:1036A000002BF6D14FF0A0421C4B1B68C2F80C3522
:1036B000FB795B00BB73184ABB7BC2F81C3500BFAB
:1036C000154BD3F80831002BFAD0134BD3F818352B
:1036D000FB73114B0022C3F808210F4ABB79C2F8D3
:1036E0001C3500BF0C4BD3F80831002BFAD00A4B25
:1036F000D3F81835FB73084B0022C3F808214FF0AC
:10370000A042064B1B68C2F8083500BF1437BD46FF
:103710005DF8047B704700BF0030004004020020C9
:1037200080B487B000AF0346FB710023FB8203E047
:103730002D4BD3F81835FB822B4BD3F80831002BD7
:10374000F6D14FF0A042294B1B68C2F80C35FB792B
:103750005B005BB243F001035BB2FB73224AFB7B6D
:10376000C2F81C3500BF204BD3F80831002BFAD02B
:103770001D4BD3F81835FB820023FB8200233B61ED
:103780001CE0194B0022C3F80821174B0022C3F894
:103790001C2500BF144BD3F80831002BFAD0B7F921
:1037A00016301B02FB82104BD3F818359AB2FB8AF5
:1037B00013439BB2FB823B6901333B613B69012BA5
:1037C000DFDD094B0022C3F808214FF0A042074B70
:1037D0001B68C2F80835B7F9163018461C37BD46C5
:1037E0005DF8047B704700BF0030004004020020F9
:1037F00080B400AF1B4B0022C3F80425194B0122F3
:10380000C3F80825174B0022C3F81025154B0122D9
:10381000C3F84025134B0122C3F84425114B022263
:10382000C3F80022104B114AC3F81425104B202274
:10383000C3F804250E4BD3F800380D4A43F020039B
:10384000C2F800380A4B0B4AC3F83825084B0A4A1D
:10385000C3F83C25034B01221A6000BFBD465DF84A
:10386000047B70470090004000600040031013008C
:1038700000F00140409100400460004080B400AF7F
:10388000034B01225A6000BFBD465DF8047B7047C0
:1038900000900040000000002DE9B04390B000AF60
:1038A00078603960044B1B78002B09D1034A7B6890
:1038B0001360012300F092BC3C0000208401002032
:1038C000D14B1B78012B40F01584D04B1B78002B7B
:1038D00002D1CF4A7B6813607B6807EE903AF8EE1E
:1038E000E77AC7ED0C7A3B6807EE903AF8EEE77A94
:1038F000C7ED0B7AC74BBB62C74B93ED007AC74B42
:10390000D3ED007A67EE277AC34BC3ED007AC44B40
:1039100093ED007AC14BD3ED007A67EE277AC04B66
:10392000C3ED007AD7ED0A7A37EEA77ABD4BD3ED17
:10393000007A67EE277AB0EE670AFFF76DFC87ED35
:10394000090AD7ED0A7A37EEA77AB64BD3ED007A9B
:1039500067EE277AB0EE670AFFF7DEFD87ED080A0B
:10396000AD4B1B68184603F065FC04460D4697ED09
:103970000C7AD7ED097A67EE277A17EE900A03F0F2
:1039800059FC80468946A54B1B68184603F052FC3B
:1039900002460B464FF00000A34903F0EBFA024643
:1039A0000B464046494603F09DFC02460B46204626
:1039B000294603F0E1FA03460C461846214603F077
:1039C00069FF0246944B1A60954B1B68184603F03A
:1039D00031FC04460D4697ED0C7AD7ED087A67EE78
:1039E000277A17EE900A03F025FC804689468B4B18
:1039F0001B68184603F01EFC02460B464FF0000001
:103A0000894903F0B7FA02460B464046494603F09F
:103A100069FC02460B462046294603F0ADFA0346F0
:103A20000C461846214603F035FF02467C4B1A60CF
:103A30007E4B93ED007A794BD3ED007A67EE277ACF
:103A40007A4BC3ED007A7A4B93ED007A734BD3ED4A
:103A5000007A67EE277A764BC3ED007A734B1B68CA
:103A6000184603F0E7FB04460D4697ED0B7AD7EDB9
:103A7000097A67EE277A17EE900A03F0DBFB80469F
:103A80008946664B1B68184603F0D4FB02460B467A
:103A90004FF00000644903F06DFA02460B464046C1
:103AA000494603F01FFC02460B462046294603F018
:103AB00063FA03460C461846214603F0EBFE024625
:103AC0005A4B1A605A4B1B68184603F0B3FB044666
:103AD0000D4697ED0B7AD7ED087A67EE277A17EE49
:103AE000900A03F0A7FB804689464C4B1B6818469A
:103AF00003F0A0FB02460B464FF000004A4903F0DA
:103B000039FA02460B464046494603F0EBFB0246B3
:103B10000B462046294603F02FFA03460C4618466A
:103B2000214603F0B7FE0246414B1A60D7ED0A7AF0
:103B300037EEA77A3F4BD3ED007A67EE277AB0EEE7
:103B4000670AFFF769FB87ED070AD7ED0A7A37EEB8
:103B5000A77A384BD3ED007A67EE277AB0EE670A82
:103B6000FFF7DAFC87ED060A334B93ED007A2B4B17
:103B7000D3ED007A67EE277A2F4BC3ED007A2F4BF7
:103B800093ED007A254BD3ED007A67EE277A2B4B25
:103B9000C3ED007A284B1B68184603F04BFB044624
:103BA0000D4697ED0C7AD7ED077A67EE277A17EE78
:103BB000900A03F03FFB80468946184B1B68184665
:103BC00003F038FB02460B464FF00000164903F0A5
:103BD000D1F902460B464046494603F083FB0246B4
:103BE0000B462046294603F0C7F903460C46184603
:103BF000214603F04FFE02460F4B1A600F4B1B6825
:103C0000184603F017FB1BE03C00002034000020A6
:103C1000B8010020DA0F4940900100204000002048
:103C200094010020B00100200000F03FA00100201E
:103C3000A4010020B4010020980100209C01002074
:103C400004460D4697ED0C7AD7ED067A67EE277A93
:103C500017EE900A03F0EEFA80468946D64B1B68B1
:103C6000184603F0E7FA02460B464FF00000D3492E
:103C700003F080F902460B464046494603F032FB0A
:103C800002460B462046294603F076F903460C46C9
:103C90001846214603F0FEFD0246C94B1A60C94B87
:103CA00093ED007AC44BD3ED007A67EE277AC54BCB
:103CB000C3ED007AC44B93ED007ABF4BD3ED007A8D
:103CC00067EE277AC04BC3ED007ABE4B1B681846DF
:103CD00003F0B0FA04460D4697ED0B7AD7ED077A5C
:103CE00067EE277A17EE900A03F0A4FA8046894619
:103CF000B14B1B68184603F09DFA02460B464FF085
:103D00000000AE4903F036F902460B4640464946EC
:103D100003F0E8FA02460B462046294603F02CF948
:103D200003460C461846214603F0B4FD0246A54B57
:103D30001A60A54B1B68184603F07CFA04460D4632
:103D400097ED0B7AD7ED067A67EE277A17EE900A91
:103D500003F070FA80468946974B1B68184603F0BB
:103D600069FA02460B464FF00000944903F002F94D
:103D700002460B464046494603F0B4FA02460B465B
:103D80002046294603F0F8F803460C46184621461B
:103D900003F080FD02468C4B1A60386B03F04AFA40
:103DA00004460D46894B93ED007AD7ED097A27EE4C
:103DB000277A874BD3ED006AD7ED087A66EEA77AAB
:103DC00077EE277A17EE900A03F034FA02460B4694
:103DD00003F0D2F802460B462046294603F0CAF803
:103DE00003460C461846214603F054FD03467B610A
:103DF000F86A03F01FFA04460D46764B93ED007AFD
:103E0000D7ED097A27EE277A714BD3ED006AD7ED0B
:103E1000087A66EEA77A77EE277A17EE900A03F013
:103E200009FA02460B4603F0A7F802460B46204665
:103E3000294603F09FF803460C461846214603F036
:103E400029FD03463B61786903F0F4F904460D4609
:103E5000614B93ED007AD7ED077A27EE277A584B1E
:103E6000D3ED006AD7ED067A66EEA77A77EE277A69
:103E700017EE900A03F0DEF902460B4603F07CF8D9
:103E800002460B462046294603F074F803460C46CA
:103E90001846214603F0FEFC03467B61386903F0B7
:103EA000C9F904460D46474B93ED007AD7ED077AE2
:103EB00027EE277A444BD3ED006AD7ED067A66EEFB
:103EC000A77A77EE277A17EE900A03F0B3F9024645
:103ED0000B4603F051F802460B462046294603F0F4
:103EE00049F803460C461846214603F0D3FC034626
:103EF0003B613A4B1B68184603F09CF92AA3D3E9AF
:103F0000002303F039F803460C461846214603F017
:103F1000C1FC0246314B1A60314B1B68184603F056
:103F200089F923A3D3E9002303F026F803460C46BE
:103F30001846214603F0AEFC0246294B1A60274B77
:103F4000D3ED007AB7EE007AF4EEC77AF1EE10FA0C
:103F500009DD224BD3ED007AB0EE007A77EEC77A16
:103F60001E4BC3ED007A1E4BD3ED007AB7EE007AFC
:103F7000F4EEC77AF1EE10FA09DD194BD3ED007AB1
:103F8000B0EE007A77EEC77A154BC3ED007AD7ED25
:103F9000057AFDEEE77A17EE902A124B1A60124B63
:103FA0001B7823E0AFF300801A4D2EC6C03AAA3F1B
:103FB0000F98EA76B479AF3F400000200000F03F50
:103FC0009C010020A8010020AC01002090010020ED
:103FD00094010020A001002098010020B0010020E1
:103FE000B40100208401002034000020002B30D0D8
:103FF000814B1B68184603F01DF97BA3D3E900230E
:1040000003F070F903460C461846214603F042FCC3
:104010000246794B1A60784B1B68184603F00AF980
:1040200004460D46F86A03F005F971A3D3E90023AD
:1040300003F058F902460B462046294602F09CFF41
:1040400003460C461846214603F024FC02466A4B00
:104050001A606A4B1B68002B4AD0694B1968694B80
:104060001A68694B1B689B00134407EE901AF8EE20
:10407000E77AC3ED007A654B1A68634B1B689B00B7
:1040800013444FF000021A605F4B1B6801335E4A15
:1040900013605D4B1A685E4B1B689A4228DB5A4BD3
:1040A00000221A605B4B01221A605B4B1B68002BDD
:1040B0000FD1594B01221A60524B584A1A60534B88
:1040C000574A1A60574B584A1A60584B584A1A6058
:1040D0000EE0514B00221A604A4B534A1A604B4B78
:1040E000534A1A604F4B4D4A1A60504B4C4A1A6063
:1040F000012373E04F4B1B685A1C4E490A604E491E
:104100007A6841F823204B4B1A684C4B1B689A4243
:1041100063DB0023FB630AE0474AFB6B52F8232072
:104120004749FB6B41F82320FB6B0133FB63434B97
:104130001B68FA6B9A42EFDB0023BB632AE0BB6B80
:1041400001337B631EE03E4A7B6B52F823203C49DF
:10415000BB6B51F823309A4211DD394ABB6B52F8E0
:104160002330FB60364A7B6B52F823203449BB6B0B
:1041700041F8232032497B6BFA6841F823207B6B9E
:1041800001337B632D4B1B687A6B9A42DBDBBB6B85
:104190000133BB63294B1B68BA6B9A42CFDB274BB9
:1041A0001B68DA0F13445B10013B254A52F82320A9
:1041B000224B1B68D90F0B445B101946204B53F858
:1041C00021301344DA0F13445B101A460C4B1A606B
:1041D000184B00221A60012300E0002318464037E4
:1041E000BD46BDE8B08300BFCDCCCCCCCCCCEC3F41
:1041F0009A9999999999B93F88010020BC010020AA
:104200008401002048000020C40100204C00002050
:1042100044000020C8010020C001002070240020BC
:1042200074260020500000206C1F00205400002045
:104230006C2100208C0100206C230020380000201D
:104240006C1C002000000000B0B588B000AF87ED06
:10425000010AD7ED017AF5EEC07AF1EE10FA01D538
:104260005D4BA9E0D7ED017AF5EE407AF1EE10FA58
:1042700002D14FF000039FE07B68FB614FF07E535B
:10428000BB614FF07E537B6100233B6117E0F8690F
:1042900002F0D0FF4CA3D3E9002303F023F8034638
:1042A0000C461846214603F0F5FA0346FB61D7EDAC
:1042B000057AB2EE047A67EE877AC7ED057AD7ED14
:1042C000077A9FED467AF4EEC77AF1EE10FA04DD34
:1042D0003B695A1C3A61132BD9DD17E0D7ED077AF9
:1042E0009FED3E7A67EE877AC7ED077A786902F02C
:1042F000A1FF37A3D3E9002302F0F4FF03460C46E5
:104300001846214603F0C6FA03467B61F86902F0BD
:1043100091FF2DA3D3E9002303F056FA0346002BA7
:1043200004D03B695A1C3A61132BD7DD0023FB6094
:104330001CE097ED077AD7ED067A77EE277AB6EE8E
:10434000007A67EE877AC7ED027AD7ED076A97EDB4
:10435000027AC6EE877A97ED067A67EE277AC7ED7E
:10436000067ABB68FB61FB680133FB60FB68052BC9
:10437000DFDD786902F05EFF4FF00002184B02F0BB
:10438000B1FF03460C4625461C4697ED077AD7ED4C
:10439000067A77EE277A17EE900A02F04BFF024674
:1043A0000B462046294602F09DFF03460C46184660
:1043B000214603F06FFA034607EE903AB0EE670A23
:1043C0002037BD46B0BD00BF7B14AE47E17A843FC5
:1043D0009A9999999999B93F000080BF0000C84205
:1043E0000000E03F80B483B000AF094B9B684033CE
:1043F0007B60F1EE103A3B607B681B6823F09F0204
:104400007B681A6000BF0C37BD465DF8047B7047BF
:1044100030EF00E080B582B000AF274B1B68002B67
:1044200001D1002344E0244B00221A60234B1A6878
:10443000234B1B681946104601F042F800237B60AD
:1044400032E01E4B1A687B689B00134493ED007AA0
:104450001A4B1A687B689B001344D3ED007A27EE51
:10446000277A174B1A687B689B001344D3ED006AC8
:10447000134B1A687B689B001344D3ED007A66EEF9
:10448000A77A77EE277AC7ED007A97ED000AFFF753
:10449000DBFEF0EE407A0B4A7B689B001344C3EDD1
:1044A000007A7B6801337B607B681F2BC9DD0123A9
:1044B00018460837BD4680BDC801002050000020C6
:1044C000540000206C1D002080B400AF024B184641
:1044D000BD465DF8047B70476C1D002080B400AFC2
:1044E000034B1B681846BD465DF8047B704700BF50
:1044F0008401002080B483B000AF074BD3ED007A75
:10450000FDEEE77A17EE903A7B607B6818460C3731
:10451000BD465DF8047B70478801002080B582B0FD
:1045200000AF786005212620FEF702FE2620FEF768
:10453000E5FD2620FEF7AEFD034A7B68136000BF51
:104540000837BD4680BD00BFBC01002080B500AF6C
:10455000134BD3F80031012B1FD1114B0022C3F8AC
:1045600000210020FFF7DCF803461A460D4B5A6085
:104570000320FFF7D5F803461A460A4B9A60094B09
:104580005A68084B9B6819461046FFF785F90346A1
:10459000002B02D0044B01221A7000BF80BD00BF67
:1045A00000600040040200208001002090B585B02A
:1045B00000AF0446084611461A462346FB710346DF
:1045C000BB710B467B7113463B713B791846FEF776
:1045D0000FFE97F820301B0243F4003343F0010331
:1045E0004B4AC2F810354A4B0122C3F80423062077
:1045F000FEF750FD3B79012202FA03F31A46454BC0
:104600001A604FF0A042434B1B68C2F808357A7914
:10461000B979FB791846FEF7A3FF3E4B05221A73C2
:104620003C4B05225A733B4B01229A73394B1B7B3F
:1046300003F00703D9B2384A137861F30203137009
:10464000354A13786FF3C5031370334A1378012189
:1046500061F387131370314A53786FF34203537039
:104660002C4B5B7B03F00703D9B22C4A537861F3E0
:10467000C5035370274B9B7B03F00303D9B2274A32
:10468000537861F387135370244A13786FF305133B
:104690001370224A13786FF382031370204A137841
:1046A0006FF3C40313701E4A537843F01003537022
:1046B0001B4A1378022161F387131370184A137889
:1046C00043F020031370144B1B7819460920FEF7A2
:1046D000D5FF134B1B8819460A20FEF76BFF0F4BC3
:1046E0001B8819460C20FEF765FF0C20FFF718F811
:1046F0000346FB81094B1B88FA899A4202D1094B78
:1047000001221A60FFF774F800BF1437BD4690BD50
:1047100000600040040200206C2400207428002067
:1047200070260020CC01002080B400AF074B1B781E
:10473000DBB2002B04D0054B00221A70012300E0ED
:1047400000231846BD465DF8047B704780010020B9
:1047500080B400AF034B1B681846BD465DF8047B70
:10476000704700BFCC01002080B500AF0620FEF7E7
:10477000ABFC184A13786FF302031370154A1378D1
:104780006FF3C5031370134A13786FF38713137015
:10479000104B1B7819460920FEF770FF0E4B0022C4
:1047A0001A800D4A137843F0300313700A4A1378C5
:1047B00043F004031370084A137843F002031370A4
:1047C000054B1B8819460C20FEF7F4FEFFF756F840
:1047D00000BF80BD6C2400207428002080B483B00A
:1047E00000AF0346FB71FB7903F01F02074997F9FD
:1047F00007305B09012000FA02F241F8232000BFD4
:104800000C37BD465DF8047B704700BF00E100E057
:1048100080B500AF194B0022C3F80425174B0322C3
:10482000C3F80825154B0422C3F81025134B43F693
:104830009822C3F84025114B5022C3F844250F4B52
:104840000A22C3F848250D4B45F27622C3F84C25C1
:104850000A4B4FF48042C3F85025084B1022C3F88E
:104860000022064B4FF4F812C3F804231B20FFF775
:10487000B5FF024B01221A6000BF80BD00B00140AD
:1048800080B400AF274BD3F85031002B0FD0254B0D
:104890000022C3F85021244B1A68234B5B681A434B
:1048A000214B9B684FF0A0411343C1F80C351D4BC1
:1048B000D3F84C31002B03D01A4B0022C3F84C2103
:1048C000184BD3F84831002B09D0164B0022C3F8FF
:1048D00048214FF0A042144B9B68C2F80835114B99
:1048E000D3F84431002B09D00E4B0022C3F84421E9
:1048F0004FF0A0420C4B5B68C2F80835094BD3F867
:104900004031002B09D0074B0022C3F840214FF063
:10491000A042054B1B68C2F8083500BFBD465DF8D4
:10492000047B704700B001407828002080B584B037
:1049300000AF3B1D00221A605A6006233B7107231B
:104940007B710823BB71214B13221A701F4B1B78FC
:104950001A46012393401A461D4B1A604FF0A0429D
:104960001B4B1B68C2F818354FF0A042184B1B6850
:10497000C2F80C350023FB601FE03A1DFB681344AE
:104980001978144AFB6813440A461A70114AFB68E6
:1049900013441B781A460123934019460E4AFB68BC
:1049A00042F823104FF0A0420B49FB6851F8233026
:1049B000C2F81835FB680133FB60FB68022BDCDDB5
:1049C000FFF726FF00BF1037BD4680BD8C280020B2
:1049D00088280020842800207828002080B485B012
:1049E00000AF78607B687A6802FB03F3FB60FB68CA
:1049F0009B10FB60FB68002B01D10123FB60FB686F
:104A0000B3F5804F02DD4FF48043FB60FB6818462E
:104A10001437BD465DF8047B7047000080B483B056
:104A200000AF78607B68002B06D04FF0A042084BA7
:104A30001B68C2F8083505E04FF0A042044B1B6824
:104A4000C2F80C3500BF0C37BD465DF8047B7047DB
:104A50008828002080B584B000AFF860B9607A6023
:104A6000FB68002B09D14FF0A042294B1B68C2F80C
:104A70000835274B00221A6007E0264B1B781A46A0
:104A8000012393401A46224B1A60BB68002B09D1C0
:104A90004FF0A0421E4B5B68C2F808351C4B002249
:104AA0005A6007E01B4B5B781A46012393401A4675
:104AB000174B5A607B68002B09D14FF0A042144B72
:104AC0009B68C2F80835124B00229A6007E0114B30
:104AD0009B781A46012393401A460D4B9A60F8685A
:104AE000FFF77CFF02460C4BC3F84025B868FFF780
:104AF00075FF0246084BC3F844257868FFF76EFF40
:104B00000246054BC3F8482500BF1037BD4680BD9F
:104B1000782800208428002000B0014080B483B0B1
:104B200000AF0346FB71FB7903F01F02074997F9B9
:104B300007305B09012000FA02F241F8232000BF90
:104B40000C37BD465DF8047B704700BF00E100E014
:104B500080B400AF0F4BD3F85035002B15D00D4B60
:104B60000022C3F800220B4B0022C3F81021094B8E
:104B700001221A6100BF074BD3F81031002BFAD085
:104B8000044B0022C3F8102100E000BFBD465DF8D1
:104B9000047B70470010004080B582B000AF7860A1
:104BA0007B682B4A13602A4B1A682A4B1B689A426F
:104BB00003D9274B1B68274A1360274B0422C3F8ED
:104BC0000C25254B1522C3F80825234B0222C3F8D8
:104BD0001025214B214AC3F824251F4B204AC3F836
:104BE00028251D4B1F4AC3F81C251B4B1E4AC3F822
:104BF0002025194B0022C3F82C25174B0222C3F89D
:104C00003025154B194AC3F81425124B1B681A029C
:104C10000F4B1B681343104A43F08273C2F81835D8
:104C20000D4B0122C3F834250B4BAA22C3F83C25B7
:104C3000094B40F20712C3F83825074B0822C3F886
:104C400004230120FFF76AFF00BF0837BD4680BD7F
:104C50005C00002058000020001000401122334466
:104C600055667788A70DE60E0C05E60E08010800CC
:104C700080B500AF134BD3F8503503F00803002B79
:104C800002D0FFF765FF08E00E4BD3F8503503F074
:104C90000303002B01D1FFF75BFF0A4B0122C3F88E
:104CA000FC2F084B0322C3F80022064B0022C3F856
:104CB0000021044B01225A60034B01221A7000BFED
:104CC00080BD00BF00100040E001002080B582B030
:104CD00000AF1B4BD3F8503503F00803002B02D173
:104CE000FFF736FF08E0164BD3F8503503F0030307
:104CF000002B01D1FFF72CFF114B0122C3F8FC2F31
:104D00000F4B0322C3F800220D4B01221A6000232F
:104D10007B6002E07B6801337B607B68132BF9DDED
:104D2000074BD3F80032064A43F00803C2F80032BA
:104D3000044B03221A7000BF0837BD4680BD00BF78
:104D400000100040E001002080B500AF054B1B685B
:104D5000054A1360054B064AC3F80425FFF788FF90
:104D600000BF80BDD0010020D40100200010004011
:104D70009028002080B582B000AF7860044A7B683C
:104D8000C2F80435FFF7A2FF00BF0837BD4680BD5B
:104D90000010004080B500AF194B1B680133184A62
:104DA0001360184BD3F80C31002B27D0154BD3F8D8
:104DB000043303F00803002B20D0124B0022C3F869
:104DC0000C2101F099FB02460F4B1A600F4B1B7828
:104DD000012B08D10E4B1B6801330D4A13600A4B9F
:104DE0001B680C4A1360094B1B78032B06D1054B3B
:104DF000094AC3F80425054B01221A7000BF80BD83
:104E0000E401002000100040D8010020E001002053
:104E1000D0010020DC0100209028002080B483B065
:104E200000AF0346FB71FB7903F01F02074997F9B6
:104E300007305B09012000FA02F241F8232000BF8D
:104E40000C37BD465DF8047B704700BF00E100E011
:104E500080B483B000AF0346FB71FB7903F01F02FF
:104E6000074997F907305B09012000FA02F2203365
:104E700041F8232000BF0C37BD465DF8047B704726
:104E800000E100E080B483B000AF78604FF0A04351
:104E900018460C37BD465DF8047B704780B584B07A
:104EA00000AF7860084611461A460346FB700B4671
:104EB000BB7013467B703B1D1846FFF7E3FFF8609D
:104EC000FA78BB785B001A437B789B001A433B7EE1
:104ED0001B0242EA03013B7F1B047A681943FB680B
:104EE00002F5E07243F8221000BF1037BD4680BDC6
:104EF00080B584B002AF7860002301930023009353
:104F00000023012201217868FFF7C8FF00BF08379E
:104F1000BD4680BD80B584B002AF78600B46FB70A3
:104F2000FA78002301930023009313460022002106
:104F30007868FFF7B3FF00BF0837BD4680BD0000AB
:104F400080B485B000AF03460A46FB711346BB71BF
:104F500003E01F4BD3F81835FB731D4BD3F8083112
:104F6000002BF6D14FF0A0421A4B1B68C2F80C354B
:104F7000174AFB79C2F81C3500BF154BD3F808312E
:104F8000002BFAD0124BD3F81835FB73104B0022CC
:104F9000C3F808210E4ABB79C2F81C3500BF0C4B80
:104FA000D3F80831002BFAD0094BD3F81835FB732E
:104FB000074B0022C3F808214FF0A042054B1B68A5
:104FC000C2F8083500BF1437BD465DF8047B704752
:104FD00000300040D418002080B485B000AF0346F4
:104FE000FB710023FB7303E0214BD3F81835FB73EF
:104FF0001F4BD3F80831002BF6D14FF0A0421D4BC8
:105000001B68C2F80C35FB7963F07F03DAB2184BEA
:10501000C3F81C2500BF164BD3F80831002BFAD07B
:10502000134BD3F81835FB73114B0022C3F808213A
:105030000F4B0022C3F81C2500BF0D4BD3F80831DD
:10504000002BFAD00A4BD3F81835FB73084B00221B
:10505000C3F808214FF0A042064B1B68C2F8083580
:10506000FB7B18461437BD465DF8047B704700BFD4
:1050700000300040D418002080B485B000AF034653
:105080003A60FB710B46BB710023FB7203E0284BB7
:10509000D3F81835FB72264BD3F80831002BF6D124
:1050A0004FF0A042234B1B68C2F80C35FB7963F02C
:1050B0007F03DAB21E4BC3F81C2500BF1C4BD3F88C
:1050C0000831002BFAD01A4BD3F81835FB72184B65
:1050D0000022C3F808210023FB6018E0144B0022D3
:1050E000C3F81C2500BF124BD3F80831002BFAD0AF
:1050F0000F4BD3F81815FB683A681344CAB21A70FC
:105100000B4B0022C3F80821FB680133FB60BB791D
:10511000FA689A42E2DB4FF0A042064B1B68C2F8E5
:10512000083500BF1437BD465DF8047B704700BFEB
:1051300000300040D418002080B584B000AF0620B5
:10514000FFF786FE1B20FFF747FF0346FB73062091
:10515000FFF764FE704AFB7B1370FB7B03F0C00318
:10516000002B01D10023D2E00620FFF771FE6B4A2D
:105170000C210C20FFF780FF0620FFF74FFE674B46
:10518000BB60BB685A1CBA601B78FB80BB685A1CAA
:10519000BA601B781B029AB2FB8813449BB2FB8057
:1051A0005F4AFB8853855E4B93ED027AB7F9063070
:1051B00007EE903AF8EEE77A67EE277A584BC3EDA0
:1051C000067ABB685A1CBA601B78FB80BB685A1C05
:1051D000BA601B781B029AB2FB8813449BB2FB8017
:1051E0004F4AFB8893854E4B93ED027AB7F9063010
:1051F00007EE903AF8EEE77A67EE277A484BC3ED70
:10520000077ABB685A1CBA601B78FB80BB685A1CC3
:10521000BA601B781B029AB2FB8813449BB2FB80D6
:105220003F4AFB88D3853E4B93ED027AB7F90630AF
:1052300007EE903AF8EEE77A67EE277A384BC3ED3F
:10524000087ABB685A1CBA601B78FB80BB685A1C82
:10525000BA601B781B029AB2FB8813449BB2FB8096
:105260002F4AFB8893842E4B93ED017AB7F90630D1
:1052700007EE903AF8EEE77A67EE277A284BC3ED0F
:10528000037ABB685A1CBA601B78FB80BB685A1C47
:10529000BA601B781B029AB2FB8813449BB2FB8056
:1052A0001F4AFB88D3841E4B93ED017AB7F9063071
:1052B00007EE903AF8EEE77A67EE277A184BC3EDDF
:1052C000047ABB685A1CBA601B78FB80BB685A1C06
:1052D000BA601B781B029AB2FB8813449BB2FB8016
:1052E0000F4AFB8813850E4B93ED017AB7F9063010
:1052F00007EE903AF8EEE77A67EE277A084BC3EDAF
:10530000057A074B5B6B0133054A5363012318464B
:105310001037BD4680BD00BF902900200C19002029
:10532000D418002080B582B000AFBB1D1A46022100
:105330007820FFF7A1FEFA88024B1A8600BF0837D3
:10534000BD4680BDD418002080B500AFB6217E20B8
:10535000FFF7F6FD642001F039F911217E20FFF7F7
:10536000EFFD642001F032F914217E20FFF7E8FD03
:10537000642001F02BF911217E20FFF7E1FD64206C
:1053800001F024F900214520FFF7DAFD0021472034
:10539000FFF7D6FDA7214020FFF7D2FD012001F045
:1053A00015F905214120FFF7CBFD174B174A5A602D
:1053B000012001F00BF927214220FFF7C1FD012058
:1053C00001F004F902214320FFF7BAFD012001F0AA
:1053D000FDF810215120FFF7B3FD0A215320FFF7FC
:1053E000AFFD80215620FFF7ABFD00215420FFF7D1
:1053F000A7FD15217A20FFF7A3FD0B217B20FFF7E6
:105400009FFD00BF80BD00BFD4180020CDCC9C3ACA
:1054100090B583B000AF0446084611461A462346AD
:10542000FB710346BB710B467B7113463B71BB7925
:105430001846FFF75DFD7B791846FFF759FD3B796C
:105440001846FFF755FDFB7900211846FFF762FD6E
:105450003B79012202FA03F31A460D4B1A604FF012
:10546000A0420B4B1B68C2F80835094B00225A6357
:10547000642001F0ABF8064B064A5A60044B064A1A
:105480009A60FFF761FF00BF0C37BD4690BD00BFBB
:10549000D4180020CDCC9C3A5C7C8B3980B582B08E
:1054A00000AF0020FFF798FD0346FB71FB79D12B7D
:1054B00001D1012300E0002318460837BD4680BD16
:1054C00080B4BDB000AF78603960074BC7F8E030FA
:1054D0000123C7F8DC304023C7F8D830D7F8D830DC
:1054E000C7F8E83002E000BFF304353FD7F8E830F2
:1054F000DB08C7F8E8300023C7F8D430D7F8D42049
:10550000D7F8E8301344C7F8D030D7F8D020D7F810
:10551000E8301344C7F8CC30D7F8CC20D7F8E830BF
:105520001344C7F8C830D7F8C820D7F8E830134478
:10553000C7F8C430D7F8C420D7F8E8301344C7F808
:10554000C030D7F8C020D7F8E8301344C7F8BC30D3
:10555000D7F8BC20D7F8E8301344C7F8B830D7F8EC
:10556000D4309B007A68134493ED007AD7F8C430A6
:105570009B007A681344D3ED007A77EE277AC7ED63
:105580002D7AD7F8D4309B007A68134493ED007AD3
:10559000D7F8C4309B007A681344D3ED007A77EED5
:1055A000677AC7ED2C7AD7F8D0309B007A6813441D
:1055B00093ED007AD7F8C0309B007A681344D3ED9E
:1055C000007A77EE277AC7ED2B7AD7F8D0309B0098
:1055D0007A68134493ED007AD7F8C0309B007A685C
:1055E0001344D3ED007A77EE677AC7ED2A7AD7F8BD
:1055F000CC309B007A68134493ED007AD7F8BC3026
:105600009B007A681344D3ED007A77EE277AC7EDD2
:10561000297AD7F8CC309B007A68134493ED007A4E
:10562000D7F8BC309B007A681344D3ED007A77EE4C
:10563000677AC7ED287AD7F8C8309B007A68134498
:1056400093ED007AD7F8B8309B007A681344D3ED15
:10565000007A77EE277AC7ED277AD7F8C8309B0013
:105660007A68134493ED007AD7F8B8309B007A68D3
:105670001344D3ED007A77EE677AC7ED267A97ED7B
:105680002D7AD7ED297A77EE677AC7ED257A97EDEF
:105690002D7AD7ED297A77EE277AC7ED2D7A97ED17
:1056A0002B7AD7ED277A77EE677AC7ED297A97EDCF
:1056B0002B7AD7ED277A77EE277AC7ED2B7AD7F8B2
:1056C000D4309B007A68134497ED2D7AD7ED2B7A6E
:1056D00077EE277AC3ED007AD7F8C4309B007A685A
:1056E000134497ED2D7AD7ED2B7A77EE677AC3EDD9
:1056F000007AD7F8D4309B003A68134493ED007ACF
:10570000D7F8C4309B003A681344D3ED007A77EEA3
:10571000277AC7ED2D7AD7F8D4309B003A68134426
:1057200093ED007AD7F8C4309B003A681344D3ED68
:10573000007A77EE677AC7ED247AD7F8D0309B00ED
:105740003A68134493ED007AD7F8C0309B003A686A
:105750001344D3ED007A77EE277AC7ED2B7AD7F88A
:10576000D0309B003A68134493ED007AD7F8C030EC
:105770009B003A681344D3ED007A77EE677AC7ED61
:10578000237AD7F8CC309B003A68134493ED007A23
:10579000D7F8BC309B003A681344D3ED007A77EE1B
:1057A000277AC7ED227AD7F8CC309B003A681344A9
:1057B00093ED007AD7F8BC309B003A681344D3EDE0
:1057C000007A77EE677AC7ED217AD7F8C8309B0068
:1057D0003A68134493ED007AD7F8B8309B003A68E2
:1057E0001344D3ED007A77EE277AC7ED277AD7F8FE
:1057F000C8309B003A68134493ED007AD7F8B8306C
:105800009B003A681344D3ED007A77EE677AC7EDD0
:10581000207A97ED2D7AD7ED227A77EE677AC7ED69
:105820001F7A97ED2D7AD7ED227A77EE277AC7ED9A
:105830002D7A97ED2B7AD7ED277A77EE677AC7ED39
:10584000227A97ED2B7AD7ED277A77EE277AC7ED74
:105850002B7AD7F8D4309B003A68134497ED2D7A11
:10586000D7ED2B7A77EE277AC3ED007AD7F8C430DC
:105870009B003A68134497ED2D7AD7ED2B7A77EE9B
:10588000677AC3ED007AD7F8CC309B007A6813446E
:1058900097ED257AD7ED227A77EE277AC3ED007A55
:1058A000D7F8BC309B007A68134497ED257AD7ED82
:1058B000227A77EE677AC3ED007AD7F8CC309B0076
:1058C0003A68134497ED1F7AD7ED297A77EE677A15
:1058D000C3ED007AD7F8BC309B003A68134497EDCB
:1058E0001F7AD7ED297A77EE277AC3ED007A97ED04
:1058F0002A7AD7ED267A77EE677A97ED387A67EECF
:10590000277AC7ED2D7A97ED2A7AD7ED267A77EEAA
:10591000277A97ED387A67EE277AC7ED2A7A97EDDE
:10592000237AD7ED207A77EE677A97ED387A67EEAB
:10593000277AC7ED2B7A97ED237AD7ED207A77EE89
:10594000277A97ED387A67EE277AC7ED237A97EDB5
:105950002C7AD7ED2D7A77EE677AC7ED257A97ED19
:105960002C7AD7ED2D7A77EE277AC7ED2C7A97ED42
:10597000287AD7ED2A7A77EE677AC7ED267A97EDFF
:10598000287AD7ED2A7A77EE277AC7ED287A97ED2D
:10599000247AD7ED2B7A77EE677AC7ED1F7A97EDE9
:1059A000247AD7ED2B7A77EE277AC7ED247A97ED14
:1059B000217AD7ED237A77EE677AC7ED207A97EDD3
:1059C000217AD7ED237A77EE277AC7ED217AD7F8B7
:1059D000D0309B007A68134497ED2C7AD7ED217A6A
:1059E00077EE277AC3ED007AD7F8B8309B007A6853
:1059F000134497ED2C7AD7ED217A77EE677AC3EDD1
:105A0000007AD7F8C0309B007A68134497ED257A66
:105A1000D7ED207A77EE277AC3ED007AD7F8C83031
:105A20009B007A68134497ED257AD7ED207A77EEBC
:105A3000677AC3ED007AD7F8D0309B003A681344F8
:105A400097ED247AD7ED287A77EE677AC3ED007A5E
:105A5000D7F8B8309B003A68134497ED247AD7ED15
:105A6000287A77EE277AC3ED007AD7F8C0309B000A
:105A70003A68134497ED1F7AD7ED267A77EE677A66
:105A8000C3ED007AD7F8C8309B003A68134497ED0D
:105A90001F7AD7ED267A77EE277AC3ED007AD7F80A
:105AA000E830072B40F2CA840023C7F8EC3001230A
:105AB000C7F8E430D7F8DC30D7F8EC201344BB67E4
:105AC000BB6FC7F8EC30D7F8EC20BB6F13447B6793
:105AD0007A6FBB6F13443B673A6FBB6F1344FB662F
