:1040000000000120E5A900000DAA00000FAA000091
:1040100011AA000013AA000015AA00000000000069
:1040200000000000000000000000000017AA0000CF
:1040300019AA0000000000001BAA00001DAA000031
:104040001FAA0000FD6500001FAA00001FAA0000B3
:104050001FAA00001FAA0000B58800001FAA0000C8
:104060001FAA00001FAA000025A900001FAA000027
:104070001FAA00001FAA00001FAA00001FAA00001C
:104080001FAA0000496400001FAA00001FAA000028
:104090001FAA00001FAA00001FAA00001FAA0000FC
:1040A0001FAA00001FAA000001A90000E98B000060
:1040B0001FAA00001FAA000000000000000000006E
:1040C0001FAA00001FAA00001FAA00001FAA0000CC
:1040D0001FAA00001FAA00004D870000000000007A
:1040E00000000000000000000000000000000000D0
:1040F00000000000000000000000000000000000C0
:1041000000000000000000000000000000000000AF
:10411000000000000000000000000000000000009F
:10412000000000000000000000000000000000008F
:10413000000000000000000000000000000000007F
:10414000000000000000000000000000000000006F
:10415000000000000000000000000000000000005F
:10416000000000000000000000000000000000004F
:10417000000000000000000000000000000000003F
:10418000000000000000000000000000000000002F
:10419000000000000000000000000000000000001F
:1041A000000000000000000000000000000000000F
:1041B00000000000000000000000000000000000FF
:1041C00000000000000000000000000000000000EF
:1041D00000000000000000000000000000000000DF
:1041E00000000000000000000000000000000000CF
:1041F00000000000000000000000000000000000BF
:1042000010B5054C237833B9044B13B10448AFF310
:1042100000800123237010BDD400002000000000A6
:1042200084BF000008B5034B1BB103490348AFF33B
:10423000008008BD00000000D800002084BF0000FE
:10424000154B002B08BF134B9D46A3F5803A002168
:104250008B460F461348144A121A06F03DFF0F4BC7
:10426000002B00D098470E4B002B00D09847002021
:10427000002104000D000D48002802D00C48AFF3C7
:10428000008006F005FF2000290002F023FA06F066
:10429000EBFE00BF0000080000000120000000004D
:1042A00000000000D4000020982900200000000039
:1042B0000000000080B483B000AF00237B6007E003
:1042C000094A7B68002122F813107B6801337B6068
:1042D000064B1B687A689A42F2DB00BF0C37BD467A
:1042E0005DF8047B704700BF8C02002010000020A6
:1042F000B0B584B000AF2F4B3B604FF00003FB60C4
:104300002D4B1B68013BBB6000237B601BE0BB683F
:10431000002B04DA294B1B68BA681344BB60284A97
:10432000BB6832F8133007EE903AF8EEE77A97ED73
:10433000037A77EE277AC7ED037ABB68013BBB604F
:104340007B6801337B607B6807EE903AF8EEE77A92
:1043500097ED007AB4EEE77AF1EE10FAD7DC97ED3C
:10436000037ADFED186AC7EE267AC7ED037A38685C
:1043700007F04CF94FF00002134B07F09FF903468A
:104380000C4625461C46F86807F040F902460B46E5
:104390002046294607F0BCFA03460C46184621463B
:1043A00007F03CFC0246094B1A6000BF1037BD46BF
:1043B000B0BD00BF0000A04104010020100000209B
:1043C0008C02002000007A4400004E4010010020C2
:1043D000B0B58EB000AFBE4B1B68013B7B637B6BFF
:1043E000002B04DABB4B1B687A6B13447B63BA4A1D
:1043F0007B6B32F8133007EE903AF8EE677AC7ED30
:10440000057A7B6B013B7B637B6B002B04DAB14B42
:104410001B687A6B13447B63AF4A7B6B32F81330B3
:1044200007EE903AF8EE677AC7ED047AD7ED057A91
:104430009FEDAA7AF4EEC77AF1EE10FA00F1FC8152
:10444000D7ED057A9FEDA67AF4EEC77AF1EE10FA71
:1044500000F3F281D7ED047A9FEDA07AF4EEC77AEB
:10446000F1EE10FA00F1E881D7ED047A9FED9C7A25
:10447000F4EEC77AF1EE10FA00F3DE81994B1B6877
:10448000184607F0C3F890A3D3E9002307F088FB90
:104490000346002B02D0934A7B691360924B93ED45
:1044A000007AD7ED057A27EE277A8E4BD3ED007A86
:1044B00077EE277A8B4BC3ED007A8A4B1B68184640
:1044C00007F0A4F804460D46874B1B68184607F012
:1044D0009DF802460B464FF00000844906F036FF77
:1044E00002460B462046294607F0E8F803460C46EC
:1044F0001846214607F0DAFB02467A4B1A60794BE0
:10450000D3ED007A97ED057A77EE677AC7ED037AF7
:10451000774B93ED007AD7ED037A27EE277AD7ED24
:10452000037A27EE277A734BD3ED007A77EE277A5A
:10453000704BC3ED007A6F4B1B68184607F066F8A6
:1045400004460D466A4B1B68184607F05FF80246A2
:104550000B464FF00000654906F0F8FE02460B4698
:104560002046294607F0AAF803460C46184621467D
:1045700007F09CFB02465F4B1A6097ED057AD7ED7A
:10458000047A77EE677AC7ED0C7AD7ED0C7AF5EE00
:10459000C07AF1EE10FA05D5D7ED0C7AF1EE677A14
:1045A000C7ED0C7A544B1B6807EE903AB8EEE77AE9
:1045B000DFED526AC6EE877AC7ED027A386B07F0F4
:1045C00025F804460D46B86807F020F84FF00002C1
:1045D0004B4B07F073F802460B462046294607F07E
:1045E00097F903460C461846214607F017FB034689
:1045F000FB62444B1B68FA6A9A4203DB414B1B681F
:10460000013BFB620023BB622AE03F4ABB6A9B007E
:1046100013441B68184606F0F9FF04460D463B4B51
:104620001B68184606F0F2FF02460B464FF00000EA
:104630002E4906F08BFE02460B462046294607F01F
:104640003DF803460C461846214607F02FFB01466D
:104650002D4ABB6A9B0013441960BB6A0133BB62DD
:10466000284B1B68BA6A9A42CFDB274AFB6A9B0039
:104670001344D3ED007AB7EE007A77EE877A224AB8
:10468000FB6A9B001344C3ED007A214B7B6200233D
:104690003B620EE01C4A3B6A9B001344D3ED007A58
:1046A00097ED097A77EE277AC7ED097A3B6A0133ED
:1046B0003B62144B1B683A6A9A42EBDB0023FB61B6
:1046C0003BE000BFAFF300802D431CEBE2361A3F06
:1046D00004010020100000208C020020000048434C
:1046E0000000FA44140100201C0000200000F03FEC
:1046F000140000201801002010010020000070426A
:10470000000024402000002050020020180000205B
:10471000BD3786354A4AFB699B001344D3ED006AD6
:1047200097ED097AC6EE877A464AFB699B001344E7
:10473000C3ED007AFB690133FB61434B1B68FA69E7
:104740009A42E7DB7B6B013B7B637B6B002B04DADC
:104750003E4B1B687A6B13447B633D4A7B6B32F89C
:10476000133007EE903AF8EE677AC7ED017AD7ED8D
:10477000017A9FED387AF4EEC77AF1EE10FA5CDD3B
:10478000D7ED017A9FED347AF4EEC77AF1EE10FAA4
:1047900053D597ED047AD7ED017A77EE677AC7EDB6
:1047A000067AD7ED067AF5EEC07AF1EE10FA05D565
:1047B000D7ED067AF1EE677AC7ED067A97ED0C7AB7
:1047C000D7ED067A77EE677AC7ED007A234B1B6840
:1047D000184606F01BFF04460D46214B1B68184681
:1047E00006F014FF02460B464FF000001D4906F08C
:1047F000ADFD02460B462046294606F05FFF034604
:104800000C461846214607F051FA0246134B1A602F
:10481000134B93ED007AD7ED007A27EE277AD7ED88
:10482000007A27EE277A0D4BD3ED007A77EE277AC0
:104830000A4BC3ED007A00E000BF3837BD46B0BD7B
:104840005002002014020020200000201000002050
:104850008C020020000048430000FA441C010020A4
:10486000140000200000F03F80B582B000AF7860F7
:10487000144B1B687A6891B2134A22F81310114B3B
:104880001B6801330F4A13600E4B1A680F4B1B68ED
:104890009A4202DB0B4B00221A600D4B1B7801334E
:1048A000DAB20B4B1A700A4B1B780F2B02D9084B4C
:1048B00000221A70FFF71CFDFFF78AFD00BF0837C2
:1048C000BD4680BD040100208C02002010000020A5
:1048D0002001002080B489B000AF87ED010A4FF0BD
:1048E0000003FB614FF00003BB614FF07E537B611F
:1048F0007B683B61D7ED047AF5EEC07AF1EE10FAF1
:1049000005D5D7ED047AF1EE677AC7ED047AD7EDD5
:10491000047AB0EE007AF4EEC77AF1EE10FA08D518
:104920004FF00003FB614FF00003BB61204B7B6144
:1049300017E0D7ED047AB2EE087AF4EEC77AF1EE1A
:1049400010FA07D51B4BFB614FF08043BB611A4B3C
:104950007B6106E0194BFB61194BBB614FF0804353
:104960007B6197ED047AD7ED067A37EE677AD7ED5B
:10497000057A67EE277A97ED077A77EE277AC7ED03
:10498000037AD7ED017AF5EEC07AF1EE10FA05D58B
:10499000D7ED037AF1EE677AC7ED037AFB6807EE8D
:1049A000903AB0EE670A2437BD465DF8047B704745
:1049B0000000C841000048420000A0400000C8427A
:1049C000000040410000000090B5A1B000AF0023FE
:1049D00087F87F3097F87F305A1C87F87F201A4677
:1049E0006D4B002199546D4B1B780133DAB26B4B40
:1049F0001A706A4B1B78802B02D9684B00221A7000
:104A000097F87F305A1C87F87F201A46634B197835
:104A1000614B99544FF080535B6E7B637B6B190E37
:104A200097F87F305A1C87F87F201A46C9B25A4B34
:104A300099547B6B190C97F87F305A1C87F87F20AC
:104A40001A46C9B2544B99547B6B190A97F87F30B8
:104A50005A1C87F87F201A46C9B24F4B995497F8D1
:104A60007F305A1C87F87F201A467B6BD9B24A4B9D
:104A700099544B4B1B7887F833304A4B1B68002BFB
:104A800000F09C8097F87F305A1C87F87F201A46E8
:104A9000414B2021995497F87F305A1C87F87F208A
:104AA0001A46414B19783C4B995497F87F305A1C61
:104AB00087F87F201A463D4B1978374B995497F861
:104AC0007F305A1C87F87F201A46394B1978324BB1
:104AD000995497F87F305A1C87F87F201A46344B38
:104AE00019782D4B9954334B1B68B3F5803F03D392
:104AF000304B4FF6FF721A602E4B1B68190A97F85D
:104B00007F305A1C87F87F201A46C9B2224B99542D
:104B1000284B196897F87F305A1C87F87F201A466F
:104B2000C9B21D4B99540023BB670EE097F87F3044
:104B30005A1C87F87F2019461F4ABB6F13441A7806
:104B4000154B5A54BB6F0133BB67BB6F1F2BEDDD99
:104B500097F87F300133DAB20F4B1A70002387F8D1
:104B6000773000233B670BE00B4A3B6F13441A7806
:104B700097F87730134487F877303B6F01333B6702
:104B800097F87F303A6F9A42EEDB97F87F30024910
:104B900097F87720CA544EE314160020F100002045
:104BA000F80000200C010020F0000020210100206E
:104BB00008010020FC0000209418002097F87F30A6
:104BC0005A1C87F87F201946C34A97F8333053544C
:104BD000C24B1B780133DAB2C04B1A70BF4B1B7843
:104BE000072B02D1BD4B00221A70BC4B1B78FB6215
:104BF00097F87F305A1C87F87F201A46FB6AD9B293
:104C0000B54B9954FB6A002B1DD197F87F305A1C85
:104C100087F87F201A46B24B1978AF4B995497F812
:104C20007F305A1C87F87F201A46AB4B05219954D8
:104C3000AC4B196897F87F305A1C87F87F201A46CA
:104C4000C9B2A54B9954FB6A012B6CD1A64B1B68CA
:104C5000184606F0DBFC03460C4644EC103B06F01D
:104C600045FA54EC103B1846214606F0D7FF0346A0
:104C7000FB669E4B1B68184606F0C8FC03460C46B4
:104C800044EC103B06F032FA54EC103B1846214637
:104C900006F0C4FF0346BB66FB6EB3F5805F02DB24
:104CA00040F6FF73FB66BB6EB3F5805F02DB40F638
:104CB000FF73BB66FB6E1B12DBB203F00F0387F8BA
:104CC0002B30FB6E87F82A30BB6E1B12DBB203F071
:104CD0000F0387F82930BB6E87F8283097F82B3000
:104CE0001B015AB297F92930134359B297F87F3014
:104CF0005A1C87F87F201A46C9B2774B995497F807
:104D00007F305A1C87F87F201946734A97F82A305B
:104D1000535497F87F305A1C87F87F2019466E4A03
:104D200097F828305354FB6A022B73D103F096FD99
:104D300078627B6A191297F87F305A1C87F87F20B7
:104D40001A46C9B2644B995497F87F305A1C87F8B9
:104D50007F201A467B6AD9B25F4B9954644B9B6C97
:104D60003B62D7ED087AFDEEE77A17EE903A7B6664
:104D7000002387F863307B6E13F1140F02DA6FF0B3
:104D800013037B667B6E4D2B01DD4D237B667B6EB3
:104D90001D2B04DC7B6EDBB2143387F863307B6E33
:104DA0002F2B04DD7B6EDBB2533B87F863307B6EC9
:104DB0001D2B25DD7B6E2F2B22DC386A06F026FCAE
:104DC0004FF000024B4B06F0C1FA03460C46184662
:104DD00021464FF00002484B06F070FC03460C469B
:104DE000184621464FF00002444B06F0B1FA034644
:104DF0000C461846214606F039FF034687F8633013
:104E000097F87F305A1C87F87F201946324A97F866
:104E100063305354FB6A032B29D1394B1B68013B88
:104E2000FB61384AFB6932F81330BB61BB691B1266
:104E3000FB75BB69BB7597F87F305A1C87F87F20DC
:104E40001A46314B1978244B995497F87F305A1CE5
:104E500087F87F201946204AFB7D535497F87F300E
:104E60005A1C87F87F2019461B4ABB7D5354FB6AA6
:104E7000042B40F090801E4BD3ED037AB0EE670A0E
:104E8000FFF728FDB0EE407ADFED207A77EE277A43
:104E9000FDEEE77A17EE903AFB65FB6D002B01DA29
:104EA0000023FB65FB6DFF2B01DDFF23FB65104B32
:104EB000D3ED047AB0EE670AFFF70CFDB0EE407A4E
:104EC000DFED127A77EE277AFDEEE77A17EE903A69
:104ED000BB65BB6D1CE000BF141600202401002040
:104EE000F000002010010020180100201C0100200B
:104EF000D418002000003E4000002440000049403B
:104F0000040100208C02002020010020000000434A
:104F1000002B01DA0023BB65BB6DFF2B01DDFF23F6
:104F2000BB65AF4BD3ED057AB0EE670AFFF7D2FC55
:104F3000B0EE407ADFEDAB7A77EE277AFDEEE77AD6
:104F400017EE903A7B657B6D002B01DA00237B65C1
:104F50007B6DFF2B01DDFF237B6597F87F305A1CAB
:104F600087F87F201A46FB6DD9B29F4B995497F86A
:104F70007F305A1C87F87F201A46BB6DD9B29A4BF6
:104F8000995497F87F305A1C87F87F201A467B6D1A
:104F9000D9B2954B9954FB6A052B38D1904B1B8E97
:104FA0003B61924B1B68184606F030FB4FF0000245
:104FB0008F4B06F083FB03460C461846214606F04D
:104FC0002DFE03463B653B6DFF2B01DDFF233B655B
:104FD0003B69191297F87F305A1C87F87F201A46D0
:104FE000C9B2814B995497F87F305A1C87F87F20BB
:104FF0001A463B69D9B27C4B995497F87F305A1CBA
:1050000087F87F201A463B6DD9B2774B9954FB6ADB
:10501000062B57D1774B1B68774A9B0013441B68BC
:10502000184606F0F3FA6CA3D3E9002306F046FB1A
:1050300003460C461846214606F0F0FD0346FB6089
:105040006C4B1B6801336C4A9B0013441B68184669
:1050500006F0DCFA60A3D3E9002306F02FFB034639
:105060000C461846214606F0D9FD0346BB60614B4D
:10507000196897F87F305A1C87F87F201A46C9B202
:10508000594B995497F87F305A1C87F87F201A465D
:10509000FB68D9B2544B995497F87F305A1C87F863
:1050A0007F201A46BB68D9B24F4B9954514B1B68AD
:1050B0000233504A13604F4B1B680E2B02DD4D4BE1
:1050C00000221A600023FB644C4B1B781A4697F8A9
:1050D0003330D31A013BBB64BB6C002B2CDA484B3A
:1050E0001B781A46BB6C1344BB6425E0454ABB6C75
:1050F00052F82330191297F87F305A1C87F87F2016
:105100001A46C9B2384B99543E4ABB6C52F8231028
:1051100097F87F305A1C87F87F201A46C9B2324B65
:105120009954BB6C0133BB64354B1B781A46BB6C7E
:10513000934201DB0023BB64FB6C5A1CFA6497F8B2
:1051400033209342D2DB03F089FB0346FB80B7F99F
:1051500006301B1219B297F87F305A1C87F87F204F
:105160001A46C9B2204B995497F87F305A1C87F8D9
:105170007F201A46FB88D9B21B4B995497F87F3091
:105180000233DAB2184B1A70002387F84730002335
:105190003B640BE0144A3B6C13441A7897F8473091
:1051A000134487F847303B6C01333B6497F87F30FA
:1051B0003A6C9A42EEDB97F87F305A1C87F87F20D2
:1051C0001946094A97F847305354002387F83F306F
:1051D0000023BB6324E000BF0000000000E06F403C
:1051E000D4180020000000431416002030010020D5
:1051F000000024402C01002014020020F9000020AF
:105200000D000020301900200C4ABB6B13441A78A3
:1052100097F83F30134487F83F30BB6B0233BB63D2
:1052200097F87F30BA6B9A42EEDB97F87F300349EC
:1052300097F83F20CA548437BD4690BD141600200D
:10524000B0B5AAB000AF524B1A78524B1A70524BFD
:105250001B68002B00F0AE804E4B08225A704F4B5B
:105260001A784C4B9A704E4B1A784A4BDA704D4B69
:105270001A78484B1A714C4B1B68B3F5803F03D327
:10528000494B4FF6FF721A60474B1B681B0ADAB294
:10529000404B5A71444B1B68DAB23E4B9A7107235C
:1052A000C7F8A4300123C7F8A03010E0D7F8A43025
:1052B0005A1CC7F8A4203D49D7F8A0200A44117809
:1052C000344AD154D7F8A0300133C7F8A030D7F80A
:1052D000A030042BEADD0023C7F89C301EE0D7F88D
:1052E0009C305B000533314AD35C1946D7F89C30BB
:1052F00003335B002D4AD35C0B44DA0F13445B107D
:105300001946D7F8A4305A1CC7F8A420C9B2214ABC
:10531000D154D7F89C300133C7F89C30D7F89C3073
:10532000042BDCDD0023C7F898302CE0D7F8982058
:1053300013465B0013440F331C4AD35C1946D7F85D
:10534000982013465B0013441033184AD35C194469
:10535000D7F8982013465B0013441133134AD35CEB
:105360000B44134A82FB0312DB17D11AD7F8A4307F
:105370005A1CC7F8A420C9B2064AD154D7F89830AD
:105380000133C7F89830D7F89830042BCEDDA8E366
:1053900023010020141600200C010020F000002042
:1053A0002101002008010020FC00002094180020AA
:1053B0005655555503F052FA7864BD4B1B68184694
:1053C00006F024F9B6A3D3E9002306F077F90346E3
:1053D0000C461846214606F069FC0246B44B1A609A
:1053E000B34B1B68184606F011F904460D46786C5D
:1053F00006F0FAF8ACA3D3E9002306F05FF9024601
:105400000B462046294605F0A3FF03460C461846E6
:10541000214606F04BFC0246A54B1A60A54B1B78B3
:105420000133DAB2A34B1A70A24B1B78072B02D1BF
:10543000A04B00221A709F4B1B783B643B6CDAB286
:105440009D4B5A703B6C002B0BD19C4B1A789A4B9E
:105450009A70994B0522DA70994B1B68DAB2964B19
:105460001A713B6C012B64D1964B1B68184606F0F1
:10547000CDF803460C4644EC103B05F037FE54ECE7
:10548000103B1846214606F0C9FB0346C7F8943086
:105490008D4B1B68184606F0B9F803460C4644ECE1
:1054A000103B05F023FE54EC103B1846214606F055
:1054B000B5FB0346C7F89030D7F89430B3F5805F5A
:1054C00003DB40F6FF73C7F89430D7F89030B3F59C
:1054D000805F03DB40F6FF73C7F89030D7F8943055
:1054E0001B12DBB203F00F0387F83F30D7F894307C
:1054F00087F83E30D7F890301B12DBB203F00F0371
:1055000087F83D30D7F8903087F83C3097F83F3037
:105510001B015AB297F93D3013435BB2DAB2664BC6
:105520009A70654A97F83E30D370634A97F83C30DA
:1055300013713B6C022B71D15D4BD3ED007AFDEE04
:10554000E77A17EE903ABB63BB6B1B12DAB25A4B89
:105550009A70BB6BDAB2584BDA705C4B9B6C7B6316
:10556000D7ED0D7AFDEEE77A17EE903AC7F88C305A
:10557000002387F88B30D7F88C3013F1140F03DA3F
:105580006FF01303C7F88C30D7F88C304D2B02DD49
:105590004D23C7F88C30D7F88C301D2B05DCD7F89D
:1055A0008C30DBB2143387F88B30D7F88C302F2B4C
:1055B00005DDD7F88C30DBB2533B87F88B30D7F85A
:1055C0008C301D2B26DDD7F88C302F2B22DC786B0E
:1055D00006F01CF84FF000023D4B05F0B7FE034605
:1055E0000C46184621464FF000023A4B06F066F88A
:1055F00003460C46184621464FF00002364B05F094
:10560000A7FE03460C461846214606F02FFB03462C
:1056100087F88B30284A97F88B3013713B6C032B3B
:1056200040F095802D4B1B68013BC7F88430D7F8BC
:105630008430002B06DA2A4B1B68D7F884201344E9
:10564000C7F88430D7F88430013BC7F88030D7F8EA
:105650008030002B06DA224B1B68D7F880201344D9
:10566000C7F880301F4AD7F8843032F81330FB6710
:105670001C4AD7F8803032F81330BB67FB6FB3F5A4
:10568000805F02DB40F6FF73FB67BB6FB3F5805FA3
:105690002ADB40F6FF73BB6726E000BFAFF3008054
:1056A0005C8FC2F5285CEF3F7B14AE47E17A943FF4
:1056B000280100202401002014160020F000002002
:1056C00010010020180100201C010020D418002027
:1056D00000003E400000244000004940040100203A
:1056E000100000208C020020FB6F1B12DBB203F0C5
:1056F0000F0387F83330FB6F87F83230BB6F1B1214
:10570000DBB203F00F0387F83130BB6F87F830301E
:10571000AB4B5B785AB2AB4B1B781B015BB21343AC
:105720005BB2DAB2A64B5A7097F833301B015AB20B
:1057300097F9313013435BB2DAB2A14B9A70A04AA9
:1057400097F83230D3709E4A97F8303013713B6C23
:10575000042B5FD19C4BD3ED037AB0EE670AFFF7C1
:10576000B9F8B0EE407ADFED997A77EE277AFDEE60
:10577000E77A17EE903A7B677B6F002B01DA002304
:105780007B677B6FFF2B01DDFF237B678E4BD3EDA8
:10579000047AB0EE670AFFF79DF8B0EE407ADFEDCD
:1057A0008B7A77EE277AFDEEE77A17EE903A3B6731
:1057B0003B6F002B01DA00233B673B6FFF2B01DDC2
:1057C000FF233B67804BD3ED057AB0EE670AFFF706
:1057D00081F8B0EE407ADFED7D7A77EE277AFDEE44
:1057E000E77A17EE903AFB66FB6E002B01DA002396
:1057F000FB66FB6EFF2B01DDFF23FB667B6FDAB2DE
:105800006F4B9A703B6FDAB26D4BDA70FB6EDAB2A7
:105810006B4B1A713B6C052B26D16B4B1B8EFB62BD
:105820006B4B1B68184605F0F1FE4FF00002694B08
:1058300005F044FF03460C461846214606F0EEF9F3
:105840000346BB66BB6EFF2B01DDFF23BB66FB6A15
:105850001B12DAB25A4B9A70FB6ADAB2584BDA7002
:10586000BB6EDAB2564B1A713B6C062B67D15A4BA2
:105870001B685A4A9B0013441B68184605F0C6FE75
:105880004DA3D3E9002305F019FF03460C46184643
:10589000214606F0C3F90346BB624F4B1B68013338
:1058A0004E4A9B0013441B68184605F0AFFE42A306
:1058B000D3E9002305F002FF03460C4618462146B3
:1058C00006F0ACF903467B62434B1B680233434A44
:1058D0009B0013441B68184605F098FE36A3D3E9D5
:1058E000002305F0EBFE03460C461846214606F061
:1058F00095F903463B62324B5B785AB2364B1B68D4
:105900001B015BB213435BB2DAB22D4B5A70324BC0
:105910001B680333304A13602F4B1B680C2B02DDCE
:105920002D4B00221A60BB6ADAB2254B9A707B6A53
:10593000DAB2234BDA703B6ADAB2214B1A711E23BA
:10594000FB61274B1B781A46FB69D31A013B7B6628
:105950007B6E002B05DA234B1B781A467B6E1344B3
:105960007B66052387F863301F4A7B6E52F823302D
:10597000BB61BB69191297F863305A1C87F8632022
:105980001A46C9B20E4B995497F863305A1C87F8DF
:1059900063201A46BB69D9B2094B99547B6E7B616F
:1059A000BB69FB6501233B610023BB6500237B656D
:1059B00041E000BFAFF300800000000000E06F4056
:1059C0001416002020010020D418002000000043FD
:1059D00030010020000024402C010020140200208F
:1059E000000100200E000020941600207B6E013381
:1059F0007B663D4B1B781A467B6E934201DB00238E
:105A00007B663A4A7B6E52F82330FB60FA68FB6D86
:105A1000D31A3B653B6D002B02DA3B6D5B423B6565
:105A20003A6DBB6D9A4201DD3B6DBB65FB68FB6562
:105A30007B6D01337B657A6DFB699A42D6DBBB6D6A
:105A40002B4A82FB03121A449211DB17D31A01333B
:105A50003B613B69FB64FB6C642B07DDFB6C643BC7
:105A6000002B00DA03339B106433FB6497F8633038
:105A70005A1C87F863201A46FB6CD9B21D4B995407
:105A80007B697B66BB69FB650023BB6425E07B6E9D
:105A900001337B66144B1B781A467B6E934201DB05
:105AA00000237B66114A7B6E52F82330BB60BA68D4
:105AB000FB6DD21A3B6992FBF3F37B6097F863307E
:105AC0005A1C87F863201A467B68D9B2094B99544F
:105AD000BB68FB65BB6C0133BB64BA6CFB699A4263
:105AE000D5DBA837BD46B0BD0E00002094160020BF
:105AF0000904028114160020B0B59AB000AF744BAF
:105B00001B68002B00F0F68002F038FE0346002BE5
:105B100000F0D68002F08CFEB8636E4B7B664FF0CF
:105B200000033B660123FB6527E0FB6D9B00BA6B1E
:105B30001344D3ED007A97ED197AB4EEE77AF1EEDB
:105B400010FA05D5FB6D9B00BA6B13441B687B668E
:105B5000FB6D052B0EDDFB6D1E2B0BDCFB6D9B0027
:105B6000BA6B1344D3ED007A97ED187A77EE277A63
:105B7000C7ED187AFB6D0133FB65FB6D1F2BD4DD80
:105B8000386E05F043FD50A3D3E9002305F096FDE0
:105B900003460C461846214606F088F803463B6645
:105BA0004D4B1B78002B13D0D7ED187AB2EE007A4C
:105BB000F4EEC77AF1EE10FA05DD78223C21FF20E1
:105BC00003F0FCF804E000220021002003F0F6F8C6
:105BD000D7ED187A77EEA77AC7ED187AD7ED187A4D
:105BE0009FED3E7AF4EEC77AF1EE10FA03DD3C4BFE
:105BF000FF221A7009E0D7ED187AFCEEE77AC7EDBC
:105C0000017A3B79DAB2364B1A70D7ED197A9FEDEB
:105C1000357AF4EEC77AF1EE10FA04DD324B4FF626
:105C2000FF721A6007E0D7ED197AFCEEE77A17EEFB
:105C3000902A2D4B1A60DFED296A97ED197AC6EE8E
:105C4000877AC7ED197A0023BB652EE0BB6D9B00F8
:105C5000BA6B134493ED007AD7ED197A67EE277A81
:105C60009FED1E7AF4EEC77AF1EE10FA05DD1F4AB9
:105C7000BB6D1344FF221A7014E0BB6D9B00BA6B1E
:105C8000134493ED007AD7ED197A67EE277AFCEE8C
:105C9000E77AC7ED017A3B79D9B2144ABB6D134458
:105CA0000A461A70BB6D0133BB65BB6D1F2BCDDD82
:105CB0000F4B1B780133DAB20D4B1A7001234FE3FF
:105CC00000234DE3AFF300807B14AE47E17AA43F9D
:105CD0000C0100206F12833A0C00002000007F436B
:105CE0000801002000FF7F47FC00002094180020DE
:105CF0002101002002F0A6FD7863BB4B1B781946FA
:105D0000BA4A7B6B42F82130B94B93ED037AB84B1A
:105D1000D3ED037A27EE277AB54BD3ED046AB44B63
:105D2000D3ED047A66EEA77A37EE277AB04BD3ED3F
:105D3000056AAF4BD3ED057A66EEA77A77EE277A40
:105D400017EE900A05F062FC03460C4644EC103B4B
:105D500005F0CCF954EC103B1846214605F0A6FF9F
:105D600003463B63A34B1B68184605F04FFC90A30A
:105D7000D3E9002305F0A2FC03460C461846214651
:105D800005F094FF02469B4B1A609A4B1B6818461D
:105D900005F03CFC04460D46386B05F037FC86A345
:105DA000D3E9002305F08AFC02460B46204629462B
:105DB00005F0CEFA03460C461846214605F076FF5C
:105DC00002468C4B1A608C4B1A687B6B13448A4AD0
:105DD00013608A4B1B680133884A1360874B1B682A
:105DE000072B23DD844B1B68854A12781146DB1094
:105DF000844A42F82130824B1B780133DAB2804B5F
:105E00001A707F4B1A78804B1B789A4202D37C4BD6
:105E100000221A70784B00221A60784B00221A6018
:105E20007A4B1B780133DAB2784B1A706E4B1B78C1
:105E30000133DAB26C4B1A706B4B1A78744B1B78C7
:105E40009A4202D3684B00221A707B6B7B657B6D94
:105E5000B3F5004F03DB7B6DA3F580337B657B6D72
:105E600007EE903AF8EEE77AC7ED0B7A694B1B68BC
:105E7000184605F0CBFB52A3D3E9002305F01EFC26
:105E800003460C461846214605F010FF0246614BBA
:105E90001A60604B1B68184605F0B8FB04460D46B7
:105EA000F86A05F0B3FB48A3D3E9002305F006FC2C
:105EB00002460B462046294605F04AFA03460C46A0
:105EC0001846214605F0F2FE0246524B1A60524B2C
:105ED0001B68184605F09AFB3DA3D3E9002305F0A3
:105EE000EDFB03460C461846214605F0DFFE024650
:105EF000494B1A60484B1B68184605F087FB04465F
:105F00000D46F86A05F082FB33A3D3E9002305F0C0
:105F1000D5FB02460B462046294605F019FA0346F2
:105F20000C461846214605F0C1FE02463A4B1A605F
:105F3000384BD3ED007A97ED0B7A77EE677AC7EDA1
:105F40000A7A354BD3ED007A97ED0B7A77EE677AC4
:105F5000C7ED097A314B1B68184605F057FB20A3A3
:105F6000D3E9002305F0AAFB03460C461846214658
:105F700005F09CFE0246294B1A60294B1B68184607
:105F800005F044FB16A3D3E9002305F097FB034675
:105F90000C461846214605F089FE0246204B1A6041
:105FA000204B1B68184605F031FB3DE0AFF3008045
:105FB000666666666666EE3F9A9999999999A93FD1
:105FC0008195438B6CE7EF3FFA7E6ABC7493683F20
:105FD0005C8FC2F5285CEF3F7B14AE47E17A943FBB
:105FE000CDCCCCCCCCCCEC3FF9000020301900203B
:105FF000D4180020300100205C0100206001002046
:1060000000010020941600200E0000202301002033
:106010000D000020380100203C0100204801002034
:106020004C010020400100209DA3D3E9002305F08E
:1060300045FB03460C461846214605F037FE02464E
:106040009B4B1A609B4B1B68184605F0DFFA94A324
:10605000D3E9002305F032FB03460C4618462146DF
:1060600005F024FE0246934B1A60934BD3ED007A61
:1060700097ED097AB4EEE77AF1EE10FA02DD8E4A76
:106080007B6A13608D4BD3ED007A97ED097AB4EEFD
:10609000E77AF1EE10FA02D5884A7B6A1360844BE6
:1060A000D3ED007A97ED0A7AB4EEE77AF1EE10FAC2
:1060B00002DD7F4ABB6A13607E4BD3ED007A97ED19
:1060C0000A7AB4EEE77AF1EE10FA02D5794ABB6AA1
:1060D000136004F009FC3862774B93ED007A774B3C
:1060E000D3ED007A77EE677A17EE900A05F08EFA14
:1060F00004460D466E4B93ED007A6E4BD3ED007A5D
:1061000077EE677A17EE900A05F080FA66A3D3E976
:10611000002305F0D3FA02460B462046294605F037
:106120005DFD0346002B05D0654B1B680133644AB7
:10613000136002E0624B00221A60614B1B680A2B5D
:106140001CDD604B1B68002B15D15F4B1B683A6A46
:10615000D31AC82B0FD95D4A3B6A13605B4B1A6890
:10616000594B1B68D31AFB61F869FEF77DFB574B4F
:106170001B68554A1360534B50221A60514B1B68E1
:10618000002B34DD4F4B1B68013B4E4A136002F07D
:1061900065FB38653B6D13F5616F01DA4C4B3B6570
:1061A0003B6DB3F5616F02DD4FF461633B653B6DA1
:1061B00003F56163474A82FB0312D210DB17D31A3F
:1061C000FB64FB6C002B01DA0023FB64FB6CB3F572
:1061D000B47F02DB40F26713FB643F4B1B78002B5C
:1061E0000ED078221421FF2002F0E8FD08E03A4B9F
:1061F0001B78002B04D000220021002002F0DEFDDD
:10620000364B1B78032B32D13C23BB612F4B1B68D1
:106210003A6AD31A7B610023BB647B69312B05D8B2
:106220007A6913465B001344BB6409E07B69632B06
:1062300006D87A6913465B001344C3F19603BB6426
:10624000BA69BB6C13447B647B6C002B01DA0023BE
:106250007B647B6CFF2B01DDFF237B647B6C642BF9
:10626000CCBF01230023DBB2184602F08BFD1B4B91
:106270001B78042B55D196233B61144B1B683A6A5B
:10628000D31AFB6000233B64FB68312B28D8FA68E3
:1062900013465B0013443B642CE000BFAFF3008067
:1062A00096438B6CE7FBEF3F9A9999999999D93F5F
:1062B0004001002044010020480100204C01002042
:1062C000500100203401002058010020540100201A
:1062D000F0F1FFFF676666660C00002024000020D6
:1062E000FB68632B06D8FA6813465B001344C3F1BE
:1062F00096033B643A693B6CD31AFB63FB6B002B40
:1063000001DA0023FB63FB6BFF2B01DDFF23FB6343
:10631000FB6B642BCCBF01230023DBB2184602F0D9
:1063200031FD114B1B78012B0AD1104B1B68002B40
:1063300003DDFF2002F026FD02E0002002F022FD36
:10634000094B1B78022B0AD1084B1B68002B03DD7D
:10635000002002F017FD02E0FF2002F013FD0123F0
:1063600018466837BD46B0BD240000203401002027
:1063700080B400AF4FF080430022C3F800214FF0FB
:10638000804301221A6000BF4FF08043D3F80031F0
:10639000002BF9D000BFBD465DF8047B704780B488
:1063A00000AF4FF080430022C3F818254FF0804320
:1063B00001229A6000BF4FF08043D3F80431002BD4
:1063C000F9D000BFBD465DF8047B704780B500AFD3
:1063D000FFF7E5FF4FF0804301225A6000BF80BD08
:1063E00080B500AF02F074FB04F060FAFFF7EEFF37
:1063F0000E4B0022C3F8002500220021002002F0ED
:10640000DDFC002002F0BEFC4FF0A0434FF4006220
:10641000C3F80C254FF080430122DA674FF0804328
:106420000122C3F8002500BF80BD00BF003000403E
:1064300080B400AF034B01225A6000BFBD465DF837
:10644000047B70470010014080B500AF084BD3F8C3
:106450004031002B09D0064B0022C3F84021044BE9
:1064600001229A6040BFFFF7E3FF00BF80BD00BF7D
:10647000001001400000000090B585B000AF00237F
:10648000BB60574B0022C3F81825554B0122C3F8B7
:106490001025534B0022C3F81425514B0322C3F897
:1064A000F0254F4B0122C3F830264D4A07F108036F
:1064B000C2F82C364A4B0022C3F8F825484B01227B
:1064C000C3F80025474B1B680133464A1360444B11
:1064D00001221A6000BF424BD3F80031002BFAD0E2
:1064E0003F4B0022C3F800213D4B01225A6000BF00
:1064F0003B4BD3F80431002BFAD0394B0022C3F8C0
:106500000421374B01229A6000BF354BD3F8143178
:10651000002BFAD0324B0022C3F81421BB6807EEDF
:10652000903AF8EE677AC7ED037AF86805F06EF8EE
:1065300029A3D3E9002305F0C1F803460C46184609
:1065400021464FF00002284B05F0E2F903460C46C5
:106550001846214605F0AAFB0346FB60D7ED037AF7
:10656000B0EE087A67EE877AC7ED037A1F4AFB68B8
:106570001360D7ED037A9FED1E7A77EEC77AC7EDE9
:10658000037AD7ED037AF5EEC07AF1EE10FA03D56F
:10659000184B00221A701BE0D7ED037A9FED167A94
:1065A000F4EEC77AF1EE10FA03DD124BFF221A70F7
:1065B0000EE097ED037AF2EE046AC7EE267AFCEE5F
:1065C000E77AC7ED017A3B79DAB20A4B1A7000BF5D
:1065D0001437BD4690BD00BF000000000020AC4055
:1065E00000700040640100200000D0400400002042
:1065F0000000FA44F000002000601F4580B500AFA5
:10660000084B1B78002B03D0064B1B78022B01D1C3
:1066100002F074FD034B1B78012B01D100F056FEF4
:1066200000BF80BD2500002080B500AF02F044FC13
:1066300000F0FCFC00BF80BD80B500AF02F03CFC68
:10664000202002F05DFC02F033FD00BF80BD80B56C
:1066500000AF02F031FC402002F052FC02F028FDB5
:1066600000BF80BD80B500AF0D4B1B78012B05D15D
:106670000B4B02221A70FFF7EAFF0EE0084B1B7863
:10668000022B05D1064B00221A70FFF7D5FF04E05C
:10669000034B01221A70FFF7C7FF00BF80BD00BF88
:1066A0002500002080B500AF094B1B68002B06D1E8
:1066B000074B01221A60012002F0E4F805E0044BC8
:1066C00000221A60002002F0DDF800BF80BD00BF8C
:1066D0000C01002080B598B002AF01237B654FF01C
:1066E00010230022C3F80C224FF0A042CB4B1B78A2
:1066F00003F5E0730C2142F82310FFF739FE04F094
:10670000ABF84FF0A0434FF40062C3F818254FF0E8
:10671000A0434FF40062C3F8082502F0BBFA00233F
:106720003B651BE03B6D002B01D1FF2000E000200A
:106730003B6D012B01D1FF2100E000213B6D022BBD
:1067400001D1FF2300E000231A4602F037FB4FF48B
:10675000967004F027F93B6D01333B653B6D022BCE
:10676000E0DD00220021002002F028FB4FF49670AB
:1067700004F018F9AA4B1B78012B01D100F056FC4C
:10678000A74B1B78002B04D1202002F0B9FB02F0AC
:106790008FFCA34B1B78022B04D1402002F0B0FBEE
:1067A00002F086FC112300930F230E220C210D20F2
:1067B00002F0B0F802F080F90346002B23D1002349
:1067C0007B6500220021FF2002F0F8FA4FF47A7076
:1067D00004F0E8F800220021002002F0EFFAC820BF
:1067E00004F0E0F8FF220021FF2002F0E7FA4FF466
:1067F0007A7004F0D7F800220021002002F0DEFABF
:10680000C82004F0CFF81423009312230E220C2189
:106810000D2002F0E9FF03F02DF80346002B23D1F1
:1068200000237B6500220021FF2002F0C7FA4FF40D
:106830007A7004F0B7F800220021002002F0BEFABE
:10684000C82004F0AFF80022FF21FF2002F0B6FAC2
:106850004FF47A7004F0A6F800220021002002F024
:10686000ADFAC82004F09EF84FF0A043D3F81035DD
:106870006A4A1278114601228A401340002B21D126
:1068800000220021FF2002F099FA4FF47A7004F000
:1068900089F800220021002002F090FAC82004F0BC
:1068A00081F8FF220021002002F088FA4FF47A706C
:1068B00004F078F800220021002002F07FFAC820BE
:1068C00004F070F8642004F06DF8FDF7F3FC002389
:1068D000FB64002387F84B30002387F84A300023FD
:1068E0007B640023BB6200237B6200233B620123A5
:1068F0007B624C4B01221A604A4B0022C3F80022F3
:10690000484B0122C3F8042505233B640523FB63A0
:106910000023BB6300237B6300233B637B6D002B61
:1069200018D00023FB6212E00022FF21002002F0B9
:1069300045FAC82004F036F800220021002002F0B9
:106940003DFAC82004F02EF8FB6A0133FB62FB6AB3
:10695000022BE9DD03F0C8FFF8614FF0A043D3F844
:1069600010352E4A1278114601228A401340002B1E
:106970003AD12D4B00221A7097F84A30002B04D1DF
:10698000012387F84A30FB697B64FA697B6CD31A70
:10699000192B0AD9FA697B6CD31AB3F57A7F04D222
:1069A000FF220021002002F009FAFA697B6CD31A59
:1069B000B3F57A7F0BD9FA697B6CD31A41F287322F
:1069C000934204D80022FF21002002F0F7F9FA696F
:1069D0007B6CD31A41F2883293422ED9FF22FF21D9
:1069E000FF2002F0EBF928E00F4B01221A7097F814
:1069F0004A30002B21D0002387F84A30FB69BB6264
:106A0000BA6A7B6CD31ABB61BB69192B15D9BB69F8
:106A1000B3F57A7F0AD2FFF725FE0EE000000020D2
:106A20002500002000D000400C000020BB6941F28E
:106A30008732934201D8FFF735FE02F029F803466A
:106A4000002B4AD0FFF758F80346002B30D06A4B92
:106A50001B780133DAB2684B1A70684B1B7801332C
:106A6000DAB2664B1A70664B1B781D2B05D8644B47
:106A70001B780133DAB2624B1A70FFF7FDFC614BF1
:106A80001B6807EE903AB8EEE77A5F4BD3ED007AD9
:106A9000B4EEE77AF1EE10FA08DD7B6B01337B632D
:106AA0007B6B642B04DDFFF79BFC01E000237B6321
:106AB000564B1B68002B10D102F0F2FC3B6B0133EC
:106AC0003B633B6B0A2B01D102F0F2FD3B6B142BB5
:106AD00003DD02F0DBFD00233B634D4B1B78002BF5
:106AE0007DD1474B1B781A46484B1B68002B01D1C0
:106AF000052300E0002393423ADAFA69FB6CD21ACC
:106B00003B6C9A4234D9FDF75FFF424802F0E6FA47
:106B10003B4B00221A70FB69FB640123BB633E4BB5
:106B2000D3F80031002B23D03B4BD3F80835FB6062
:106B3000394B0022C3F80021344B1B685B005A1C00
:106B4000FB689B1113443B64304B1B685B00581C73
:106B5000FA682E4B1B68591C0B465B000B4492FBDA
:106B6000F3F103FB01F3D31A0344FB632A4B1B68C5
:106B7000FB6C002B0DD0FA69FB6CD21AFB6B9A42AE
:106B800007D9BB6B012B04D1224802F0A7FA0223DC
:106B9000BB63FB6C002B0ED0FA69FB6CD31AFA6B4B
:106BA0005200934207D9BB6B022B04D1194802F063
:106BB00095FA0323BB63FB6C002B10D0FA69FB6CC6
:106BC000D11AFA6B13465B001344994207D9BB6B89
:106BD000032B04D10F4802F081FA0423BB630C4B52
:106BE0001B78022B6CD1064B1B781A46074B1B688F
:106BF000002B13D10F2312E0FA0000202201002005
:106C0000F800002008000020040000200C010020F3
:106C1000250000201416002000D0004000239342DD
:106C20003ADAFA69FB6CD21A3B6C9A4234D9FDF716
:106C3000CBFE5A4802F052FA594B00221A70FB69F7
:106C4000FB640123BB63574BD3F80031002B23D0E7
:106C5000544BD3F80835BB60524B0022C3F80021D7
:106C6000514B1B685B005A1CBB689B1113443B646F
:106C70004D4B1B685B00581CBA684B4B1B68591C7A
:106C80000B465B000B4492FBF3F103FB01F3D31AB9
:106C90000344FB63434B1B68FB6C002B10D0FA6969
:106CA000FB6CD21AFB6B9A420AD9BB6B042B07DC34
:106CB0003A4802F013FAFB69FB64BB6B0133BB6318
:106CC0003A4B1B78012B7FF445AE3B6C7B61FB6B31
:106CD0003B61FA69FB6CD21A7B699A4238D9FEF79C
:106CE000AFFA28212D4800F081F800F035FA012391
:106CF00087F84B30FB69FB642A4BD3F80031002B3B
:106D000026D0284BD3F808357B60264B0022C3F8E9
:106D100000217B685A4203F0030302F0030258BFCC
:106D200053420B333B647A6813461B019918204B7E
:106D300083FB01235A10CB17D21A13469B0013442E
:106D4000CA1A531DFB631B4A3B6C1360154B1B682F
:106D5000FA69FB6CD21A3B699A420AD997F84B3010
:106D6000012B06D100F0F8F9022387F84B30FB69BC
:106D7000FB64FA69FB6CD21A3B699A427FF6EAAD72
:106D800097F84B30022B7FF4E5AD00F0E5F9FB6995
:106D9000FB64032387F84B30DCE500BF14160020AA
:106DA000F800002000D000400C0100202500002049
:106DB00067666666F400002080B483B000AF0346C7
:106DC000FB71FB7903F01F02074997F907305B0954
:106DD000012000FA02F241F8232000BF0C37BD4623
:106DE0005DF8047B704700BF00E100E080B489B02B
:106DF00000AF78603960864B1B68272B02DD844B1F
:106E000025221A60834B25221A600023FB61824BE6
:106E10001B680133804A1360804B00221A607E4B4E
:106E20001B68142B05DD7D4B01221A607A4B002272
:106E30001A60FB695A1CFA61794A4221D154754B98
:106E40001968FB695A1CFA61C9B2754AD154FB69C9
:106E50005A1CFA61724A0021D1544FF080535B6E84
:106E6000BB60BB681B0EDAB26E4B9A70BB681B0C22
:106E7000DAB26C4BDA70BB681B0ADAB2694B1A7172
:106E8000BB68DAB2674B5A710023BB610CE0BB6987
:106E9000C3F10502FB69591CF9616249895C604ACA
:106EA000D154BB690133BB61BB69052BEFDD5B4B83
:106EB0001B68002B35D0FB695A1CFA61584A022125
:106EC000D154FB695A1CFA61554A0121D154FB691E
:106ED0005A1CFA61524A0021D154FB695A1CFA61CA
:106EE0004F4A0521D154FB695A1CFA614C4A0821CA
:106EF000D154FB695A1CFA61494A7521D154FB6986
:106F00005A1CFA61464A4521D154FB695A1CFA6160
:106F1000434A4321D154FB695A1CFA61404A472134
:106F2000D1543C4B1B68DAB23C4B1B68DBB21946B0
:106F30004901C91AC900CB1ADBB21344DAB2FB69A2
:106F4000591CF961073AD1B2354AD154FB695A1C30
:106F5000FA61334AFF21D15400237B610EE07B6943
:106F60007A681A44FB69591CF96111782C4AD1548A
:106F7000FB69262B07DC7B6901337B617A693B68FF
:106F80009A42ECDB00E000BF254B002283F827206B
:106F9000234B002283F828200023FB61FB695A1C45
:106FA000FA61214A4421D154FB695A1CFA611E4AF4
:106FB0000621D154FB695A1CFA611B4A0021D154A5
:106FC00000233B610CE03B69C3F10502FB69591CDE
:106FD000F9611449895C144AD1543B6901333B611E
:106FE0003B69052BEFDD0023FB6008E0FB695A1CC1
:106FF000FA610D4A0021D154FB680133FB60FB6844
:10700000052BF3DD2437BD465DF8047B704700BFD8
:107010003000002068010020700100206C01002079
:10702000301B002028000020B01B002080B582B05B
:1070300000AF314B0122C3F8FC2F2F4B0322C3F8C2
:1070400010252D4B2D4AC3F814252B4B2C4AC3F881
:107050001825294B294AC3F81425274B284AC3F879
:107060001825254B274AC3F81C25234B8E22C3F82D
:107070002425214B0022C3F82C251F4B0122C3F8E5
:1070800030251D4B40F20312C3F834251A4B40F251
:107090005B62C3F83825184B1B4AC3F83C25164BD6
:1070A0000422C3F80C25144B0022C3F81021124B04
:1070B0000022C3F80C21104B0022C3F800210E4B14
:1070C0000022C3F8042100237B6007E00F4A7B689D
:1070D000134400221A707B6801337B607B683F2B6E
:1070E000F4DD054B0822C3F804230120FFF764FEFA
:1070F00000BF0837BD4680BD0010004006010200F9
:107100002500030200D6BE8955555500301C0020CD
:1071100080B400AF0F4BD3F85035002B15D00D4B7A
:107120000022C3F800220B4B0022C3F81021094BA8
:1071300001221A6100BF074BD3F81031002BFAD09F
:10714000044B0022C3F8102100E000BFBD465DF8EB
:10715000047B70470010004080B582B000AF344B14
:107160001B680133324A1360314B1B68272B02DD49
:107170002F4B25221A602E4B1B68252B03D12D4B3C
:107180000222C3F808252A4B1B68262B03D1294B62
:107190001A22C3F80825264B1B68272B03D1254B41
:1071A0005022C3F80825224B1A68224BC3F85425F5
:1071B000204B40F25B62C3F838251E4B1E4AC3F8D1
:1071C0003C251C4B1D4AC3F804251A4BD3F85035F7
:1071D00003F00803002B02D1FFF79AFF08E0154BDC
:1071E000D3F8503503F00303002B01D1FFF790FFD4
:1071F000104B0322C3F800220E4B01221A60002319
:107200007B6002E07B6801337B607B68132BF9DDD8
:10721000084BD3F80032074A43F00803C2F80032A3
:10722000074B03221A6000BF0837BD4680BD00BF70
:10723000300000200010004055555500301B002044
:107240007401002080B483B000AF1C4B0322C3F84C
:10725000002200237B6007E07B680933184A002185
:10726000D1547B6801337B607B68052BF4DD154BC3
:107270001A68124BC3F85425104B114AC3F8042561
:107280000E4B01221A6000233B6002E03B68013391
:107290003B603B68132BF9DD084BD3F80032074AFB
:1072A00043F00803C2F80032074B03221A6000BF04
:1072B0000C37BD465DF8047B704700BF00100040EE
:1072C000B01B0020300000207401002080B584B085
:1072D00000AF2B4B1B680133294A1360294BD3F8AD
:1072E0000C31002B48D0274BD3F8043303F00803AC
:1072F000002B41D0234B0022C3F80C21224B1B68EA
:10730000002B2AD1214B1B680133204A1360204BEC
:107310001B7803F00F037B607B68032B1DD10123D7
:10732000FB600023BB600FE0BB680933184AD25CE6
:10733000BB68C3F105031749CB5C9A4201D0002317
:10734000FB60BB680133BB60BB68052BECDDFB68F1
:10735000002B02D0FFF776FF0EE00B4B1B68032BD0
:107360000AD1084B0A4AC3F80425074B00221A60C9
:10737000044B0322C3F800221037BD4680BD00BF76
:107380007801002000100040740100207C010020E2
:10739000301C00202800002080B483B000AF0346DA
:1073A000FB71FB7903F01F02074997F907305B096E
:1073B000012000FA02F241F8232000BF0C37BD463D
:1073C0005DF8047B704700BF00E100E080B483B04B
:1073D00000AF0346FB71FB7903F01F02074997F9E1
:1073E00007305B09012000FA02F2203341F8232024
:1073F00000BF0C37BD465DF8047B704700E100E03C
:1074000080B483B000AF0346FB71FB7903F01F0229
:10741000074997F907305B09012000FA02F260334F
:1074200041F8232000BF0C37BD465DF8047B704750
:1074300000E100E080B483B000AF03463960FB7127
:1074400097F90730002B0BDA3B68DAB20C49FB796D
:1074500003F00F03043B5201D2B20B441A7609E049
:107460003B68DAB2074997F907305201D2B20B44B0
:1074700083F8002300BF0C37BD465DF8047B7047DE
:1074800000ED00E000E100E080B483B000AF786080
:107490004FF0A04318460C37BD465DF8047B70479B
:1074A00080B584B000AF7860084611461A4603469E
:1074B000FB700B46BB7013467B703B1D1846FFF7F5
:1074C000E3FFF860FA78BB785B001A437B789B0097
:1074D0001A433B7E1B0242EA03013B7F1B047A688E
:1074E0001943FB6802F5E07243F8221000BF103721
:1074F000BD4680BD80B584B002AF786000230193A3
:10750000002300930023012201217868FFF7C8FFC0
:1075100000BF0837BD4680BD2DE9B04384B000AF41
:1075200087ED010A4FF00003FB600FE0786804F07C
:107530006DF8ADA3D3E9002303F00AFF03460C4620
:107540001846214604F0B2FB03467B60786804F0DD
:107550005DF8A7A3D3E9002304F022FB0346002B28
:10756000E4D10FE0786804F051F89FA3D3E9002339
:1075700003F0ECFE03460C461846214604F096FB49
:1075800003467B60786804F041F89BA3D3E90023AD
:1075900004F024FB0346002BE4D1D7ED017AF5EE8D
:1075A000C07AF1EE10FA40F18A80786804F02EF883
:1075B00093A3D3E9002304F081F803460C46254643
:1075C0001C46786804F022F88FA3D3E9002304F066
:1075D00075F802460B4690469946786804F016F80E
:1075E00002460B464046494604F068F802460B4600
:1075F0002046294603F0ACFE03460C4618462146B9
:1076000004F054FB0346FB60D7ED037AF5EEC07A35
:10761000F1EE10FA2AD5D7ED037AB1EE677AD7EDFD
:10762000037A27EE277AD7ED037A77EE677A17EE9B
:10763000900A03F0EBFF76A3D3E9002304F03EF8B1
:1076400003460C4625461C46F86803F0DFFF024659
:107650000B462046294603F07BFE03460C4618469F
:10766000214604F023FB0346FB60B1E097ED037A6B
:10767000D7ED037A27EE277AD7ED037A77EE677A8C
:1076800017EE900A03F0C2FF61A3D3E9002304F0D0
:1076900015F803460C4625461C46F86803F0B6FF6D
:1076A00002460B462046294603F052FE03460C468E
:1076B0001846214604F0FAFA0346FB6088E0786831
:1076C00003F0A4FF4EA3D3E9002303F0F7FF034622
:1076D0000C4625461C46786803F098FF4AA3D3E978
:1076E000002303F0EBFF02460B469046994678686C
:1076F00003F08CFF02460B464046494603F0DEFF8E
:1077000002460B462046294603F020FE03460C465F
:107710001846214604F0CAFA0346FB60D7ED037A07
:10772000F5EEC07AF1EE10FA2AD5D7ED037AB1EE74
:10773000677AD7ED037A27EE277AD7ED037A77EECB
:10774000677A17EE900A03F061FF31A3D3E90023B3
:1077500003F0B4FF03460C4625461C46F86803F0C8
:1077600055FF02460B462046294603F0F1FD03462D
:107770000C461846214604F099FA0346FB6027E0C0
:1077800097ED037AD7ED037A27EE277AD7ED037AC0
:1077900077EE677A17EE900A03F038FF1CA3D3E95F
:1077A000002303F08BFF03460C4625461C46F86871
:1077B00003F02CFF02460B462046294603F0C8FD85
:1077C00003460C461846214604F070FA0346FB6057
:1077D000FB6807EE903AB0EE670A1037BD46BDE889
:1077E000B08300BFAFF3008068A17454FB2119403F
:1077F000F1D4C853FB2109C0F1D4C853FB2109407F
:10780000A662846C305FF43F592799622FF0D93F0C
:10781000CDCCCCCCCCCCCC3F90B583B000AF87EDF9
:10782000010A786803F0F2FE0BA3D3E9002303F00A
:107830008FFD03460C461846214604F037FA0346EE
:1078400000EE103AFFF768FEF0EE407AB0EE670AFD
:107850000C37BD4690BD00BF023C7152FB21F93F81
:1078600080B483B000AF0346FB710B46BB71134677
:107870007B710F4A7B79C2F808350D4ABB79C2F893
:107880000C350B4AFB79C2F81035094B4FF080429A
:10789000C3F82425064B0022C3F85425044B0122CB
:1078A000C3F8002500BF0C37BD465DF8047B704768
:1078B0000030004080B487B000AF03460A46FB7139
:1078C0001346BB800023FB7503E02A4BD3F8183521
:1078D000FB75284BD3F80831002BF6D14FF0A042AE
:1078E000254B1B68C2F80C35FB795B00FB73214A02
:1078F000FB7BC2F81C3500BF1E4BD3F80831002BB0
:10790000FAD01C4BD3F81835FB751A4B0022C3F87C
:1079100008210823BB7500233B611BE0BA88BB7DAF
:1079200042FA03F3134ADBB2C2F81C35BB7D083BB5
:10793000BB7500BF0F4BD3F80831002BFAD00D4BAD
:10794000D3F81835FB750B4B0022C3F808213B69AF
:1079500001333B613B69012BE0DD4FF0A042064B58
:107960001B68C2F8083500BF1C37BD465DF8047BB4
:10797000704700BF003000400402002080B485B092
:1079800000AF03460A46FB711346BB710023FB732D
:1079900003E0214BD3F81835FB731F4BD3F80831A4
:1079A000002BF6D14FF0A0421C4B1B68C2F80C35DF
:1079B000FB795B00BB73184ABB7BC2F81C3500BF68
:1079C000154BD3F80831002BFAD0134BD3F81835E8
:1079D000FB73114B0022C3F808210F4ABB79C2F890
:1079E0001C3500BF0C4BD3F80831002BFAD00A4BE2
:1079F000D3F81835FB73084B0022C3F808214FF069
:107A0000A042064B1B68C2F8083500BF1437BD46BC
:107A10005DF8047B704700BF003000400402002086
:107A200080B487B000AF0346FB710023FB8203E004
:107A30002D4BD3F81835FB822B4BD3F80831002B94
:107A4000F6D14FF0A042294B1B68C2F80C35FB79E8
:107A50005B005BB243F001035BB2FB73224AFB7B2A
:107A6000C2F81C3500BF204BD3F80831002BFAD0E8
:107A70001D4BD3F81835FB820023FB8200233B61AA
:107A80001CE0194B0022C3F80821174B0022C3F851
:107A90001C2500BF144BD3F80831002BFAD0B7F9DE
:107AA00016301B02FB82104BD3F818359AB2FB8AB2
:107AB00013439BB2FB823B6901333B613B69012B62
:107AC000DFDD094B0022C3F808214FF0A042074B2D
:107AD0001B68C2F80835B7F9163018461C37BD4682
:107AE0005DF8047B704700BF0030004004020020B6
:107AF00080B400AF1B4B0022C3F80425194B0122B0
:107B0000C3F80825174B0022C3F81025154B012296
:107B1000C3F84025134B0122C3F84425114B022220
:107B2000C3F80022104B114AC3F81425104B202231
:107B3000C3F804250E4BD3F800380D4A43F0200358
:107B4000C2F800380A4B0B4AC3F83825084B0A4ADA
:107B5000C3F83C25034B01221A6000BFBD465DF807
:107B6000047B704700900040006000400310130049
:107B700000F00140409100400460004080B400AF3C
:107B8000034B01225A6000BFBD465DF8047B70477D
:107B900000900040000000002DE9B04390B000AF1D
:107BA00078603960044B1B78002B09D1034A7B684D
:107BB0001360012300F0EFBC3C0000208401002092
:107BC000D14B1B78012B40F02D84D04B1B78002B20
:107BD00002D1CF4A7B6813607B6807EE903AF8EEDB
:107BE000E77AC7ED0B7A3B6807EE903AF8EEE77A52
:107BF000C7ED0A7AC74B7B62C74B93ED007AC74B40
:107C0000D3ED007A67EE277AC34BC3ED007AC44BFD
:107C100093ED007AC14BD3ED007A67EE277AC04B23
:107C2000C3ED007AD7ED097A37EEA77ABD4BD3EDD5
:107C3000007A67EE277AB0EE670AFFF76DFC87EDF2
:107C4000080AD7ED097A37EEA77AB64BD3ED007A5A
:107C500067EE277AB0EE670AFFF7DEFD87ED070AC9
:107C6000AD4B1B68184603F0D1FC04460D4697ED5A
:107C70000B7AD7ED087A67EE277A17EE900A03F0B1
:107C8000C5FC80468946A54B1B68184603F0BEFC20
:107C900002460B464FF00000A34903F057FB024693
:107CA0000B464046494603F009FD02460B46204676
:107CB000294603F04DFB03460C461846214603F0C7
:107CC000F5FF0246944B1A60954B1B68184603F06B
:107CD0009DFC04460D4697ED0B7AD7ED077A67EECB
:107CE000277A17EE900A03F091FC804689468B4B69
:107CF0001B68184603F08AFC02460B464FF0000052
:107D0000894903F023FB02460B464046494603F0EF
:107D1000D5FC02460B462046294603F019FB0346D4
:107D20000C461846214603F0C1FF02467C4B1A6000
:107D30007E4B93ED007A794BD3ED007A67EE277A8C
:107D40007A4BC3ED007A7A4B93ED007A734BD3ED07
:107D5000007A67EE277A764BC3ED007A734B1B6887
:107D6000184603F053FC04460D4697ED0A7AD7ED0A
:107D7000087A67EE277A17EE900A03F047FC8046F0
:107D80008946664B1B68184603F040FC02460B46CA
:107D90004FF00000644903F0D9FA02460B46404612
:107DA000494603F08BFC02460B462046294603F069
:107DB000CFFA03460C461846214603F077FF0246E9
:107DC0005A4B1A605A4B1B68184603F01FFC0446B6
:107DD0000D4697ED0A7AD7ED077A67EE277A17EE08
:107DE000900A03F013FC804689464C4B1B681846EA
:107DF00003F00CFC02460B464FF000004A4903F02A
:107E0000A5FA02460B464046494603F057FC024697
:107E10000B462046294603F09BFA03460C461846BB
:107E2000214603F043FF0246414B1A60D7ED097A21
:107E300037EEA77A3F4BD3ED007A67EE277AB0EEA4
:107E4000670AFFF769FB87ED060AD7ED097A37EE77
:107E5000A77A384BD3ED007A67EE277AB0EE670A3F
:107E6000FFF7DAFC87ED050A334B93ED007A2B4BD5
:107E7000D3ED007A67EE277A2F4BC3ED007A2F4BB4
:107E800093ED007A254BD3ED007A67EE277A2B4BE2
:107E9000C3ED007A284B1B68184603F0B7FB044675
:107EA0000D4697ED0B7AD7ED067A67EE277A17EE37
:107EB000900A03F0ABFB80468946184B1B681846B6
:107EC00003F0A4FB02460B464FF00000164903F0F6
:107ED0003DFA02460B464046494603F0EFFB024698
:107EE0000B462046294603F033FA03460C46184653
:107EF000214603F0DBFE02460F4B1A600F4B1B6856
:107F0000184603F083FB1BE03C00002034000020F7
:107F1000B8010020DA0F4940900100204000002005
:107F200094010020B00100200000F03FA0010020DB
:107F3000A4010020B4010020980100209C01002031
:107F400004460D4697ED0B7AD7ED057A67EE277A52
:107F500017EE900A03F05AFB804689468F4B1B6848
:107F6000184603F053FB02460B464FF000008C49C5
:107F700003F0ECF902460B464046494603F09EFBEF
:107F800002460B462046294603F0E2F903460C461A
:107F90001846214603F08AFE0246824B1A60824B45
:107FA00093ED007A7D4BD3ED007A67EE277A7E4B16
:107FB000C3ED007A7D4B93ED007A784BD3ED007AD8
:107FC00067EE277A794BC3ED007A774B1B6818462A
:107FD00003F01CFB04460D4697ED0A7AD7ED067AAE
:107FE00067EE277A17EE900A03F010FB8046894669
:107FF0006A4B1B68184603F009FB02460B464FF01C
:108000000000674903F0A2F902460B464046494684
:1080100003F054FB02460B462046294603F098F92C
:1080200003460C461846214603F040FE02465E4BCE
:108030001A605E4B1B68184603F0E8FA04460D46CA
:1080400097ED0A7AD7ED057A67EE277A17EE900A50
:1080500003F0DCFA80468946504B1B68184603F053
:10806000D5FA02460B464FF000004D4903F06EF979
:1080700002460B464046494603F020FB02460B46AB
:108080002046294603F064F903460C46184621466B
:1080900003F00CFE0246454B1A60454B93ED007A07
:1080A000434BD3ED007A27EE277A424BD3ED006A9B
:1080B000404BD3ED007A66EEA77A37EE277A3E4B37
:1080C000D3ED006A3C4BD3ED007A66EEA76A354BE0
:1080D00093ED006A334BD3ED007A66EE277A76EEA5
:1080E000A77AB4EEE77AF1EE10FA69DDF86A03F0E8
:1080F0008DFA04460D462E4B93ED007AD7ED087AA3
:1081000027EE277A2B4BD3ED006AD7ED077A66EE80
:10811000A77A77EE277A17EE900A03F077FA0246ED
:108120000B4603F015F902460B462046294603F09C
:108130000DF903460C461846214603F0B7FD0346E9
:10814000FB63B86A03F062FA04460D461B4B93EDDD
:10815000007AD7ED087A27EE277A164BD3ED006A1E
:10816000D7ED077A66EEA77A77EE277A17EE900AB0
:1081700003F04CFA02460B4603F0EAF802460B46BF
:108180002046294603F0E2F803460C4618462146ED
:1081900003F08CFD03463B6168E000BF4000002017
:1081A0000000F03F9C010020A8010020AC0100204D
:1081B000900100209401002098010020A0010020DF
:1081C000F86A03F023FA04460D46B34B93ED007AA8
:1081D000D7ED067A27EE277AB04BD3ED006AD7EDBC
:1081E000057A66EEA77A77EE277A17EE900A03F003
:1081F0000DFA02460B4603F0ABF802460B4620464A
:10820000294603F0A3F803460C461846214603F01E
:108210004DFD0346FB63B86A03F0F8F904460D46CA
:108220009F4B93ED007AD7ED067A27EE277A9D4B88
:10823000D3ED006AD7ED057A66EEA77A77EE277A56
:1082400017EE900A03F0E2F902460B4603F080F8BD
:1082500002460B462046294603F078F803460C46B2
:108260001846214603F022FD03463B618E4B1B68F6
:10827000184603F0CBF980A3D3E9002303F068F894
:1082800003460C461846214603F010FD0246864B75
:108290001A60864B1B68184603F0B8F978A3D3E937
:1082A000002303F055F803460C461846214603F018
:1082B000FDFC02467D4B1A607B4BD3ED007AB7EE96
:1082C000007AF4EEC77AF1EE10FA09DD764BD3EDC1
:1082D000007AB0EE007A77EEC77A734BC3ED007A7E
:1082E000724BD3ED007AB7EE007AF4EEC77AF1EE76
:1082F00010FA09DD6D4BD3ED007AB0EE007A77EE1F
:10830000C77A6A4BC3ED007AD7ED0F7AFDEEE77AB4
:1083100017EE902A664B1A60664B1B78002B30D004
:10832000654B1B68184603F071F957A3D3E9002386
:1083300003F0C4F903460C461846214603F0B6FC88
:1083400002465D4B1A605C4B1B68184603F05EF9F1
:1083500004460D46B86A03F059F94DA3D3E900234A
:1083600003F0ACF902460B462046294602F0F0FF26
:1083700003460C461846214603F098FC02464E4B35
:108380001A604E4B1B68002B4AD0494B19684C4B66
:108390001A684C4B1B689B00134407EE901AF8EECA
:1083A000E77AC3ED007A484B1A68464B1B689B007E
:1083B00013444FF000021A60424B1B680133414ADC
:1083C0001360404B1A68414B1B689A4228DB3D4BB7
:1083D00000221A603E4B01221A603E4B1B68002BA4
:1083E0000FD13C4B01221A60354B3B4A1A60364B89
:1083F0003A4A1A603A4B3B4A1A603B4B3B4A1A6076
:108400000EE0344B00221A602D4B364A1A602E4B78
:10841000364A1A60324B304A1A60334B2F4A1A6080
:108420000123B8E0324B1B685A1C31490A603149BC
:108430007A6841F823202E4B1A682F4B1B689A420A
:10844000C0F2A8800023BB630AE02A4ABB6B52F843
:1084500023202A49BB6B41F82320BB6B0133BB634C
:10846000254B1B68BA6B9A42EFDB00237B636EE0FF
:108470007B6B01333B6362E01A4D2EC6C03AAA3FC4
:108480000F98EA76B479AF3FCDCCCCCCCCCCEC3FD6
:108490009A9999999999B93F980100209C010020D7
:1084A000A8010020AC010020B0010020B401002090
:1084B000840100203400002088010020BC0100203D
:1084C00048000020C40100204C000020440000208F
:1084D000C8010020C001002074240020782600205C
:1084E00050000020701F0020540000207021002048
:1084F0008C0100207023002038000020701C002018
:10850000274A3B6B52F8232025497B6B51F82330D7
:108510009A4211DD224A7B6B52F82330FB60204ADD
:108520003B6B52F823201E497B6B41F823201C49EA
:108530003B6BFA6841F823203B6B01333B63194BDB
:108540001B683A6B9A42DBDB7B6B01337B63154B19
:108550001B687A6B9A428BDB124B1B68DA0F134451
:108560005B10013B0E4A52F823200E4B1B68D90FBB
:108570000B445B1019460A4B53F821301344DA0FB1
:1085800013445B101A46084B1A60084B00221A600D
:10859000012300E0002318464037BD46BDE8B08304
:1085A000701C002038000020840100208C01002075
:1085B000B0B588B000AF87ED010AD7ED017AF5EECE
:1085C000C07AF1EE10FA01D55D4BA9E0D7ED017A42
:1085D000F5EE407AF1EE10FA02D14FF000039FE081
:1085E0007B68FB614FF07E53BB614FF07E537B6134
:1085F00000233B6117E0F86903F008F84CA3D3E9C6
:10860000002303F05BF803460C461846214603F0AE
:108610004DFB0346FB61D7ED057AB2EE047A67EEB7
:10862000877AC7ED057AD7ED077A9FED467AF4EEA3
:10863000C77AF1EE10FA04DD3B695A1C3A61132B3C
:10864000D9DD17E0D7ED077A9FED3E7A67EE877A9E
:10865000C7ED077A786902F0D9FF37A3D3E9002381
:1086600003F02CF803460C461846214603F01EFB87
:1086700003467B61F86902F0C9FF2DA3D3E900230B
:1086800003F08EFA0346002B04D03B695A1C3A6172
:10869000132BD7DD0023FB601CE097ED077AD7EDA5
:1086A000067A77EE277AB6EE007A67EE877AC7ED1C
:1086B000027AD7ED076A97ED027AC6EE877A97EDD0
:1086C000067A67EE277AC7ED067ABB68FB61FB681E
:1086D0000133FB60FB68052BDFDD786902F096FF54
:1086E0004FF00002184B02F0E9FF03460C46254606
:1086F0001C4697ED077AD7ED067A77EE277A17EEC4
:10870000900A02F083FF02460B462046294602F0FB
:10871000D5FF03460C461846214603F0C7FA034628
:1087200007EE903AB0EE670A2037BD46B0BD00BFF5
:108730007B14AE47E17A843F9A9999999999B93F08
:10874000000080BF0000C8420000E03F80B483B05A
:1087500000AF094B9B6840337B60F1EE103A3B6001
:108760007B681B6823F09F027B681A6000BF0C3790
:10877000BD465DF8047B704730EF00E080B582B005
:1087800000AF274B1B68002B01D1002344E0244B92
:1087900000221A60234B1A68234B1B6819461046A7
:1087A00001F07AF800237B6032E01E4B1A687B6888
:1087B0009B00134493ED007A1A4B1A687B689B0068
:1087C0001344D3ED007A27EE277A174B1A687B689B
:1087D0009B001344D3ED006A134B1A687B689B001F
:1087E0001344D3ED007A66EEA77A77EE277AC7EDC9
:1087F000007A97ED000AFFF7DBFEF0EE407A0B4AB5
:108800007B689B001344C3ED007A7B6801337B6077
:108810007B681F2BC9DD012318460837BD4680BD84
:10882000C80100205000002054000020701D0020CE
:1088300080B400AF024B1846BD465DF8047B70471C
:10884000701D002080B400AF034B1B681846BD4666
:108850005DF8047B704700BF8401002080B483B0C2
:1088600000AF074BD3ED007AFDEEE77A17EE903AB2
:108870007B607B6818460C37BD465DF8047B70470B
:108880008801002080B582B000AF786005212620E5
:10889000FEF7D0FD2620FEF7B3FD2620FEF77CFD77
:1088A000034A7B68136000BF0837BD4680BD00BF28
:1088B000BC01002080B500AF134BD3F80031012B71
:1088C0001FD1114B0022C3F800210020FFF7A8F8A8
:1088D00003461A460D4B5A600320FFF7A1F80346E2
:1088E0001A460A4B9A60094B5A68084B9B6819460E
:1088F0001046FFF751F90346002B02D0044B01222A
:108900001A7000BF80BD00BF00600040040200205C
:108910008001002090B585B000AF0446084611469E
:108920001A462346FB710346BB710B467B71134607
:108930003B713B791846FEF7DDFD97F820301B02AE
:1089400043F4003343F001034B4AC2F810354A4B5D
:108950000122C3F804230620FEF71EFD3B79012205
:1089600002FA03F31A46454B1A604FF0A042434BFC
:108970001B68C2F808357A79B979FB791846FEF791
:108980006FFF3E4B05221A733C4B05225A733B4B3B
:1089900001229A73394B1B7B03F00703D9B2384A83
:1089A000137861F302031370354A13786FF3C5032C
:1089B0001370334A1378012161F387131370314A1E
:1089C00053786FF3420353702C4B5B7B03F0070328
:1089D000D9B22C4A537861F3C5035370274B9B7B64
:1089E00003F00303D9B2274A537861F38713537016
:1089F000244A13786FF305131370224A13786FF328
:108A000082031370204A13786FF3C40313701E4A55
:108A1000537843F0100353701B4A1378022161F31B
:108A200087131370184A137843F020031370144B04
:108A30001B7819460920FEF7A1FF134B1B88194626
:108A40000A20FEF737FF0F4B1B8819460C20FEF754
:108A500031FF0C20FEF7E4FF0346FB81094B1B8826
:108A6000FA899A4202D1094B01221A60FFF740F8B5
:108A700000BF1437BD4690BD0060004004020020D6
:108A8000702400207828002074260020CC010020CB
:108A900080B400AF074B1B78DBB2002B04D0054B32
:108AA00000221A70012300E000231846BD465DF83D
:108AB000047B70478001002080B400AF034B1B682B
:108AC0001846BD465DF8047B704700BFCC0100200E
:108AD00080B500AF0620FEF779FC184A13786FF3D3
:108AE00002031370154A13786FF3C5031370134A0A
:108AF00013786FF387131370104B1B7819460920F6
:108B0000FEF73CFF0E4B00221A800D4A137843F00B
:108B1000300313700A4A137843F004031370084AB1
:108B2000137843F002031370054B1B8819460C2081
:108B3000FEF7C0FEFFF722F800BF80BD70240020C2
:108B40007828002080B483B000AF0346FB71FB7926
:108B500003F01F02074997F907305B09012000FA6B
:108B600002F241F8232000BF0C37BD465DF8047BBC
:108B7000704700BF00E100E080B500AF194B002254
:108B8000C3F80425174B0322C3F80825154B04220C
:108B9000C3F81025134B43F69822C3F84025114B18
:108BA0005022C3F844250F4B0A22C3F848250D4B29
:108BB00045F27622C3F84C250A4B4FF48042C3F8A5
:108BC0005025084B1022C3F80022064B4FF4F81230
:108BD000C3F804231B20FFF7B5FF024B01221A60E4
:108BE00000BF80BD00B0014080B400AF274BD3F878
:108BF0005031002B0FD0254B0022C3F85021244BBD
:108C00001A68234B5B681A43214B9B684FF0A041C5
:108C10001343C1F80C351D4BD3F84C31002B03D056
:108C20001A4B0022C3F84C21184BD3F84831002BC3
:108C300009D0164B0022C3F848214FF0A042144B34
:108C40009B68C2F80835114BD3F84431002B09D08A
:108C50000E4B0022C3F844214FF0A0420C4B5B683E
:108C6000C2F80835094BD3F84031002B09D0074B27
:108C70000022C3F840214FF0A042054B1B68C2F808
:108C8000083500BFBD465DF8047B704700B0014069
:108C90007C28002080B584B000AF3B1D00221A6004
:108CA0005A6006233B7107237B710823BB71214B5C
:108CB00013221A701F4B1B781A46012393401A4641
:108CC0001D4B1A604FF0A0421B4B1B68C2F81835B1
:108CD0004FF0A042184B1B68C2F80C350023FB6014
:108CE0001FE03A1DFB6813441978144AFB681344CB
:108CF0000A461A70114AFB6813441B781A4601236E
:108D0000934019460E4AFB6842F823104FF0A042E8
:108D10000B49FB6851F82330C2F81835FB68013362
:108D2000FB60FB68022BDCDDFFF726FF00BF10377E
:108D3000BD4680BD902800208C2800208828002077
:108D40007C28002080B485B000AF78607B687A68AA
:108D500002FB03F3FB60FB689B10FB60FB68002BCE
:108D600001D10123FB60FB68B3F5804F02DD4FF4B6
:108D70008043FB60FB6818461437BD465DF8047BF2
:108D80007047000080B483B000AF78607B68002B30
:108D900006D04FF0A042084B1B68C2F8083505E02A
:108DA0004FF0A042044B1B68C2F80C3500BF0C37D3
:108DB000BD465DF8047B70478C28002080B584B0E8
:108DC00000AFF860B9607A60FB68002B09D14FF002
:108DD000A042294B1B68C2F80835274B00221A60B5
:108DE00007E0264B1B781A46012393401A46224B74
:108DF0001A60BB68002B09D14FF0A0421E4B5B6884
:108E0000C2F808351C4B00225A6007E01B4B5B7808
:108E10001A46012393401A46174B5A607B68002B71
:108E200009D14FF0A042144B9B68C2F80835124B91
:108E300000229A6007E0114B9B781A460123934069
:108E40001A460D4B9A60F868FFF77CFF02460C4B00
:108E5000C3F84025B868FFF775FF0246084BC3F812
:108E600044257868FFF76EFF0246054BC3F8482596
:108E700000BF1037BD4680BD7C2800208828002018
:108E800000B0014080B483B000AF0346FB71FB79B2
:108E900003F01F02074997F907305B09012000FA28
:108EA00002F241F8232000BF0C37BD465DF8047B79
:108EB000704700BF00E100E080B400AF0F4BD3F873
:108EC0005035002B15D00D4B0022C3F800220B4B60
:108ED0000022C3F81021094B01221A6100BF074B81
:108EE000D3F81031002BFAD0044B0022C3F8102124
:108EF00000E000BFBD465DF8047B704700100040F5
:108F000080B582B000AF78607B682B4A13602A4B33
:108F10001A682A4B1B689A4203D9274B1B68274AB9
:108F20001360274B0422C3F80C25254B1522C3F8E8
:108F30000825234B0222C3F81025214B214AC3F8F0
:108F400024251F4B204AC3F828251D4B1F4AC3F870
:108F50001C251B4B1E4AC3F82025194B0022C3F8C1
:108F60002C25174B0222C3F83025154B194AC3F89C
:108F70001425124B1B681A020F4B1B681343104A2F
:108F800043F08273C2F818350D4B0122C3F8342523
:108F90000B4BAA22C3F83C25094B40F20712C3F839
:108FA0003825074B0822C3F804230120FFF76AFF86
:108FB00000BF0837BD4680BD5C000020580000207F
:108FC000001000401122334455667788A70DE60E45
:108FD0000C05E60E0801080080B500AF134BD3F86E
:108FE000503503F00803002B02D0FFF765FF08E0BF
:108FF0000E4BD3F8503503F00303002B01D1FFF7DC
:109000005BFF0A4B0122C3F8FC2F084B0322C3F875
:109010000022064B0022C3F80021044B01225A60B3
:10902000034B01221A7000BF80BD00BF001000403A
:10903000E001002080B582B000AF1B4BD3F8503563
:1090400003F00803002B02D1FFF736FF08E0164BB0
:10905000D3F8503503F00303002B01D1FFF72CFFA9
:10906000114B0122C3F8FC2F0F4B0322C3F800223F
:109070000D4B01221A6000237B6002E07B68013304
:109080007B607B68132BF9DD074BD3F80032064A6F
:1090900043F00803C2F80032044B03221A7000BFE9
:1090A0000837BD4680BD00BF00100040E001002031
:1090B00080B500AF054B1B68054A1360054B064A97
:1090C000C3F80425FFF788FF00BF80BDD001002052
:1090D000D4010020001000409428002080B582B008
:1090E00000AF7860044A7B68C2F80435FFF7A2FF3E
:1090F00000BF0837BD4680BD0010004080B500AFFE
:10910000194B1B680133184A1360184BD3F80C3104
:10911000002B27D0154BD3F8043303F00803002BA2
:1091200020D0124B0022C3F80C2101F0D1FB0246E3
:109130000F4B1A600F4B1B78012B08D10E4B1B688D
:1091400001330D4A13600A4B1B680C4A1360094B2C
:109150001B78032B06D1054B094AC3F80425054BA0
:1091600001221A7000BF80BDE40100200010004001
:10917000D8010020E0010020D0010020DC01002007
:109180009428002080B483B000AF0346FB71FB79C4
:1091900003F01F02074997F907305B09012000FA25
:1091A00002F241F8232000BF0C37BD465DF8047B76
:1091B000704700BF00E100E080B483B000AF034619
:1091C000FB71FB7903F01F02074997F907305B0930
:1091D000012000FA02F2203341F8232000BF0C37AF
:1091E000BD465DF8047B704700E100E080B483B0C9
:1091F00000AF78604FF0A04318460C37BD465DF8CD
:10920000047B704780B584B000AF78600846114693
:109210001A460346FB700B46BB7013467B703B1D22
:109220001846FFF7E3FFF860FA78BB785B001A4353
:109230007B789B001A433B7E1B0242EA03013B7F83
:109240001B047A681943FB6802F5E07243F82210A8
:1092500000BF1037BD4680BD80B584B002AF7860D6
:109260000023019300230093002301220121786849
:10927000FFF7C8FF00BF0837BD4680BD80B584B08A
:1092800002AF78600B46FB70FA780023019300234D
:1092900000931346002200217868FFF7B3FF00BF58
:1092A0000837BD4680BD000080B485B000AF0346DE
:1092B0000A46FB711346BB7103E01F4BD3F8183508
:1092C000FB731D4BD3F80831002BF6D14FF0A042B1
:1092D0001A4B1B68C2F80C35174AFB79C2F81C35CB
:1092E00000BF154BD3F80831002BFAD0124BD3F83E
:1092F0001835FB73104B0022C3F808210E4ABB79C6
:10930000C2F81C3500BF0C4BD3F80831002BFAD043
:10931000094BD3F81835FB73074B0022C3F808211B
:109320004FF0A042054B1B68C2F8083500BF143748
:10933000BD465DF8047B704700300040D418002023
:1093400080B485B000AF0346FB710023FB7303E0DC
:10935000214BD3F81835FB731F4BD3F80831002B82
:10936000F6D14FF0A0421D4B1B68C2F80C35FB79BB
:1093700063F07F03DAB2184BC3F81C2500BF164B0D
:10938000D3F80831002BFAD0134BD3F81835FB7300
:10939000114B0022C3F808210F4B0022C3F81C25F3
:1093A00000BF0D4BD3F80831002BFAD00A4BD3F88D
:1093B0001835FB73084B0022C3F808214FF0A04278
:1093C000064B1B68C2F80835FB7B18461437BD46B0
:1093D0005DF8047B704700BF00300040D4180020C7
:1093E00080B485B000AF03463A60FB710B46BB7199
:1093F0000023FB7203E0284BD3F81835FB72264B91
:10940000D3F80831002BF6D14FF0A042234B1B6854
:10941000C2F80C35FB7963F07F03DAB21E4BC3F858
:109420001C2500BF1C4BD3F80831002BFAD01A4B77
:10943000D3F81835FB72184B0022C3F8082100231B
:10944000FB6018E0144B0022C3F81C2500BF124B30
:10945000D3F80831002BFAD00F4BD3F81815FB685E
:109460003A681344CAB21A700B4B0022C3F80821A1
:10947000FB680133FB60BB79FA689A42E2DB4FF08C
:10948000A042064B1B68C2F8083500BF1437BD4622
:109490005DF8047B704700BF00300040D418002006
:1094A00080B584B000AF0620FFF786FE1B20FFF7D3
:1094B00047FF0346FB730620FFF764FE704AFB7B01
:1094C0001370FB7B03F0C003002B01D10023D2E01B
:1094D0000620FFF771FE6B4A0C210C20FFF780FF7E
:1094E0000620FFF74FFE674BBB60BB685A1CBA6093
:1094F0001B78FB80BB685A1CBA601B781B029AB2AF
:10950000FB8813449BB2FB805F4AFB8853855E4B0C
:1095100093ED027AB7F9063007EE903AF8EEE77A63
:1095200067EE277A584BC3ED067ABB685A1CBA60BF
:109530001B78FB80BB685A1CBA601B781B029AB26E
:10954000FB8813449BB2FB804F4AFB8893854E4BAC
:1095500093ED027AB7F9063007EE903AF8EEE77A23
:1095600067EE277A484BC3ED077ABB685A1CBA608E
:109570001B78FB80BB685A1CBA601B781B029AB22E
:10958000FB8813449BB2FB803F4AFB88D3853E4B4C
:1095900093ED027AB7F9063007EE903AF8EEE77AE3
:1095A00067EE277A384BC3ED087ABB685A1CBA605D
:1095B0001B78FB80BB685A1CBA601B781B029AB2EE
:1095C000FB8813449BB2FB802F4AFB8893842E4B6D
:1095D00093ED017AB7F9063007EE903AF8EEE77AA4
:1095E00067EE277A284BC3ED037ABB685A1CBA6032
:1095F0001B78FB80BB685A1CBA601B781B029AB2AE
:10960000FB8813449BB2FB801F4AFB88D3841E4B0C
:1096100093ED017AB7F9063007EE903AF8EEE77A63
:1096200067EE277A184BC3ED047ABB685A1CBA6000
:109630001B78FB80BB685A1CBA601B781B029AB26D
:10964000FB8813449BB2FB800F4AFB8813850E4BAB
:1096500093ED017AB7F9063007EE903AF8EEE77A23
:1096600067EE277A084BC3ED057A074B5B6B013336
:10967000054A5363012318461037BD4680BD00BF1D
:10968000942900200C190020D418002080B582B045
:1096900000AFBB1D1A4602217820FFF7A1FEFA8811
:1096A000024B1A8600BF0837BD4680BDD418002083
:1096B00090B583B000AFBB1D1A4602212020FFF7F2
:1096C0008FFEB7F9063007EE903AF8EEE77A17EE1C
:1096D000900A01F09BFF4FF000024FF0814302F02F
:1096E00017F903460C46184621464FF000020A4B74
:1096F00001F02EFE03460C461846214602F0D6FA2B
:109700000246064B9A64054B9B6C07EE903AB0EE0E
:10971000670A0C37BD4690BD00003740D4180020C2
:1097200080B500AFB6217E20FFF7BEFD642001F0BA
:1097300039F911217E20FFF7B7FD642001F032F9DD
:1097400014217E20FFF7B0FD642001F02BF91121D8
:109750007E20FFF7A9FD642001F024F900214520B7
:10976000FFF7A2FD00214720FFF79EFDA721402023
:10977000FFF79AFD012001F015F905214120FFF7BF
:1097800093FD174B174A5A60012001F00BF927216E
:109790004220FFF789FD012001F004F90221432056
:1097A000FFF782FD012001F0FDF810215120FFF7A5
:1097B0007BFD0A215320FFF777FD80215620FFF71C
:1097C00073FD00215420FFF76FFD15217A20FFF76C
:1097D0006BFD0B217B20FFF767FD00BF80BD00BF45
:1097E000D4180020CDCC9C3A90B583B000AF04468D
:1097F000084611461A462346FB710346BB710B46C9
:109800007B7113463B71BB791846FFF725FD7B79C9
:109810001846FFF721FD3B791846FFF71DFDFB7940
:1098200000211846FFF72AFD3B79012202FA03F3D3
:109830001A460D4B1A604FF0A0420B4B1B68C2F842
:109840000835094B00225A63642001F0ABF8064B3F
:10985000064A5A60044B064A9A60FFF761FF00BF50
:109860000C37BD4690BD00BFD4180020CDCC9C3A2B
:109870005C7C8B3980B582B000AF0020FFF760FDC3
:109880000346FB71FB79D12B01D1012300E00023BA
:1098900018460837BD4680BD80B4BDB000AF7860C3
:1098A0003960074BC7F8E0300123C7F8DC304023AC
:1098B000C7F8D830D7F8D830C7F8E83002E000BF92
:1098C000F304353FD7F8E830DB08C7F8E830002369
:1098D000C7F8D430D7F8D420D7F8E8301344C7F805
:1098E000D030D7F8D020D7F8E8301344C7F8CC30C0
:1098F000D7F8CC20D7F8E8301344C7F8C830D7F8E9
:10990000C820D7F8E8301344C7F8C430D7F8C420CB
:10991000D7F8E8301344C7F8C030D7F8C020D7F8DC
:10992000E8301344C7F8BC30D7F8BC20D7F8E8308B
:109930001344C7F8B830D7F8D4309B007A68134482
:1099400093ED007AD7F8C4309B007A681344D3EDC6
:10995000007A77EE277AC7ED2D7AD7F8D4309B00BE
:109960007A68134493ED007AD7F8C4309B007A6884
:109970001344D3ED007A77EE677AC7ED2C7AD7F8E7
:10998000D0309B007A68134493ED007AD7F8C0304A
:109990009B007A681344D3ED007A77EE277AC7EDFF
:1099A0002B7AD7F8D0309B007A68134493ED007A75
:1099B000D7F8C0309B007A681344D3ED007A77EE75
:1099C000677AC7ED2A7AD7F8CC309B007A681344BF
:1099D00093ED007AD7F8BC309B007A681344D3ED3E
:1099E000007A77EE277AC7ED297AD7F8CC309B003A
:1099F0007A68134493ED007AD7F8BC309B007A68FC
:109A00001344D3ED007A77EE677AC7ED287AD7F85A
:109A1000C8309B007A68134493ED007AD7F8B830C9
:109A20009B007A681344D3ED007A77EE277AC7ED6E
:109A3000277AD7F8C8309B007A68134493ED007AF0
:109A4000D7F8B8309B007A681344D3ED007A77EEEC
:109A5000677AC7ED267A97ED2D7AD7ED297A77EEDA
:109A6000677AC7ED257A97ED2D7AD7ED297A77EECB
:109A7000277AC7ED2D7A97ED2B7AD7ED277A77EEF7
:109A8000677AC7ED297A97ED2B7AD7ED277A77EEAB
:109A9000277AC7ED2B7AD7F8D4309B007A68134425
:109AA00097ED2D7AD7ED2B7A77EE277AC3ED007AF2
:109AB000D7F8C4309B007A68134497ED2D7AD7ED20
:109AC0002B7A77EE677AC3ED007AD7F8D4309B0013
:109AD0003A68134493ED007AD7F8C4309B003A6893
