:1000000000000120E51500000D1600000F1600008D
:100010001116000013160000151600000000000065
:1000200000000000000000000000000017160000A3
:1000300019160000000000001B1600001D1600002D
:100040001F1600001D120000C91400001F1600003A
:100050001F1600001F1600001F1600001F160000CC
:100060001F1600001F160000410E00001F160000A2
:100070001F1600001F1600001F1600001F160000AC
:100080001F1600001F1600001F1600001F1600009C
:100090001F1600001F1600001F1600001F1600008C
:1000A0001F1600001F1600001F1600001F1600007C
:1000B0001F1600001F1600000000000000000000D6
:1000C0001F1600001F1600001F1600001F1600005C
:1000D0001F1600001F1600001F1600000000000081
:1000E0000000000000000000000000000000000010
:1000F0000000000000000000000000000000000000
:1001000000000000000000000000000000000000EF
:1001100000000000000000000000000000000000DF
:1001200000000000000000000000000000000000CF
:1001300000000000000000000000000000000000BF
:1001400000000000000000000000000000000000AF
:10015000000000000000000000000000000000009F
:10016000000000000000000000000000000000008F
:10017000000000000000000000000000000000007F
:10018000000000000000000000000000000000006F
:10019000000000000000000000000000000000005F
:1001A000000000000000000000000000000000004F
:1001B000000000000000000000000000000000003F
:1001C000000000000000000000000000000000002F
:1001D000000000000000000000000000000000001F
:1001E000000000000000000000000000000000000F
:1001F00000000000000000000000000000000000FF
:1002000010B5054C237833B9044B13B10448AFF350
:1002100000800123237010BD880000200000000032
:100220000021000008B5034B1BB103490348AFF39D
:10023000008008BD000000008C00002000210000AC
:10024000154B002B08BF134B9D46A3F5803A0021A8
:100250008B460F461348144A121A01F019FA0F4B35
:10026000002B00D098470E4B002B00D09847002061
:10027000002104000D000D48002802D00C48AFF307
:10028000008001F0E1F92000290000F0DBFC01F022
:10029000C7F900BF000008000000012000000000B6
:1002A0000000000088000020680700200000000017
:1002B0000000000080B485B000AF786039607B68D2
:1002C000FB60FB689E461D462B46BB603B68BA68D8
:1002D0001A6000BF1437BD465DF8047B704780B4D8
:1002E00085B000AF78607B68FB60FB689E461D466A
:1002F000284700BF1437BD465DF8047B70470000F7
:1003000080B584B000AF786072B60023FB6009E06E
:100310001B4AFB6820334FF0FF3142F82310FB6883
:100320000133FB60FB68072BF2DD0023FB6009E073
:10033000134AFB6860334FF0FF3142F82310FB682B
:100340000133FB60FB68072BF2DDBFF34F8FBFF378
:100350006F8F0C4B4FF480429A60BFF34F8FBFF307
:100360006F8F62B607F1080319467868FFF7A2FF9E
:100370007868FFF7B4FF002318461037BD4680BDEC
:1003800000E100E000ED00E080B483B000AF7860F1
:1003900000BF144BD3F80034002BFAD0114B0222CB
:1003A000C3F8042500BF0F4BD3F80034002BFAD05C
:1003B0000C4A7B68C2F8083500BF0A4BD3F80034FA
:1003C000002BFAD0074B0022C3F8042500BF054BD1
:1003D000D3F80034002BFAD000BF0C37BD465DF8CF
:1003E000047B704700E0014080B483B000AF7860C8
:1003F000396000BF134BD3F80034002BFAD0114BF7
:100400000122C3F8042500BF0E4BD3F80034002BA3
:10041000FAD07B683A681A6000BF0A4BD3F8003400
:10042000002BFAD0074B0022C3F8042500BF054B70
:10043000D3F80034002BFAD000BF0C37BD465DF86E
:10044000047B704700E0014090B59BB000AF78603E
:1004500039609A4B1B781C4601F086F802467B688F
:100460002146974801F0A2F87B68242B13D0954BC6
:100470001A78954B1A70934B5A78934B5A70934B4A
:100480001A78914B9A70904B6622DA7004218E484C
:1004900000F0BEFFEBE28E4B1B68002B40F04C815E
:1004A00000237B667B6E5A1C7A661A463B681344AF
:1004B0001A78864B1A7000233B6613E0854A3B6E20
:1004C00013441A787B6E591C796619463B680B44B5
:1004D0001B789A4203D0804801F068F8C7E23B6E6F
:1004E00001333B663B6E072BE8DD7B6E5A1C7A6658
:1004F0001A463B6813441B781A46784B1A60774BB0
:100500001B681B02754A13607B6E5A1C7A661A467A
:100510003B6813441B781A46704B1B6813446F4AA0
:1005200013606E4B1B681B026C4A13607B6E5A1C77
:100530007A661A463B6813441B781A46674B1B6859
:100540001344664A1360654B1B681B02634A1360C1
:100550007B6E5A1C7A661A463B6813441B781A460F
:100560005E4B1B6813445D4A1360002387F85F30BD
:10057000002387F85E30002387F85D300023BB65D9
:100580002EE0BB6D03F00103002B08D0BB6D3A6871
:1005900013441A7897F85F30134487F85F30B96DC9
:1005A0004F4B83FB0132CB17D21A13465B00134427
:1005B000CA1A002A08D0BB6D3A6813441A7897F813
:1005C0005E30134487F85E30BB6D3A6813441A7886
:1005D00097F85D30134487F85D30BB6D0133BB6520
:1005E000BB6D202BCDDD01237B653B6821331B7860
:1005F00097F85F209A4201D000237B653B68223345
:100600001B7897F85E209A4201D000237B653B68F7
:1006100023331B7897F85D209A4201D000237B6535
:100620002E4B1B68B3F5703F13DB264B1A78264B15
:100630001A70244B5A78244B5A70244B1A78224B48
:100640009A70214B6422DA7004211F4800F0E0FE0A
:100650000DE27B6D002B13D11A4B1A781A4B1A70CE
:10066000184B5A78184B5A70184B1A78164B9A70C8
:10067000154B6522DA700421134800F0C9FEF6E13B
:100680004FF080531B697B634FF480427B6BB2FB5E
:10069000F3F33B63114B1B6803F580431A467B6BF6
:1006A000B2FBF3F30133FB62FB6A3A6B796B0D48E3
:1006B00000F07CFF3B6B3B6520E000BFA400002006
:1006C000E01F00000800002008010020B800002002
:1006D000B400002000000020FC1F0000BC0000202F
:1006E000565555551C2000003B6D7A6B02FB03F3F9
:1006F0001846FFF749FE3B6D01333B653B6DFA6AD7
:100700009A42F1D8A04B01221A60A04B00221A6035
:100710009F4B1A789F4B1A709D4B5A789D4B5A707D
:100720009D4B1A789B4B9A709A4B0B22DA700421DE
:10073000984800F06DFE9AE1002387F84F300023BF
:1007400087F84E30002387F84D300023BB642EE03D
:10075000BB6C03F00103002B08D0BB6C3A68134458
:100760001A7897F84F30134487F84F30B96C8B4B99
:1007700083FB0132CB17D21A13465B001344CA1A0B
:10078000002A08D0BB6C3A6813441A7897F84E30A8
:10079000134487F84E30BB6C3A6813441A7897F8C4
:1007A0004D30134487F84D30BB6C0133BB64BB6CD8
:1007B000202BCDDD01237B643B6821331B7897F828
:1007C0004F209A4201D000237B643B6822331B7880
:1007D00097F84E209A4201D000237B643B68233374
:1007E0001B7897F84D209A4201D000237B647B6CE4
:1007F000002B13D1664B1A78664B1A70644B5A78EB
:10080000644B5A70644B1A78624B9A70614B652244
:10081000DA7004215F4800F0FBFD28E15E4B1B7895
:10082000013387F82B3000233B643B6C5A1C3A643D
:100830001A463B6813441B7897F82B209A4213D032
:10084000534B1A78534B1A70514B5A78514B5A707C
:10085000514B1A784F4B9A704E4B6722DA70042135
:100860004C4800F0D5FD02E14B4A97F82B3013704D
:100870000023FB6380E03B6C5A1C3A641A463B68D9
:1008800013441B781A46FB6B9B0007F168010B446D
:1008900043F8602CFB6B9B0007F16802134453F88C
:1008A000603C1A02FB6B9B0007F168010B4443F8A4
:1008B000602C3B6C5A1C3A641A463B6813441A7805
:1008C000FB6B9B0007F168010B4453F8603C1A4432
:1008D000FB6B9B0007F168010B4443F8602CFB6B3A
:1008E0009B0007F16802134453F8603C1A02FB6B4B
:1008F0009B0007F168010B4443F8602C3B6C5A1CC9
:100900003A641A463B6813441A78FB6B9B0007F164
:1009100068010B4453F8603C1A44FB6B9B0007F1E1
:1009200068010B4443F8602CFB6B9B0007F16802E5
:10093000134453F8603C1A02FB6B9B0007F16801FB
:100940000B4443F8602C3B6C5A1C3A641A463B68D3
:1009500013441A78FB6B9B0007F168010B4453F8B2
:10096000603C1A44FB6B9B0007F168010B4443F8A1
:10097000602CFB6B0133FB63FB6B072B7FF77BAFBB
:100980000023BB6354E000BFB4000020C00000207F
:100990000800002008010020B800002056555555D9
:1009A000344B1B6803F580539A00BB6B9B0007F127
:1009B00068010B4453F8603C19461046FFF714FDDC
:1009C0002C4B1B6801332B4A13602B4B1B68043BD9
:1009D000294A1360284B1B68002B2DDD254B1A6814
:1009E000264BA3FB02139B094FF47A7101FB03F31F
:1009F000D31A012B05D14FF0A0434FF08062C3F80A
:100A00000C251C4B1A681D4BA3FB02139B094FF4CA
:100A10007A7101FB03F3D31AB3F5FA7F05D14FF0D6
:100A2000A0434FF08062C3F80825BB6B0133BB6362
:100A3000BB6B072BB4DD00E000BF0F4B1B68002B26
:100A400002DC0F4B00221A600E4B1A780E4B1A7004
:100A50000C4B5A780C4B5A700C4B1A780A4B9A7004
:100A6000094B0B22DA700421074800F0D1FC6C37E7
:100A7000BD4690BDC0000020BC000020D34D6210D8
:100A8000B40000200800002008010020B800002069
:100A900080B588B000AF604B1B78FB7300F064FD3D
:100AA0000346BB73FA7BBB7B9A4200F0B080002305
:100AB000BB60BA7BFB7BD31ABB60574ABB7B13700E
:100AC00000F068FD0246554B1A60BB68002B04DA43
:100AD000BA68524B1B681344BB6000F051FD78604C
:100AE000FB7BFB778DE04E4B1B68002B0BD1FB7F14
:100AF0007A6813441A784B4B1B789A4203D1484BBF
:100B000001221A607AE0464B1B68012B0FD1FB7F54
:100B10007A6813441A78434B5B789A4203D1404B6E
:100B200002221A606AE03E4B00221A6066E03C4BEB
:100B30001B68022B26D1FB7F7A6813441B781A4668
:100B4000394B1A60354B1B68023B374A1268934297
:100B500006D8354B00221A60314B00221A604DE056
:100B6000FB7F0133314A1360304B1B681A462B4B15
:100B70001B689A4202D32D4B00221A60284B032295
:100B80001A603BE0264B1B68032B37D1FA7F274BBB
:100B90001B68D31ABB61BB69002B04DABA691F4B0F
:100BA0001B681344BB61204B1B68BA699A4225DB62
:100BB0001E4B1B68FB7500233B610EE0FB7D5A1C3E
:100BC000FA751A467B6813441978194A3B6913442D
:100BD0000A461A703B6901333B61134B1B683A6943
:100BE0009A42EBDB104B1B6811491846FFF72CFCAF
:100BF0000B4B00221A600C4B00221A60FB7F013362
:100C0000FB77FA7FBB7B9A427FF46DAF00E000BFB9
:100C10002037BD4680BD00BFA40000201400002086
:100C2000AC00002008000020A8000020B000002038
:100C30001801002080B400AF00BFBD465DF8047B02
:100C40007047000080B584B000AF4FF080430022B1
:100C5000C3F800214FF0804301221A6000BF4FF01B
:100C60008043D3F80031002BF9D04FF0A0434FF070
:100C70008062C3F8182500F0A1F80421052000F0D7
:100C80008BFB402000F07AF900F048FA00F0CCF835
:100C900078600023FB6041E0FFF7FAFE00F07CFA89
:100CA0000346002B3AD0FB68002B06D04FF0A04340
:100CB0004FF08062C3F80C2505E04FF0A0434FF0E1
:100CC0008062C3F80825FB68002B0CBF01230023BA
:100CD000DBB2FB60264800F073FA25492420FFF7B9
:100CE000B3FB244B06221A70224B5B780133DAB235
:100CF000204B5A700023BB600AE0BB6802331E49D8
:100D0000BA680A4411781B4AD154BB680133BB60EE
:100D1000BB68032BF1DD174800F016FA00F084F8E9
:100D200002467B68D31A41F287329342B4D9134BFF
:100D30001B68002BB0D100F0FDF844F204031B68DF
:100D40000F4A1360642000F0BBF80D4B1B68194676
:100D50000C4800F02BFC322000F0B2F8084B1B6866
:100D60001846FFF7CDFA002318461037BD4680BD60
:100D7000180100204402002008010020B4000020D7
:100D8000C4000020B420000080B483B000AF03464C
:100D9000FB71FB7903F01F02074997F907305B09E4
:100DA000012000FA02F241F8232000BF0C37BD46B3
:100DB0005DF8047B704700BF00E100E080B500AF44
:100DC000114B0422C3F840250F4B0022C3F8042521
:100DD0000D4B0122C3F808250B4B0422C3F8102544
:100DE000094B4FF48032C3F80423074B0122C3F8A8
:100DF00000220A20FFF7C8FF034B01221A60034BB1
:100E000001221A7000BF80BD00A00040DC0000205D
:100E100080B400AF034B1B681846BD465DF8047BE9
:100E2000704700BFC800002080B400AF034B1B68B0
:100E30001846BD465DF8047B704700BFCC0000201B
:100E400080B400AF184B0022C3F84021174B1B6839
:100E50000433164A1360164B1B680133144A13609F
:100E6000134B1B687C2B19D9124B1B680133114A99
:100E700013600F4B00221A600F4B1B6801330E4AA0
:100E800013600D4B1B68B3F57A7F07D30B4B1B68C0
:100E900001330A4A1360084B00221A6000BFBD46A6
:100EA0005DF8047B704700BF00A00040C800002030
:100EB000D4000020CC000020D8000020D00000206A
:100EC00080B485B000AF78600B4B1B78DBB2002B91
:100ED0000CD00A4B1A687B681344FB6000BF074BB9
:100EE0001A68FB689A42FAD100BF00E000BF1437CD
:100EF000BD465DF8047B7047DC000020CC0000207C
:100F000080B483B000AF0346FB71FB7903F01F028E
:100F1000074997F907305B09012000FA02F241F80E
:100F2000232000BF0C37BD465DF8047B704700BF2F
:100F300000E100E080B400AF0F4BD3F85035002B38
:100F400015D00D4B0022C3F800220B4B0022C3F832
:100F50001021094B01221A6100BF074BD3F8103151
:100F6000002BFAD0044B0022C3F8102100E000BF90
:100F7000BD465DF8047B70470010004080B582B02C
:100F800000AF78607B68294A1360294B0422C3F8BC
:100F90000C25274B1522C3F80825254B0222C3F840
:100FA0001025234B234AC3F82425214B224AC3F89A
:100FB00028251F4B214AC3F81C251D4B1F4AC3F887
:100FC00020251B4B0022C3F82C25194B0122C3F806
:100FD0003025164B1B68164A43F4002343F48073F4
:100FE000C2F81435164B1B681A02104B1B681343CA
:100FF0000F4A43F08273C2F818350D4B0122C3F833
:1010000034250B4BAA22C3F83C25094B40F20712AA
:10101000C3F83825064B0822C3F804230120FFF744
:101020006FFF00BF0837BD4680BD00BF1000002025
:10103000001000401122334455667788A70DE60E54
:101040000C00002080B500AF134BD3F8503503F0EF
:101050000803002B02D0FFF76DFF08E00E4BD3F81A
:10106000503503F00303002B01D1FFF763FF0A4B58
:101070000122C3F8FC2F084B1122C3F80022064BB3
:101080000022C3F80021044B01225A60034B0522C1
:101090001A7000BF80BD00BF00100040F0000020AB
:1010A00080B582B000AF1B4BD3F8503503F0080376
:1010B000002B02D1FFF73EFF08E0164BD3F8503566
:1010C00003F00303002B01D1FFF734FF114B012282
:1010D000C3F8FC2F0F4B1322C3F800220D4B012243
:1010E0001A6000237B6002E07B6801337B607B68D1
:1010F000132BF9DD074BD3F80032064A43F00803FF
:10110000C2F80032044B04221A7000BF0837BD46F3
:1011100080BD00BF00100040F000002080B500AF8F
:10112000054B1B68054A1360054B064AC3F80425A6
:10113000FFF788FF00BF80BDE0000020E400002032
:10114000001000405403002080B584B000AF7860E8
:101150000023FB600BE0FB687A68134419780B4AA4
:10116000FB6813440A461A70FB680133FB60FA6897
:10117000074B1B689A42EED3064B044AC3F804257A
:10118000FFF78EFF00BF1037BD4680BD5402002020
:10119000100000200010004080B400AF064B1A6819
:1011A000064B1B689A4214BF01230023DBB218468A
:1011B000BD465DF8047B7047E4000020E00000209D
:1011C00080B485B000AF78600023FB600AE0FB6864
:1011D0007A6813440C49FA680A4412781A70FB685A
:1011E0000133FB60FA68094B1B689A42EFD3084B46
:1011F0001B68084A1360084B1B6818461437BD4625
:101200005DF8047B704700BF5403002010000020ED
:10121000E0000020E4000020EC00002080B582B057
:1012200000AF484B1B680133464A1360464BD3F866
:101230000C31002B00F08180434B0022C3F80C21BD
:10124000FFF7E6FD0246414B1A60414B1B78DBB2CB
:10125000012B09D03E4B1B78DBB2052B04D03C4B55
:101260001B78DBB2032B5BD13A4B1B680133394A45
:101270001360364B1B68384A1360354B1B78DBB262
:10128000032B4AD1304BD3F80034002B0CD0334B16
:101290006F221A70314B6F225A70304B6F229A7046
:1012A0002E4B6F22DA700BE02C4B64221A702B4B02
:1012B00064225A70294B64229A70284B6422DA7097
:1012C00000BF214BD3F81031002BFAD01E4B002267
:1012D000C3F810211E4B04221A701B4B1F4AC3F87F
:1012E0000425194B1322C3F80022174B01221A6060
:1012F00000237B6005E07B6801337B607B68013302
:101300007B607B68132BF6DD0F4BD3F800320E4A5F
:1013100043F00803C2F800320FE00D4B1B780CE0DD
:101320000B4B1B78DBB2042B07D1074B0C4AC3F8DD
:101330000425074B05221A70FFE700BF0837BD469A
:1013400080BD00BFF400002000100040E800002035
:10135000F0000020E0000020EC00002054020020FB
:101360005403002080B483B000AF0346FB71FB79C7
:1013700003F01F02074997F907305B09012000FAC3
:1013800002F241F8232000BF0C37BD465DF8047B14
:10139000704700BF00E100E080B582B000AF786028
:1013A0003960194B4FF0FF32C3F80825164B4FF048
:1013B000FF32C3F81025144A7B68C2F80C35124A74
:1013C0003B68C2F8143501227B689A404FF0A04375
:1013D000C3F818250C4B0D4AC3F824250A4B0022EC
:1013E000C3F86C25084B8422C3F80423064B04225F
:1013F000C3F800250220FFF7B5FF034B01221A6056
:1014000000BF0837BD4680BD00200040A4DFBE0EEF
:1014100080B485B000AF786039603B68FF2B42DC58
:10142000244B1B78FB730023BB6019E0BB687A6810
:101430001A44FB7B591CF973194612781E4B5A54F7
:101440001E4B1B78DBB2FA7B9A4206D11B4B1B78F2
:10145000DBB20133DAB2194B1A70BB680133BB60DF
:10146000BA683B689A42E1DB124AFB7B1370144B6B
:101470001B78DBB2002B17D0104B1B78DBB21A465F
:101480000D4B9A5C0F4BC3F81C250C4B1B78DBB241
:101490000133DAB2094B1A700A4B01229A60084BE9
:1014A00000221A7000E000BF1437BD465DF8047BCF
:1014B000704700BFFA00002058060020F900002005
:1014C000180000200020004080B400AF1F4BD3F86C
:1014D0001C31002B1DD01D4B0022C3F81C211C4BBE
:1014E0001B78DAB21B4B1B78DBB29A420DD0194B3A
:1014F0001B78DBB25A1CD1B2164A11701A46164B31
:101500009A5C124BC3F81C251AE0144B01221A7086
:1015100016E00E4BD3F80831002B11D00B4B0022F4
:10152000C3F80821094BD3F818150D4B1B78DBB213
:101530005A1CD0B20A4A10701A46C9B2094B9954C3
:1015400000BFBD465DF8047B704700BF002000402F
:10155000FA000020F90000205806002018000020A2
:10156000F80000205404002080B400AF034B1B7827
:10157000DBB21846BD465DF8047B7047F8000020DA
:1015800080B400AF024B1846BD465DF8047B70473F
:101590005404002080B400AF034B1B681846BD46BE
:1015A0005DF8047B704700BF140000200FB480B5C5
:1015B00082B000AF07F114033B603B683A69FF213A
:1015C000074800F099F8786079680548FFF720FF30
:1015D00000BF0837BD46BDE8804004B0704700BF7B
:1015E000580500200649074A074B9B1A03DD043BB8
:1015F000C858D050FBDCFFF71DFBFEF721FE0000B2
:101600000C2100000000002088000020FEE7FEE71B
:10161000FEE7FEE7FEE7FEE7FEE7FEE7FEE7FEE7A2
:1016200008B5074B044613B10021AFF30080054B0A
:101630001868836A03B19847204600F0C3FC00BFD6
:1016400000000000C820000070B50D4D0D4C641B5B
:10165000A4100026A64209D10B4D0C4C00F0B4FC9E
:10166000641BA4100026A64205D170BD55F8043BAA
:1016700098470136EEE755F8043B98470136F2E704
:1016800080000020800000208000002084000020D6
:1016900002440346934200D1704703F8011BF9E767
:1016A00030B5141E05469BB0184605DA8B232B6017
:1016B0004FF0FF301BB030BD4FF40273ADF80C306B
:1016C00014BF04F1FF332346029305934FF6FF73D3
:1016D00000910491ADF80E3002461E9B69462846E3
:1016E00000F074F8431CBCBF8B232B60002CE1D0AE
:1016F000009B00221A70DDE707B5009313460A46E7
:10170000014603480068FFF7CBFF03B05DF804FB18
:101710001C0000202DE9F0478E689E4282460C4650
:101720009146984638D8B1F80CC01CF4906F31D06F
:1017300062692568096902EB42026F1A02EBD272F4
:10174000013355103B449D4238BF1D461CF4806F49
:1017500030D0294600F082FB064650B90C23CAF867
:101760000030A38943F04003A3814FF0FF30BDE870
:10177000F0873A46216900F0FBFAA38923F49063CD
:1017800043F08003A381266165613E44ED1B266022
:10179000A5604646464500D9464632464946206839
:1017A00000F0F4FAA3689B1BA36023681E44266024
:1017B0000020DCE72A4600F0ABFB06460028E2D119
:1017C0002169504600F0FCFAC8E700002DE9F04F0F
:1017D0001E468B891B069DB007460D4614460ED546
:1017E0000B6963B9402100F039FB2860286120B9FA
:1017F0000C233B604FF0FF30C9E040236B610023B6
:10180000099320238DF82930DFF89C91039630232B
:101810008DF82A304FF0010A23461E4613F8012B9B
:101820000AB1252AF9D1B6EB040B0BD05B46224650
:1018300029463846FFF76EFF013000F0A380099B70
:101840005B4409933378002B00F09C8000234FF019
:10185000FF32CDE905230136049307938DF8533009
:101860001A933446052214F8011B4F4800F030FA51
:10187000049BC0B9D90644BF20228DF853201A0713
:1018800044BF2B228DF8532032782A2A13D0079A8E
:10189000344600200A26214611F8013B303B092B33
:1018A0004BD970B914E0A0EB09000AFA00F0184314
:1018B00004902646D5E7039A111D12680391002A69
:1018C00001DB079204E0524243F0020307920493C3
:1018D00023782E2B0CD163782A2B33D1039B1A1D2E
:1018E0001B680392002BB8BF4FF0FF3302340593FF
:1018F0002E4E21780322304600F0EAF938B1402319
:10190000801B03FA00F0049B03430134049314F892
:10191000011B27488DF82810062200F0D9F900286D
:1019200038D0244B13BB039B073323F00703083342
:101930000393099B434409936EE706FB023201209F
:101940000C46A8E700230134059319460A262046D1
:1019500010F8012B303A092A03D9002BC8D0059181
:10196000C6E706FB012101230446F0E703AB009321
:101970002A46114B04A93846AFF30080B0F1FF3F6F
:101980008046D6D1AB895B063FF534AF09981DB0D0
:10199000BDE8F08F03AB00932A46074B04A93846F5
:1019A00000F082F8EAE700BFCC200000D22000005F
:1019B000D620000000000000151700002DE9F047B8
:1019C00091461F468A680B69DDF820809342B8BFB4
:1019D0001346C9F8003091F8432006460C4612B170
:1019E0000133C9F800302368990642BFD9F80030A6
:1019F0000233C9F80030256815F0060507D104F157
:101A0000190AE368D9F800209B1AAB4228DC94F845
:101A100043302268003318BF012392062DD404F10D
:101A2000430239463046C047013020D02368E5687C
:101A3000D9F8002003F00603042B08BFAD1AA368F1
:101A400022690CBF25EAE57500259342C4BF9B1AA5
:101A5000ED184FF000091A344D451AD1002008E066
:101A60000123524639463046C047013003D14FF07A
:101A7000FF30BDE8F0870135C3E7E1185A1C30207C
:101A800081F84300224494F8451082F84310023351
:101A9000C5E70123224639463046C0470130E6D02B
:101AA00009F10109D8E700002DE9F04306460C468C
:101AB00001F14300097E85B06E29984617460C9BBC
:101AC00000F0BA8024D8632939D00AD8002900F060
:101AD000C380582900F0918004F1420584F8421037
:101AE00035E0642901D06929F6D125681A6815F016
:101AF000800F02F104012CD012681960002A03DA69
:101B00002D23524284F84330DFF8BCC10A233FE062
:101B1000732900F0A58008D86F2921D07029DBD166
:101B2000226842F02002226003E0752918D078294B
:101B3000D2D1782284F84520DFF890C161E01A689C
:101B4000111D1960136884F8423004F14205012325
:101B500093E01268196015F0400F18BF12B2CDE77C
:101B6000D4F800C01A681CF0800F02F104051D6053
:101B700001D0126803E01CF0400FFAD01288DFF8A1
:101B800048C16F290CBF08230A23002184F84310A1
:101B90006568A560002DA2BF216821F004012160C5
:101BA0000AB9002D46D00546B2FBF3F103FB112E16
:101BB00093421CF80EE005F801ED39D9082B0BD142
:101BC0002368DA0708D5236962689A42DEBF3023AA
:101BD00005F8013C05F1FF35401B2061CDF8008080
:101BE0003B4603AA21463046FFF7E8FE013049D1C3
:101BF0004FF0FF3005B0BDE8F083DFF8CCC084F8CB
:101C000045101D68216855F8042B1D600D060BD585
:101C1000CD0744BF41F0200121601AB9236823F0A9
:101C2000200323601023B0E74B0648BF92B2EFE7D2
:101C30000A46B9E70546C1E71A68D4F800C06169E9
:101C4000151D1D601CF0800F136801D0196003E0A2
:101C50001CF0400FFAD01980002323610546BDE730
:101C60001A68111D1960156862680021284600F085
:101C70002FF808B1401B606063682361002384F87B
:101C80004330ABE723692A4639463046C047013026
:101C9000AED023689B0713D4E068039B9842B8BF7B
:101CA0001846A7E701234A4639463046C047013067
:101CB0009ED00135E368039A9B1AAB42F2DCEBE756
:101CC000002504F11909F5E7DD200000EE200000F1
:101CD00001F0FF01102A2BDB10F0070F08D010F8DD
:101CE000013B013A8B422DD010F0070F42B3F6D1E1
:101CF000F0B441EA012141EA014122F007047FF0FA
:101D000000070023F0E80256083C85EA010586EA50
:101D1000010685FA47F5A3FA87F586FA47F6A5FA8C
:101D200087F68EB9EED1F0BC01F0FF0102F0070298
:101D300032B110F8013B013A83EA010313B1F8D143
:101D40000020704701387047002D06BF3546033824
:101D5000073815F0010F07D1013015F4807F02BF5D
:101D6000013015F4C03F0130F0BC0138704700BFAE
:101D70000A44914200F1FF3300D1704710B511F8C9
:101D8000014B03F8014F9142F9D110BD884210B5C3
:101D900001EB020302D983421C4607D8421E994236
:101DA00008D011F8014B02F8014FF8E783189A1A8E
:101DB0009A4200D110BD14F8011D03F8011DF7E788
:101DC00038B50546002945D051F8043C0C1F002BBE
:101DD000B8BFE41800F0D2F81F4A1368104633B9B0
:101DE000636014602846BDE8384000F0CDB8A342D7
:101DF0000CD921686218934204BF1A685B6863605B
:101E000004BF521822600460ECE713465A680AB116
:101E1000A242FAD919685818A0420BD1206801448F
:101E2000581882421960DDD1106852685A60014426
:101E30001960D7E702D90C232B60D3E7206821185B
:101E40008A4204BF11685268626004BF09182160A9
:101E50005C60C7E738BD00BFFC000020F8B5CD1CB2
:101E600025F0030508350C2D38BF0C25002D06463E
:101E700001DBA94203D90C2333600020F8BD00F038
:101E80007DF821490A6814469CB9204F3B6823B964
:101E90002146304600F062F838602946304600F0AE
:101EA0005DF8431C23D10C233360304600F06CF8FE
:101EB000E3E723685B1B17D40B2B03D923601C4477
:101EC000256004E06368A2420CBF0B60536030469B
:101ED00000F05AF804F10B00231D20F00700C21A8D
:101EE000CCD01B1AA350C9E722466468CCE7C41CB7
:101EF00024F00304A042E3D0211A304600F02EF86B
:101F00000130DDD1CFE700BFFC0000200001002040
:101F1000F8B5074614460E4621B91146BDE8F8400B
:101F2000FFF79CBF22B9FFF74BFF25462846F8BDB7
:101F300000F030F8A0420FD221463846FFF78EFF5E
:101F400005460028F2D031462246FFF711FF314600
:101F50003846FFF735FFE9E73546E7E738B5064C81
:101F6000002305460846236000F01EF8431C02D1FA
:101F7000236803B12B6038BD58070020014800F0EA
:101F800011B800BF60070020014800F00CB800BF86
:101F90006007002051F8043C181F002BBCBF0B58F1
:101FA000C018704770477047044A05491368002BF2
:101FB00008BF0B4618441060184670470401002003
:101FC00068070020FEE700BFF8B500BFF8BC08BCFA
:101FD0009E467047F8B500BFF8BC08BC9E467047E7
:101FE000206C617374706F732025642075706F733B
:101FF000202564206C656E2025640A0075706C6F66
:10200000616420737461727420636F6465206E6F05
:102010007420666F756E64210A0000007061676548
:102020002073697A652025642C2073746172742092
:10203000706167652025642C20656E64207061677F
:10204000652025640A000000636F64652073697A67
:10205000652025640A0000006C61756E636820616C
:1020600064647265737320726561643A2030782508
:10207000580A00006C61756E636820616464726563
:1020800073732063616C633A20307825580A00002E
:102090006C61756E6368206164647265737320613E
:1020A000667465722077726974653A2030782558B5
:1020B0000A000000626F6F74207374617274206193
:1020C0007420307825580A0020000020232D302B62
:1020D0002000686C4C006566674546470030313229
:1020E0003334353637383941424344454600303180
:1020F00032333435363738396162636465660000DF
:0421000000000000DB
:082104003CE1FF7F0100000037
:10210C0010FCA305C0DE1177DF6200004000000068
:10211C004000000000010000010000002000002031
:10212C0000000000000000000000000000000000A3
:10213C000000000000000000000000000000000093
:10214C000000000000000000000000000000000083
:10215C000000000000000000000000000000000073
:10216C000000000000000000000000000000000063
:10217C000000000000000000000000000000000053
:08218C00250200000102000021
:04000003000015E5FF
:00000001FF
