:104000000000012051520000795200007B52000054
:104010007D5200007F52000081520000000000002D
:1040200000000000000000000000000083520000BB
:1040300085520000000000008752000089520000F5
:104040008B5200002D4E0000AD5100008B5200003D
:104050008B5200008B5200008B5200008B520000EC
:10406000B14800008B520000155000008B52000038
:104070008B5200008B5200008B5200008B520000CC
:104080008B5200008B5200008B5200008B520000BC
:104090008B5200008B5200008B5200008B520000AC
:1040A0008B5200008B520000ED4F00008B5200003D
:1040B0008B5200008B520000000000000000000046
:1040C0008B5200008B5200008B5200008B5200007C
:1040D0008B5200008B5200008B5200000000000049
:1040E00000000000000000000000000000000000D0
:1040F00000000000000000000000000000000000C0
:1041000000000000000000000000000000000000AF
:10411000000000000000000000000000000000009F
:10412000000000000000000000000000000000008F
:10413000000000000000000000000000000000007F
:10414000000000000000000000000000000000006F
:10415000000000000000000000000000000000005F
:10416000000000000000000000000000000000004F
:10417000000000000000000000000000000000003F
:10418000000000000000000000000000000000002F
:10419000000000000000000000000000000000001F
:1041A000000000000000000000000000000000000F
:1041B00000000000000000000000000000000000FF
:1041C00000000000000000000000000000000000EF
:1041D00000000000000000000000000000000000DF
:1041E00000000000000000000000000000000000CF
:1041F00000000000000000000000000000000000BF
:1042000010B5054C237833B9044B13B10448AFF310
:1042100000800123237010BD8800002000000000F2
:10422000B456000008B5034B1BB103490348AFF374
:10423000008008BD000000008C000020B456000083
:10424000154B002B08BF134B9D46A3F5803A002168
:104250008B460F461348144A121A01F013FA0F4BFB
:10426000002B00D098470E4B002B00D09847002021
:10427000002104000D000D48002802D00C48AFF3C7
:10428000008001F0DBF92000290000F0D3F901F0F3
:10429000C1F900BF0000080000000120000000007C
:1042A0000000000088000020A40900200000000099
:1042B000000000002DE9F04FDFF8149387B0D9F823
:1042C000004000F0B5FF064600F08AFEB94A1368C8
:1042D000C31AB3F5FA7F88BF1060B44232D0C9F870
:1042E000006000F0ABFF221D0746024402A8904286
:1042F00007EB040303D203AA9342C0F095801A6827
:10430000596802929A68DB680593CDE90312E4B21A
:10431000102100F0EFFEA64212D0A74BDFF8B482C6
:104320001968D8F80000844222461FD2651CEDB2FD
:10433000A6462C4649B9BA5C1D2A6AD0AE42F0D1D5
:10434000C9F8006007B0BDE8F08F012913D0022939
:1043500017D1B95CDFF868C2821E8A42CCF800101F
:104360004ED80021CCF800101960E7E700220124A4
:1043700096462546DEE7BA5C732A52D000211960C2
:10438000DCE70329DAD18D4AD2F800C08C4ABEEBB3
:104390000C0ED2F800A048BF8644F245CEDCBAF13C
:1043A000000F88490DDD8A448E4617F80CB00EF8D0
:1043B00001BB0CF1010C604598BF4FF0000CD645D5
:1043C000F3D10878B12860D0672803D14878B128A4
:1043D00000F08B807B4800F049FC00F001FE7A4B36
:1043E000A3FB003252094FF4FA7101FB1201F929C3
:1043F00094BFFF210021002000F0CEFA6E4BBDE7F4
:104400000EF10102904208D96C490A60032119603B
:1044100094E701221A60114690E7684A0021116072
:10442000F4E70221196089E73A5D8DF808205A788F
:104430008DF809209A788DF80A20DA788DF80B200B
:104440001A798DF80C205A798DF80D209A798DF80B
:104450000E20DA798DF80F201A7A8DF810205A7A0A
:104460008DF811209A7A8DF81220DA7A8DF81320BF
:104470001A7B8DF814205A7B8DF815209A7B8DF8C5
:104480001620DB7B8DF8173041E74878672843D04A
:1044900068289FD18878283802289BD8DFF838A16F
:1044A000DFF838B1019100F081FA01998878282865
:1044B00000F0A380292800F099802A2800F090803D
:1044C000019100F083FB01993D4A08784FF0010308
:1044D00067288AF800308BF8003016D14878B12868
:1044E00013D18978272910D105E0897827297FF40D
:1044F00071AFDFF8E4A03549086800F06DFA00F00C
:1045000065FB00212E4A8AF8001011682D480231FF
:1045100000F0F0FD284B31E7887827282AD028388A
:1045200002283FF657AFDFF8B0A0DFF8B0B0019136
:1045300000F03CFA01998878282871D0292868D0A1
:104540002A2860D0019100F041FB01991C4A0878AB
:104550004FF001034FF0000CB1288AF800308BF8BF
:1045600000C063D148786828CFD1887828380228DD
:10457000CBD897E72520019100F078FA00F026FBD0
:104580000199DFF854A00878DFF850B00C4A4FF0DA
:1045900001034FF0000CB1288AF800308BF800C0FE
:1045A00044D148786728DED1887828380228ACD8EA
:1045B000BDE700BFA8000020B8000020B000002028
:1045C000B400002088020020D34D621000000020BB
:1045D000AC00002018000020A4000020A50000204E
:1045E0002720019100F042FA019969E72620019104
:1045F00000F03CFA019988785FE7252000F036FA50
:104600000199887856E72720019100F02FFA019947
:1046100098E72620019100F029FA019988788FE720
:10462000252000F023FA0199887887E767287FF42E
:104630006CAF53E72DE9F84F4FF010204FF0804357
:1046400000220121C0F80C22C3F80021184619608D
:10465000D0F80031002BFBD000F0F4FD894B18603E
:1046600000F086FC00F05AF9FF21002000F094F9D8
:10467000FF21012000F090F90326FF21022000F025
:104680008BF9C82000F0F8FC0021022000F084F92A
:10469000C82000F0F1FC013EEFD1DC21304600F0F3
:1046A0007BF93146012000F077F9C821022000F0A3
:1046B00073F94FF47A7000F0DFFC734B734C186899
:1046C000DFF8D8B1724FDFF8E081DFF8E09100F059
:1046D00083F900F039FA6F4A6F491078097800F0D1
:1046E000DFFC26606660A660E66026616661A66102
:1046F000E66126626662A662E66284F8306084F84B
:10470000316000F063FA00F057FC00F069FC97F8A4
:1047100000A0751CBAF1000F0DD000F055FB68B178
:104720005E4800F05DFBD9F80024002A64D100F057
:104730004DFA2E46E7E700F019FB28BB354600F09E
:1047400011FCFFF7B7FDA8FB0532120AC2EB0222EB
:10475000A5EB4202B2F1FF0148BFC2F1FF013A7876
:10476000C9B242B1022000F017F9782101202E468B
:1047700000F012F9C7E7012000F00EF978210220BD
:104780002E4600F009F9BEE7444800F0FBFAD9F8DC
:1047900048159BF80060A1704F20D52120706170F2
:1047A0000EB3711E02296BD906F0FC0C3B4A3C4942
:1047B000DC4452F8040B41F8040B6245F9D126F0B1
:1047C000030296420FD0A1181BF80200C870501CBB
:1047D000864208DD02321BF800000871964202DDB5
:1047E0001BF802204A7100F0CFFC0028A7D1F11C71
:1047F000264800F07FFCA2E72A4BD9F848151A7822
:10480000A1704F26D52126706170AAB3010C060E47
:10481000020A2171A071E67062712C214FF0070C21
:1048200004EB0C02DBF800E0DBF8046044F80CE079
:10483000DBF80800DBF810C0DBF80CE05660DBF8B2
:1048400014609060DBF81800C2F80CE0DBF81CE0A4
:10485000C2F810C0DBF820C056619BF8246090615C
:10486000C2F81CE00948C2F820C082F8246000F0B9
:1048700041FC00F0ABF962E728214FF0030CCFE7D1
:104880005246A0E718000020000000200C01002084
:10489000A4000020050000200400002010020020D9
:1048A0000F010020A50000208180808000100040C2
:1048B00030B4164B16481749174A00250124C3F88F
:1048C0004051DC6003780D7814680233DBB203706A
:1048D0004FF0A0409D4294BFC0F80C45C0F8084579
:1048E0004C7850689C424FF0A04494BFC4F80C052B
:1048F000C4F808058978926899424FF0A0438CBFAC
:10490000C3F80825C3F80C2530BC70470080004070
:10491000BC00002000030020FC00002070B41A4AF4
:104920001A4C1B4B1B4D4FF0A0411A204FF08066D4
:104930002070166003201B26C1F8680766701C26CD
:10494000C1F86C07A670C1F870074FF000664FF011
:104950008050906056600824002101220720C3F88F
:104960004045C3F804154FF48034C3F80825C3F854
:1049700010054FF48070C3F80443C3F80012286098
:104980001A6070BC704700BFFC00002008010020C6
:104990000080004000E100E0022804D811FB01F192
:1049A000014B09121954704700030020094BD3F83A
:1049B000502572B100210120C3F800121A46C3F835
:1049C00010111861D2F81031002BFBD00023C2F86F
:1049D00010317047001000401D4A1E4B70B410602B
:1049E0000422C3F80C251C4E1C4D1D4C152202211F
:1049F000C3F80825C3F8101540F40022C3F8246555
:104A0000C3F828550025C3F81C4542F48072C3F84A
:104A10002045C3F82C550124124DC3F83045C3F886
:104A200014252D68104A40EA052040F08270C3F832
:104A30001805AA2640F207150820C3F83445C3F824
:104A40003C65C3F83855C3F80403116070BC704767
:104A50000C00002000100040112233445566778876
:104A6000A70DE60E0800002000E100E02F4B012119
:104A70000322252870B4C3F8FC1FC3F8102551D0B9
:104A8000262849D11A22C3F80825284A2849C2F8FD
:104A90005405284C284B294EC2F814458E20C2F8E4
:104AA0001835C2F81445C2F818350124C2F81C653F
:104AB0000023C2F8240540F20310C2F82C35204D23
:104AC0004B60C2F83045C2F8340540F25B641D48C3
:104AD000C2F83845C2F83C0508240220C2F80C355B
:104AE0008B60C2F81031CB60C2F80C310B61C2F898
:104AF00000314B61C2F804318B610B60CB610B62FA
:104B00004B628B62CB620B634B638B63CB63C2F8EC
:104B10000443286070BC7047272804BF5022C3F8A4
:104B20000825B2E70222C3F80825AEE700100040CE
:104B3000A0050020060102002500030200D6BE8960
:104B400000E100E05555550010B41E4BD3F8502538
:104B500012F008021ED1D3F8501569B10120C3F834
:104B600000221946C3F810211861D1F81031002B2A
:104B7000FBD00023C1F81031124B1349012213243A
:104B80000220C3F8FC2FC3F800421A6008705DF8D9
:104B9000044B7047D3F8502512F00302ECD1D3F840
:104BA00050150029E8D00120C3F800221946C3F8A7
:104BB00010211861D1F81031002BFBD00023C1F86F
:104BC0001031D9E700100040BD00002030B4224A67
:104BD000224B23491068234A0860C3F80425D3F800
:104BE000502512F0080FD3F850251FD072B10021C4
:104BF0000120C3F800121A46C3F810111861D2F848
:104C00001031002BFBD00023C2F81031134B164992
:104C10000122112500240520C3F8FC2FC3F80052FF
:104C2000C3F800415A60087030BC704712F00302AC
:104C3000ECD1D3F850150029E8D00120C3F80022A8
:104C40001946C3F810211861D1F81031002BFBD0A0
:104C50000023C1F81031D9E7D8000020001000402F
:104C6000C8000020A0050020BD00002070B43B4B10
:104C70003B4E1D6825B3021D311D814288BFB242E3
:104C800005F1FF3360D8072B5ED925F003040444F7
:104C90000346324653F8041B42F8041BA342F9D1E1
:104CA00025F003039D420BD0C25CF2545A1C95427E
:104CB00006D90233815CB1549D4201D9C25CF254E1
:104CC000284BC3F80465D3F8502512F0080223D10D
:104CD000D3F8501569B10120C3F800221946C3F872
:104CE00010211861D1F81031002BFBD00023C1F83E
:104CF00010311C4B1C4901221320C3F8FC2FC3F8B0
:104D000000021A60D3F80022042042F00802C3F81F
:104D10000022087070BC7047D3F8502512F00302CF
:104D2000E7D1D3F850150029E3D00120C3F80022C1
:104D30001946C3F810211861D1F81031002BFBD0AF
:104D40000023C1F81031D4E7054A0344013810F8B4
:104D5000011F02F8011B9842F9D1B1E70C000020B5
:104D6000A004002000100040BD000020034A044BB6
:104D700010681B68C01A18BF01207047C8000020C7
:104D8000D800002030B40B4D2B685BB10A49431E9C
:104D900011F8012B5A702C689A1C121A944203F1D4
:104DA0000103F5D8054B064A1868064B12681A60CD
:104DB00030BC70470C000020A0050020D00000206F
:104DC000D8000020C8000020034A044B10681B686C
:104DD000C01A18BF01207047CC000020D40000206A
:104DE00030B40E4B0E4C19684A1C092AC8BF002269
:104DF0001A602368002B0BDD0A4D0138002203FBEB
:104E000001539B5C00F8013F236801329342F6DCBA
:104E1000054B30BC53F82100704700BFCC00002088
:104E2000100000202C030020040300202DE9F8438B
:104E3000414A424C136801331360D4F80C310BB96A
:104E4000BDE8F88300233E4DC4F80C3100F0B4F8FF
:104E50002B783C4A012B106017D02B78052B14D0EF
:104E60002B78032B11D02B78042BE9D1364BC4F8C7
:104E7000043503232B70D4F81031002BFBD0002213
:104E80000123C4F810216360DAE7304A304913681F
:104E90000C68DFF8C4E0DFF8C4C0CEF800000133CE
:104EA000002C1360DCF8006025DD631E022B04FB80
:104EB00006F93CD9DFF8A880234F08EB090324F05A
:104EC000030018443A4652F8041B43F8041B83427B
:104ED000F9D124F003039C420DD008EB0902F95CE0
:104EE000D154591C8C4206DD0233785C50549C42EC
:104EF000C4BFF95CD154174BDEF8002043F82620DC
:104F00000136092EC4BF0023CCF800302B78D8BF5F
:104F1000CCF80060032B06D02B78052B90D1074BE3
:104F200001229A608CE7054B01225A6088E7064F00
:104F3000DFF82C800023D0E7C000002000100040E4
:104F4000BD000020C4000020A0050020D8000020E3
:104F50001000002004030020D0000020D400002016
:104F60002C030020014B1868704700BFC0000020D0
:104F700030B40E4B0E480F49FA24C3F840450122C5
:104F800000250424C3F80455C3F808254FF48035E0
:104F9000C3F810454FF48064C3F80453C3F80022EB
:104FA00004601A600A7030BC704700BF00A0004067
:104FB00000E100E0F8000020074B084A0121996455
:104FC00082B0D3F848150191D3F8483501931068A1
:104FD000019B184402B0704700A00040E000002090
:104FE000014B1868704700BFE800002010B5064B61
:104FF000064A00240121C3F84041596013689847CC
:10500000034B1C7010BD00BF00A00140F400002045
:10501000DC000020124A1349134B0020C2F8400163
:105020000A68FA320A601A6801321A601A68032A9A
:1050300015D910B40D4C0E4A216801312160186059
:105040001368013313601368B3F57A7F04D30949F9
:105050000B6801330B6010605DF8044B70477047BC
:1050600000A00040E0000020E4000020E800002054
:10507000EC000020F0000020074B1A7852B10749DD
:105080000B6882B0034401930A68019B9A42FBD1EA
:1050900002B07047704700BFF8000020E800002011
:1050A000114B70B44FF0FF34C3F808450122C3F828
:1050B00010454FF0A044C3F80C050C4DC3F814156F
:1050C00002FA00F0C4F81805094EC3F8246500245C
:1050D00004218420C3F86C45C3F80403C3F8001509
:1050E00029601A6070BC70470020004000E100E0B9
:1050F000A4DFBE0EFF293BDC2DE9F041DFF884E0A0
:105100009EF800C000295FFA8CFC14DD0CEB010650
:10511000184F194D0138F6B263465C1C2A7810F816
:10512000018F07F80380E3B29A421AD0B342F4D158
:105130008C440CF0FF0C114A8EF800C0137873B148
:105140000D490C4C0B780E48E35CC0F81C350B780D
:105150000133DBB2012500240B7085601470BDE8BB
:10516000F0812A780132D2B2B3422A70D5D1DFE77A
:10517000704700BFA4080020FA000020140000209F
:1051800000200040F9000020064A074B10781978EB
:10519000884210781B78A0EB030038BF00F58070C0
:1051A000704700BFF9000020FA00002010B4194B2E
:1051B000D3F81C21A2B100201749184AC3F81C01DA
:1051C0000878117888421ED01178154CC9B2481C55
:1051D000C0B2615C1070C3F81C155DF8044B7047D9
:1051E000D3F808110029F8D00E49C3F80821D3F8E4
:1051F00018450B780C48DBB25A1CC454D3B20B7060
:105200005DF8044B7047094B01221A705DF8044B9E
:10521000704700BF00200040F9000020FA00002085
:10522000A4080020FB000020A0060020140000209D
:10523000014B1878704700BFFB0000200048704702
:10524000A0060020014B1868704700BF180000201E
:105250000649074A074B9B1A03DD043BC858D05048
:10526000FBDC00F013F8FEF7EBFF0000C056000077
:105270000000002088000020FEE7FEE7FEE7FEE7D2
:10528000FEE7FEE7FEE7FEE7FEE7FEE730B4B04BE1
:105290001B78062B1BD0AF4AD2F8883043F470033A
:1052A000C2F88830BFF34F8FBFF36F8F4FF01023DA
:1052B000D3F80022002AC0F27581D3F80432002B03
:1052C000C0F27081A44BA54A1A6030BC7047A44B51
:1052D0001B681D07DFD1A34B1B6803F0F002302AC7
:1052E00000F0908003F0E003402B00F08B809D4B9A
:1052F0001B6803F0F003302B00F09580994B1B687E
:1053000003F0F002302A6CD003F0E003402B68D0A9
:10531000944B1B6803F0F003302B00F00981914B94
:105320001B6803F0F002302A47D003F0E003402B63
:1053300043D08C4B1B6803F0F003302B00F0EA8065
:10534000884B1B6803F0F003302B00F0CC80854BBA
:105350001B6803F0F003502B73D0824B1B6803F0E3
:10536000F002302A18D003F0E003402B14D07D4B1C
:105370001B6803F0F002302A03D003F0E003402B57
:1053800089D14FF08043D3F80024D20744BF6FF097
:105390000102C3F800247EE7734B6D4A1B68127844
:1053A000724903F04F03062A0B607FF474AF6C4B15
:1053B0001B6819077FF46FAFD9E7654A11784FF082
:1053C000804300220629C3F80C21C3F81021C3F83A
:1053D00038257FF460AF624B1B681B077FF45BAF1F
:1053E000A7E7634B5A4A1B6812786249C3F34233FA
:1053F000062A0B607FF44FAF594B1B6819077FF4E7
:105400004AAF85E75C4B524A1B6812785B49C3F38D
:105410000423062A0B607FF43EAF514B1B681C0728
:105420007FF439AF63E74A4B554A1B785549116001
:10543000062B7FF430AF4A4B1B6818077FF42BAF65
:105440005CE74FF08052504BD2F80414C3F820159B
:10545000D2F80814C3F82415D2F80C14C3F8281590
:10546000D2F81014C3F82C15D2F81414C3F8301560
:10547000D2F81814C3F83415D2F81C14C3F8401528
:10548000D2F82014C3F84415D2F82414C3F84815F0
:10549000D2F82814C3F84C15D2F82C14C3F85015C0
:1054A000D2F83014C3F85415D2F83414C3F8601588
:1054B000D2F83814C3F86415D2F83C14C3F8681550
:1054C000D2F840142248C3F86C15D2F8441402787C
:1054D000C3F87015062A7FF4DEAE214B1B6818074F
:1054E0007FF4D9AE39E71A4B284C1B782849294854
:1054F000294A0525256001250D6000243F21062B42
:10550000046011607FF4C7AE154B1B681C077FF465
:10551000C2AE1CE70E4B214A1B780321062B1160FB
:105520007FF4B9AE0E4B1B681D077FF4B4AE07E7DE
:105530001B4A0749D368097823F080730629D36092
:105540007FF4A9AE064B1B681A077FF4A4AEE6E60B
:10555000E00F00F000ED00E01C0000200090D00300
:10556000E40F00F0E80F00F058020010E40E0040D5
:10557000440200103C050040240300104035014067
:1055800074C007400DF0ADBA00C000401056004096
:10559000885600401856004014560040A0050040B0
:1055A000F0ED00E0184A0123C2F80435D2F80034C7
:1055B000002BFBD04FF010231521134AC3F8001223
:1055C000D2F80034002BFBD04FF0102315210E4AE7
:1055D000C3F80412D2F80034002BFBD000230A4990
:1055E000C2F80435D1F80034002BFBD0BFF34F8F45
:1055F0000649074BCA6802F4E0621343CB60BFF36D
:105600004F8F00BFFDE700BF00E0014000ED00E06C
:105610000400FA0508B5074B044613B10021AFF3A7
:105620000080054B1868836A03B19847204600F054
:1056300031F800BF00000000B056000070B50D4DFD
:105640000D4C641BA4100026A64209D10B4D0C4C36
:1056500000F022F8641BA4100026A64205D170BDFC
:1056600055F8043B98470136EEE755F8043B984758
:105670000136F2E78000002080000020800000203A
:105680008400002002440346934200D1704703F88F
:10569000011BF9E7FEE700BFF8B500BFF8BC08BC86
:1056A0009E467047F8B500BFF8BC08BC9E467047E0
:0856B0002000002000000000B2
:0856B80088EBFF7F01000000F8
:1056C0004000000004050000400000004000000011
:1056D0002500000001000000000100000090D00340
:1056E00000000000000000000000000000000000BA
:1056F00000000000000000000000000000000000AA
:105700000000000000000000000000000000000099
:105710000000000000000000000000000000000089
:105720000000000000000000000000000000000079
:105730000000000000000000000000000000000069
:085740002542000001420000B7
:040000030000525156
:00000001FF
